:030000000201DA20
:0C01DA00787FE4F6D8FD7581B6020221A2
:10001E0019011B0118011901190219011801190101
:10002E001B0118011901190219011B011D011B01E8
:10003E001D011B011D021D011B011D0220021D02BF
:10004E001601180119011B011801190119021901D4
:10005E00180119011B0118011901190219011801C2
:10006E00FF160218021906180219041D04180C11A5
:10007E000211021606140216041904140C110412AD
:10008E0006110212041904110800021902190219AC
:10009E0002180612021204180418080004FF0D04B8
:1000AE000D04140414041604160414081204120485
:1000BE00110411040F040F040D0814041404120487
:1000CE001204110411040F0814041404120412046F
:1000DE00110411040F08FFFE0000F88CF8F3F95B11
:1000EE00F9B8FA15FA67FAB9FB04FB4BFB90FBCF94
:1000FE00FC10FC44FC79FCACFCDCFD09FD34FD5C21
:10010E00FD82FDA6FDC8FDE8FE06FE22FE3DFE5662
:10011E00FE6EFE85FE9AFEAEFEC1FED3FEE4FEF43A
:02012E00FF03CD
:04055700021A02582A
:100368007524037525087B007A007925752C01AD65
:10037800247FA0120130E4F526E52690001E93FFA5
:1003880064FE6020EFB4FF18E5262409F52505244E
:10039800AD247B007A007925752C017FA0120130ED
:1003A800052680D50524E524C3940850127B007ADD
:1003B800007925752C01AD247FA012013080E57BE2
:0F03C800FF7A00791E85262C7D087FA002013068
:0E055B000212000002100000C18202140019FA
:1004EF00758912E4F58CF58A758B18758DFCC2B978
:1004FF00D2BBD2AFD2A9D2ABC28DC28FD28CD28E89
:01050F0022C9
:10043600120368E4F521E5212403FD7B007A0079A7
:10044600227529017FA01202EEE5212404FD7B001E
:100456007A0079237529017FA01202EEC3E5239560
:1004660022F523E4F518F519FB7A00793785232957
:0C047600AD227FA01202EE1204EF80FE07
:03000B0002026688
:10026600C0E0C0F0C083C082C0D075D00830026D37
:10027600E51515157002151414641845147004C29A
:100286008E805AE51545147054D28E74372519F8A8
:10029600E6B4FF0675180075190074372519F8E6D7
:1002A60075F002A424E6F582E5F03400F583E493C4
:1002B600FC740193FDECF516EDF5170519E51970BB
:1002C6000205182437F8E6FF7E00AC1AAD1B1204AF
:1002D600AD8E148F150519E51970020518D0D0D00A
:0802E60082D083D0F0D0E03299
:03001B0002054299
:10054200C0E0E5167004E517600885178B85168DE7
:05055200B294D0E0327C
:0A02EE008F248D258B268A2789288E
:1002F800E5297002D32212056AAF2412052A1205D5
:100308009792005055AF2512052A12059792005072
:100318004912056AE52404FF12052A12059792007E
:100328005038E52914F52AE52A601F120510AB2676
:10033800AA27A928EF12049B12058974012528F51C
:1003480028E43527F527152A80DD120510AB26AAE3
:0F03580027A928EF12049B1205B012057BA20003
:010367002273
:0403D700AD28AF2777
:0A03DB008F308D318B328A33893464
:1003E500E5357002D32212056AAF3012052A1205CF
:1003F5009792005036AF3112052A12059792005098
:100405002A853536E5366023AB32AA33A934120482
:1004150082FF12052A1205979200500F74012534A8
:10042500F534E43533F533153680D912057BA20052
:0104350022A4
:0C000E007FA4AE071FEE70FA7F02DFFE39
:01001A0022C3
:0D04BF00252BF52BE4352AF52A052DAF2756
:0204CC008F306F
:1004CE0075311012000E12056AAF3012052A120590
:1004DE00974003D531ED12057BE5316002D322C37F
:0104EE0022EB
:0A0130008F278D288B298A2A892B3E
:10013A00E52C7002D322E528C4540FF52DE52C24B2
:10014A00FFFFE434FFFE7C00EF2528FFEC3EFEEFC4
:10015A007804CEA2E713CE13D8F8F52E652D6024C5
:10016A00E528540FFFC374109FF52FAB29AA2AA9BB
:10017A002BF5351203D7E52F2528F528E52F12048C
:10018A00BF400122E52D652E6021E52DC3940F5055
:10019A001AAB29AA2AA92B7535101203D774102570
:1001AA0028F52874101204BF40DA22AB29AA2AA91A
:1001BA002BE52DB52E0AC3E52C952F540FFF80028F
:0F01CA007F0F8F351203D75005AF270204CCC328
:0101D9002203
:07000300D29712000AD29609
:01000A0022D3
:0C059700120003A2979201C296A201B3C9
:0105A3002235
:10056A00D296D2970012000AC2970012000AC296C7
:01057A00225E
:0E057B00C297D2960012000AD2970002000A20
:0C05A400D29600D2970012000A02057BDC
:0E058900C297120005C29612000AD2970022F5
:0C05B000120003C29612000AC29700223B
:10052A00C2967E08EF339297D29612000AC296EFCD
:07053A0025E0FFDEEFD29780
:010541002297
:10051000D2977E08EF25E0FFC296120005A297E46D
:0A052000334207DEEFC29602000A24
:1001E600020436E493A3F8E493A34003F68001F2F5
:1001F60008DFF48029E493A3F85407240CC8C3331A
:10020600C4540F4420C8834004F456800146F6DFE8
:10021600E4800B0102040810204080900557E47E1C
:10022600019360BCA3FF543F30E509541FFEE493DD
:10023600A360010ECF54C025E060A840B8E493A3A4
:10024600FAE493A3F8E493A3C8C582C8CAC583CACF
:10025600F0A3C8C582C8CAC583CADFE9DEE780BE87
:010569000091
:10048200BB010689828A83E0225002E722BBFE0278
:09049200E32289828A83E49322AB
:10049B00BB010689828A83F0225002F722BBFE0140
:0204AB00F3223A
:1004AD00EF8DF0A4A8F0CF8CF0A428CE8DF0A42E63
:0204BD00FE221D
:00000001FF
