:0300000002026E8B
:0C026E00787FE4F6D8FD7581A60202B589
:10000E0019011B0118011901190219011801190111
:10001E001B0118011901190219011B011D011B01F8
:10002E001D011B011D021D011B011D0220021D02CF
:10003E001601180119011B011801190119021901E4
:10004E00180119011B0118011901190219011801D2
:10005E00FF160218021906180219041D04180C11B5
:10006E000211021606140216041904140C110412BD
:10007E0006110212041904110800021902190219BC
:10008E0002180612021204180418080004160218A8
:10009E0002FF0D040D0414041404160416041408AF
:1000AE0012041204110411040F040F040D08140499
:1000BE00140412041204110411040F08140414047D
:1000CE0012041204110411040F08FFFE0000F88C34
:1000DE00F8F3F95BF9B8FA15FA67FAB9FB04FB4BBA
:1000EE00FB90FBCFFC10FC44FC79FCACFCDCFD0966
:1000FE00FD34FD5CFD82FDA6FDC8FDE8FE06FE2278
:10010E00FE3DFE56FE6EFE85FE9AFEAEFEC1FED38F
:06011E00FEE4FEF4FF0305
:0405B8000223019089
:100542005389F0438901758A18758CFCC28DD28C4F
:07055200D2A9D2AFC2B92209
:1004F100EF1FAA0670011E4A60147C007D7DD3EDBA
:0E0501009400EC940040E9ED1D70F31C80F0B6
:01050F0022C9
:10037400750B03750C0C7B007A00790C751301ADB9
:100384000B7FA0120124E4F50DE50D90000E93FF00
:1003940064FE6020EFB4FF18E50D240DF50C050B89
:1003A400AD0B7B007A00790C7513017FA012012438
:1003B400050D80D5050BE50BC3940850127B007A1C
:1003C40000790C751301AD0B7FA012012480E57B2D
:0F03D400FF7A00790E850D137D0C7FA0020124A6
:1001D400120374750801E5082403FD7B007A007995
:1001E400097510017FA01202FAE5082404FD7B00C2
:1001F4007A00790A7510017FA01202FAC3E50A9504
:1002040009F50AE4F521F522FB7A007927850A101D
:10021400AD097FA01202FA12054274272522F8E6DE
:10022400FFF4603D7525008F260522E52270020546
:10023400212427F8E6FD7C00AE23E5247802CEC312
:1002440013CE13D8F9FF1204BC1204F10522E522DF
:1002540070020521C28C7F187E001204F1D28C80BA
:0A026400B9C28CE4F521F52280B048
:03000B00020442AA
:10044200C0E0C083C082C0D075D000C006C007E53E
:100452002625E0FFE52533FE74DA2FF58274003E8F
:10046200F5837401937002E493601774DA2FF582B6
:1004720074003EF583E493FE740193F58AEEF58CE5
:0F048200B294D007D006D0D0D082D083D0E03251
:0A02FA008F0B8D0C8B0D8A0E890FFF
:10030400E5107002D322120559AF0B12052A12050B
:100314009392005055AF0C12052A12059392005087
:1003240049120559E50B04FF12052A1205939200A0
:100334005038E51014F511E511601F120510AB0DCE
:10034400AA0EA90FEF1204AA1205787401250FF55D
:100354000FE4350EF50E151180DD120510AB0DAA54
:0F0364000EA90FEF1204AA1205AC12056AA2002F
:010373002267
:0403E300AD0FAF0E9D
:0A03E7008F178D188B198A1A891BD5
:1003F100E51C7002D322120559AF1712052A120506
:100401009392005036AF1812052A120593920050AC
:100411002A851C1DE51D6023AB19AA1AA91B12040C
:1004210091FF12052A1205939200500F7401251BAA
:10043100F51BE4351AF51A151D80D912056AA200BB
:010441002298
:0C0586007FA4AE071FEE70FA7F02DFFEBC
:010592002246
:0204CE008F1786
:1004D000751810120586120559AF1712052A120554
:1004E000934003D518ED12056AE5186002D322C3C4
:0104F00022E9
:0A0124008F0E8D0F8B108A118912C7
:10012E00E5137002D322E50FC4540FF514E5132422
:10013E00FFFFE434FFFE7C00EF250FFFEC3EFEEFE9
:10014E007804CEA2E713CE13D8F8F5156514602007
:10015E00E50F540FFFC374109FF516AB10AA11A92B
:10016E0012F51C1203E3E516250FF50FE516802197
:10017E00E5146515602DE514C3940F5026AB10AA37
:10018E0011A912751C101203E37410250FF50F74CC
:10019E00102512F512E43511F5110514AF0E1204E7
:1001AE00CE80CDAB10AA11A912E514B5150AC3E580
:1001BE00139516540FFF80027F0F8F1C1203E3AFAF
:0501CE000E1204CED367
:0101D3002209
:07000300D29712000AD29609
:01000A0022D3
:0C059300120003A2979201C296A201B3CD
:01059F002239
:10055900D296D2970012000AC2970012000AC296D8
:01056900226F
:0E056A00C297D2960012000AD2970002000A31
:0C05A000D29600D2970012000A02056AF1
:0E057800C297120005C29612000AD297002206
:0C05AC00120003C29612000AC29700223F
:10052A00C2967E08EF339297D29612000AC296EFCD
:07053A0025E0FFDEEFD29780
:010541002297
:10051000D2977E08EF25E0FFC296120005A297E46D
:0A052000334207DEEFC29602000A24
:10027A000201D4E493A3F8E493A34003F68001F2C5
:10028A0008DFF48029E493A3F85407240CC8C33385
:10029A00C4540F4420C8834004F456800146F6DF54
:1002AA00E4800B01020408102040809005B8E47E27
:1002BA00019360BCA3FF543F30E509541FFEE49349
:1002CA00A360010ECF54C025E060A840B8E493A310
:1002DA00FAE493A3F8E493A3C8C582C8CAC583CA3B
:1002EA00F0A3C8C582C8CAC583CADFE9DEE780BEF3
:0105BC00003E
:10049100BB010689828A83E0225002E722BBFE0269
:0904A100E32289828A83E493229C
:1004AA00BB010689828A83F0225002F722BBFE0131
:0204BA00F3222B
:1004BC00EF8DF0A4A8F0CF8CF0A428CE8DF0A42E54
:0204CC00FE220E
:00000001FF
