:0300000002117872
:0C117800787FE4F6D8FD75814D0211BFB0
:1015F40012161C12151C30000F300607C206E4FF39
:10160400120A4C12120480EE300305120BAEC20310
:08161400120F1312147880DE9E
:03000B00020CC61E
:100CC600C0E0C0F0C083C082C0D075D000C000C0F4
:100CD60001C002C003C004C005C006C00720032C23
:100CE60075F002E53CA42480F582E5F03417F5831F
:100CF6000529E52970020528FFD37401939FE49323
:100D060095285008752800752900D20330045A0525
:100D160039E53970020538C394A0E5389405403AA0
:100D2600E53994D8E53894094021E5399410E53839
:100D3600940E4008753800753900802FE537C39446
:100D4600034003D38001C392A78020E537C39402F2
:100D56004003D38001C392A78011E537C3940140B5
:100D660003D38001C392A78002C2A73001051215E2
:100D7600A280063002031215CBD007D006D005D0CC
:100D860004D003D002D001D000D0D0D082D083D0FE
:040D9600F0D0E03287
:0300030002105692
:10105600C0E0C0F0C083C082C0D075D000C000C060
:0D10660001C002C003C004C005C006C007E1
:10107300751F1475B0FF7F03E5B04207EF64FB6093
:10108300127F0A7E001216F37F03E5B04207EF6476
:10109300FB70377F327E001216F3D51FD930002044
:1010A300AB3CAD31AF3212154B12175712174675C1
:1010B3002800752900C203D28C752BFFD205800846
:0A10C300C2A3C2A7C28CD206B2007D
:1010CD00D007D006D005D004D003D002D001D00077
:0B10DD00D0D0D082D083D0F0D0E03221
:10161C00758902E4F58CF58AD288C2B8D2B9F50B7B
:10162C00750C00750D31F50E750F0075103CFB7ABD
:06163C0000793202142EB9
:10151C001217461212F3120BAE7F0E12177575428C
:10152C0000754328120FBA7F0C121775E4F542F5BB
:0F153C0043121746C203D2AFD2A9D28CD2A82233
:100BAE00C2AF1216AFAC06AD07EC12032A8F368E0B
:100BBE00358D348C33121746750829D508FDD2AF02
:100BCE00AF36AE35AD34AC33E4FBFA7980783D12F6
:100BDE0001068F368E358D348C33AF4CAE4BAD4A0D
:100BEE00AC49AB36AA35A934A8331202AC600E401C
:100BFE000C85364C85354B85344A853349AF30AE3E
:100C0E002FAD2EAC2DAB36AA35A934A8331202ACBB
:100C1E00500C85363085352F85342E85332DAC32EC
:100C2E00EC12032FAB36AA35A934A8331202AC60EE
:100C3E005A4058D201D204AC32EC12032FA804A9A8
:100C4E0005AA06AB07AF36AE35AD34AC3312001184
:100C5E00C004C005C006C007AC41E412032FA804AF
:100C6E00A905AA06AB07D007D006D005D0041202FC
:100C7E000FE4FBFA7980783F1200151203638F3769
:100C8E007508151215A2D508FA8007C201C204E430
:100C9E00F537AC31EC12032FAB36AA35A934A83395
:100CAE001202AC500ED202D2A37508151215CBD576
:070CBE0008FA22C2A3C202E2
:010CC500220C
:100F1300E52C2441605B24E0607324F07003020F2E
:100F2300B124706003020FB9300505120FBAC20570
:100F33007FC2121775AF36AE35AD34AC337B007A52
:100F4300007922750F057510011205AC7B007A003C
:100F530079221214C07FCF1217757B007A00792291
:100F6300751301AF37120E5D7B007A0079220214EC
:100F7300C0300505121642C2057F89121775D207C4
:100F83001214EC7FC9121775C2070214EC30050561
:100F9300121668C2053001097F88121775D20780BF
:100FA3000A30020A7FC8121775C20712127D300574
:070FB300051213D7C205224D
:0C176800001FEF6007007E03DEFEDFF9CB
:011774002252
:10168E00E4FDD295C2957F3C121768D2957F0C125D
:10169E001768A295E433FDD2957F18121768AF052F
:0116AE002219
:0216CD00AD0767
:1016CF007B08C2957F01121768ED1392957F051263
:0A16DF001768D295EDC313FDDBE898
:0116E90022DE
:0A1577007FCC1216CD7FBE1216CDF8
:101581007D08E4FCC2957F01121768D295ECC31364
:10159100FC3095034304807F05121768DDE6AF0434
:0115A1002227
:1017460012168EEF700A7FCC1216CD7F441216CD7C
:011756002270
:1016AF00E4F9FCFBFA12168EEF6004E4FEFF22123F
:0D16BF001577A907121581EFFAE9AE02FFB9
:0116CC0022FB
:10154B00AC07AA03A90512168EEF701F7FCC1216DB
:10155B00CD7F4E1216CDAF041216CDAF011216CDA4
:0C156B00EAC43354E0441FFF1216CD22E6
:10142E008B088A09890A12168EEF703D12157712F3
:10143E001581121581AB08AA09A90AEF120515121A
:10144E001581AB0BAA0CA90DEF120515121581AB68
:10145E000EAA0FA910EF120515AB0EAA0FA91012A6
:0A146E0004FCC413540712051522F4
:1017570012168EEF700A7FCC1216CD7F481216CD67
:01176700225F
:101720007580FFC292C290D291D292AF80EF20E733
:03173000F2C29270
:011733002293
:0B177500EF6007C208F51212173422C3
:07178B00D2088F120217348F
:10173400121720C291A2089290851280D29200C200
:021744009222EF
:100D9A0057656C636F6D6520746F204141554353ED
:100DAA00002020202020204E4F2E313320202020CA
:100DBA002000483A0020204C3A00543A00202046AD
:100DCA00414E3A00486967686573743A20004C6F6F
:100DDA00776573743A20200041626F766520483A3D
:100DEA000042656C6F77204C3A0054523A2000203A
:100DFA0020204647533A2000566F6C756D653A209D
:100E0A000048204C696D69743A20004C204C696D89
:100E1A0069743A2000545265736F6C7574696F6E09
:100E2A003A200046476561722720537465703A205C
:100E3A000052696E67746F6E653A202000566F6CB7
:100E4A00756D653A00202020006D002E0073007E2B
:030E5A007F2020D6
:0916EA00E54325E0FFE54233FE73
:1016F300EF1FAA0670011E4A60097D8E1DED60F082
:031703000080F96A
:0117060022C0
:0614BA007B007A0079229C
:1014C0008B0F8A108911AB0FAA10A9111204FC60AE
:1014D0001A0511E5117002051014F91204FCFF122F
:0C14E000178BAF43AE421216F380DB22E4
:1012F3007F381217757F0C1217757F061217757FCB
:10130300011217757F901217757BFF7A0D799A1268
:1013130014C07542007543647FD01217757F07129E
:1013230017757BFF7A0D79AB1214C07F0612177500
:101333007508037F081217751216EA7F0C121775CA
:101343001216EAD508ED7508107F18121775AF430A
:10135300AE421216F3D508F17F01121775E4F54278
:02136300F54350
:011365002265
:100FBA007F011217757BFF7A0D79BC1214C07B0072
:100FCA007A007922751303AF32120E5D1214BA7BBE
:100FDA00FF7A1779881214C07BFF7A0D79BF121431
:100FEA00C07B007A007922751303AF31120E5D12AD
:100FFA0014BA7BFF7A1779881214C07FC01217754A
:10100A007BFF7A0D79C41214C0AF36AE35AD34AC5D
:10101A00337B007A007922750F057510011205AC31
:10102A001214BA7BFF7A1779881214C07BFF7A0DE3
:10103A0079C71214C07B007A007922751301AF3781
:0C104A00120E5D7B007A0079220214C0B7
:101642007F011217757BFF7A0D79CE1214C0D20773
:101652001214EC7FC01217757BFF7A0D79D8121421
:06166200C0C2070214ECF7
:101668007F011217757BFF7A0D79E21214C0D20739
:1016780012127D7FC01217757BFF7A0D79EB121459
:06168800C0C20702127D42
:1013D7007F011217757F011217757BFF7A0D79F45C
:1013E7001214C0E53C2430FF12178B7BFF7A0D796E
:1013F700F91214C0E5412430FF12178B7BFF7A17CF
:1014070079881214C07FC01217757BFF7A0E790294
:101417001214C0E4F508E508C3952A50097FFF12A6
:06142700178B050880F0A0
:01142D00229C
:020A4C008F0910
:100A4E00780B7C007D007BFF7A0E79597E007F0447
:100A5E001204B4E509652B7003020BADE52BC3132D
:100A6E00FFE509C3136F7003020B547F0112177554
:100A7E00E509C31314605F147003020B12240260A5
:100A8E0003020B547F811217757BFF7A0E790B12BE
:100A9E0014C07B007A007922751303AF32120E5DFB
:100AAE001214BA7BFF7A1779881214C07FC11217FD
:100ABE00757BFF7A0E79151214C07B007A007922AD
:100ACE00751303AF31120E5D1214BA7BFF7A1779CC
:100ADE00881214C080707F811217757BFF7A0E7991
:100AEE001F1214C0E53C2430FF12178B7FC1121762
:100AFE00757BFF7A0E792D1214C0E5412430FF125A
:100B0E00178B80427F821217757BFF7A0E793B120C
:100B1E0014C0E5482430FF12178B7FC11217757B66
:100B2E00FF7A0E79471214C0E4F50AAD0AED33953B
:100B3E00E0FCC3ED952A7480F86C9850097FFF1283
:100B4E00178B050A80E5E5095401F50A7F80121717
:100B5E0075E50A25E0240BF8E6FF12178B7F8F123E
:100B6E001775E50A25E0240CF8E6FF12178BE50A47
:100B7E0070047F0180027F008F0A7FC0121775E517
:100B8E000A25E0240BF8E6FF12178B7FCF1217759C
:0F0B9E00E50A25E0240CF8E6FF12178B85092BDA
:010BAD002225
:10085300750B18C207E52B1460191470030209798C
:1008630014700302097114700302096E24046003F7
:10087300020A4BE52B6004AF318002AF328F09D5FA
:100883000B05750B18B207E52B60047FC080027F50
:1008930080EF440AFF1217753007087BFF7A0E7941
:1008A3004F80147B007A007922751303AF09120E6F
:1008B3005D7B007A0079221214C01210E8EF1470E5
:1008C300030209482403601314604024FD70B0E55B
:1008D3002B60058509318003850932E52B60047F90
:1008E300C080027F80EF440AFF121775E52B600476
:1008F300AF318002AF327B007A0079227513031285
:100903000E5D7B007A0079220214C0D3E50964806E
:1009130094495003020882AF31EF3395E0FEEF2490
:1009230001FFE43EFEAD09ED3395E0FCD3ED9FEE10
:100933006480F8EC6480985007E52B70030208820A
:100943001509020882C3E509648094FF4003020885
:1009530082E53214C36480F8E5096480984007E5B2
:100963002B60030208820509020882854809E52BEA
:10097300B40303854109E52BB40203853C09E52B48
:10098300B404047F0E80027F0FE52B30E0047EC0A9
:1009930080027E80EE4FFF121775D50B05750B187D
:1009A300B207300705750A208006E5092430F50AE9
:1009B3007F10121775AF0A12178B1210E8EF14602D
:1009C300572403602314604324FD70CEE52BB40445
:1009D300058509488012E52BB40305850941800884
:1009E300E52BB4020385093CE52BB40404AF48802E
:1009F3000BE52BB40304AF418002AF3C8F0A7F1099
:100A0300121775E50A2430FF02178BD3E5096480BA
:100A13009480408615098082E52B7E00B403047F11
:100A23000480027F00EF2403FFE43EFEAD09ED33B3
:100A330095E0FCC3ED9FEE6480F8EC64809840037E
:080A430002099D050902099D4D
:010A4B002288
:10170700AC3B7F0A7E001216F3753B0FE5B0423BF8
:08171700E53B6C6002D322C324
:01171F0022A7
:1014780075B0FF753B0FE5B0423BE53B244160107A
:1014880024E0600C24F0600824F060132480701EAF
:10149800E52C653B601B1217074016853B4522E586
:1014A80045F4600D1217074008D20585452C75458F
:0214B800FF2211
:1012040075B0FF753B0FE5B0423BE53B24416010F0
:1012140024E0600C24F0600824F0600D24807055F4
:101224001217074053853B4522E545F4604A1217DF
:10123400074045E5452441601A24E0602024F0601D
:101244002C2470702BC2AF7545FF1208537545FFEF
:10125400D2AF22E52B04F508B406158010E52B70F7
:1012640005750805800AE52B14F5088003E4F508E4
:08127400AF08120A4C7545FF9A
:01127C00224F
:1010E80075B0FF753B0FE5B0423B12170750037F01
:1010F8000022E53B2481604F24A0600C24F0604767
:1011080024F0604824407062E545653B7036E54D43
:10111800700D054DE53BB4BF037F01227FFF22051B
:101128004DE54DC394604011E54D540F700BE53B00
:10113800B4BF037F01227FFF22E54DB4FF03754D45
:101148005F7F0022E4F54D853B458021E545B4FFEE
:10115800037F0022E5452411600A2470700C754550
:10116800FF7FFE227545FF7F02227545FF7F002223
:1015A200053EE53EB4B421E4F53E053AE53AB4140D
:1015B20017E4F53A0546E546B43C0DE4F546054028
:0915C200E540B43C03E4F54022CD
:1015CB00053FE53FB4B421E4F53F053DE53DB414DB
:1015DB0017E4F53D0547E547B43C0DE4F5470544F5
:0915EB00E544B43C03E4F544229C
:10127D007B007A007922300715751302AF40120EEC
:10128D005D7B007A007925751302AF4680137513C7
:10129D0002AF44120E5D7B007A007925751302AF03
:1012AD0047120E5D1214BA7BFF7A0E79531214C0D9
:1012BD007B007A0079251214C07BFF7A0E795512C6
:1012CD0014C0300704E53A8002E53DC313FF7B00EF
:1012DD007A007922751301120E5D1214BA7BFF7A12
:0612ED000E79570214C047
:1014EC0030070AAF4CAE4BAD4AAC498008AF30AEBA
:1014FC002FAD2EAC2D7B007A007922750F0575105F
:10150C00011205AC1214BA7BFF7A1779880214C049
:0E05AC008F0B8E0A8D098C088B0C8A0D890E20
:1005BA00850F82758300E4120527751ECD751DCC43
:1005CA00751CCC751B3EE5107003020664E4FFFE41
:1005DA00FDFCAB0BAA0AA909A8081202AC7E0050BE
:1005EA00047F0180027F007C00EF2510FFEC3ECFE4
:1005FA002401CF3400FED3EF950F7480F86E984033
:10060A003AE4FFFEFDAB0BAA0AA909A8081202AC3C
:10061A0050047F0180027F008F12E4FFFEFDFCABD5
:10062A000BAA0AA909A8081202AC50047F01800289
:10063A007F00E50F14C39FF5108008C3E50F9510DE
:10064A0014F512AB0CAA0DA90EAF12EF3395E08F79
:10065A0082F583742E1205278003850F12851011E7
:10066A00AF111511EF601DAF1EAE1DAD1CAC1B7B8B
:10067A00CD7ACC79CC783D1201068F1E8E1D8D1C49
:10068A008C1B80DCE4FFFEFDFCAB0BAA0AA909A8BF
:10069A00081202ACAF0BAE0AAD09AC08AB1EAA1D1C
:1006AA00A91CA81B50291200118F0B8E0A8D098CC8
:1006BA0008120363AD07AC06C3E49DF514E49CF588
:1006CA0013EC12032AAB0BAA0AA909A808802A125A
:1006DA0000158F0B8E0A8D098C081203638E138FF7
:1006EA0014AC13AD14E412032AA804A905AA06AB94
:1006FA0007AF0BAE0AAD09AC081200118F1A8E199A
:10070A008D188C17E51204F511AD11ED3395E0FC47
:10071A00C3ED950F7480F86C985072AF1AAE19AD8C
:10072A0018AC17E4FBFA792078411201068F1A8E69
:10073A00198D188C171203637515008F16EF243064
:10074A00FFAB0CAA0DA90EE511FD3395E08D82F5DC
:10075A0083EF120527AF1AAE19AD18AC17C004C043
:10076A0005C006C007AC15AD16E412032AA804A9F1
:10077A0005AA06AB07D007D006D005D0041200118F
:10078A008F1A8E198D188C170511020713E512148A
:10079A00F511D3E511648094804040AE13AF147C08
:1007AA00007D0A120549ED2430FFAB0CAA0DA90EF3
:1007BA00E511FD3395E08D82F583EF120527AE131F
:1007CA00AF147C007D0A1205498E138F14E5144577
:1007DA0013700415118004151180B7E4FFFEFDFCA7
:1007EA00AB0BAA0AA909A8081202AC50047F2D80F3
:1007FA0021E5144513700AE512640160047F208024
:10080A0011AE13AF147C007D0A120549ED2430FFA6
:10081A00E43CAB0CAA0DA90EE511FD3395E08D82DF
:10082A00F583EF801EAF111511D3EF6480948040D9
:10083A0017AB0CAA0DA90EAF11EF3395E08F82F515
:08084A0083742012052780DDF4
:010852002283
:060E5D008B108A118912BE
:100E6300851382758300E4120527C3EF64809480A1
:100E730050028001C39208E5137003020F12300879
:100E8300181513E5137003020F1274012512F512DE
:100E9300E43511F5116307FF0FEF800EE5136028AA
:100EA300EF75F00A1204DAFF601E75F00A1204DA15
:100EB300AEF0EE2430AB10AA11A9121513851382DC
:100EC30075830012052780D430082B74FF2512F593
:100ED3001274FF3511F511E513700BAB10AA11A9AC
:100EE30012742D120515AB10AA11A9128513827560
:100EF3008300742D8014E5136015AB10AA11A91299
:0F0F03001513851382758300742012052780E76C
:010F120022BC
:0B178000015102A305460A8CDF430064
:10136600C100C105C106C183C104C101C102023861
:10137600000002280000014D00012C7F012BFF0117
:1013860032800131C9043342A1000001370004490B
:10139600C25C0000042D43000000013E00013A003B
:1013A600014600014000013F00013D0001470001E8
:1013B6004400014102013C03014801012A070622BB
:1013C60020202020200002420000013B0F0145FFA3
:10000E000203CFE86480F8E933E83360110460F04E
:10001E00ED33EC337009E8FCE9FDEAFEEBFF220458
:10002E0060DED3EB9FEA9EE99DE8C2E78CF0C2F753
:10003E0095F0400CE8CCF8E9CDF9EACEFAEBCFFB1F
:10004E0012039A85D0F05804700320D5B3E80470DB
:10005E00075002B2D50203D992D5EC0460F7E4CC76
:10006E00C0E0C398F8603B94186008400DD0E0FBE8
:10007E000203B1E4FBFAC9FC8028E830E406E4C9C7
:10008E00FBE4CAFCE830E305E4C9CACBFCE854073C
:10009E006010F8C3E913F9EA13FAEB13FBEC13FC47
:1000AE00D8F130F52FC3E49CFCEF9BFFEE9AFEEDEA
:1000BE0099FDD0E0FBEF4E4D4C701222DB03020394
:1000CE00D6EC2CFCEF33FFEE33FEED33FDED30E7D7
:1000DE00EB0203B1EF2BFFEE3AFEED39FDD0E0FB64
:1000EE0050130BBB00030203D9ED13FDEE13FEEF0D
:0800FE0013FFEC13FC0203B137
:10010600EC4D6011E8497017ED33EC3304600DE4F3
:10011600FCFFFEFD22E933E8330470F80203CF1238
:10012600039A58046009E4CC248150062850090239
:1001360003D92840030203D6C0E0EB4A7044B980D5
:1001460006D0E0FB0203C5EF4E701CBD8008EBFF36
:10015600EAFEE9FD80EBE98DF0A4FEE5F00201EF91
:10016600E9CDF9EAFEEBFFEF89F0A4FCE5F0CE89D4
:10017600F0A42EFFE435F0CD89F0A42DFEE435F091
:100186008067EF4E7005BD80D780C3EF8BF0A4ACBF
:10019600F0EE8BF0A42CFCE435F0F8EF8AF0A42CFA
:1001A600E5F038FCE433CB8DF0A42CFCE5F03BF80D
:1001B600EE8AF0A42CFCE5F038F8E433CF89F0A4FD
:1001C6002CFCE5F038CF3400CE89F0A42FFFE5F003
:1001D6003EFEE433C98DF0A42EFEE5F039CD8AF05B
:1001E600A42FFFE5F03EFEE43DFD33D0E0FB5007D3
:1001F6000BBB000F0203D9EC2CFCEF33FFEE33FEF2
:06020600ED33FD0203B11F
:10020C000203D9EC5D046005E8590470030203CFC6
:10021C0012039A580460F6EC4860F2EC7004FDFE90
:10022C00FF22C860DB2481C85009C39860025006C5
:10023C000203D69850CAF582E9294B4A7005AB8265
:10024C000203C575F0007C1A7880C3EF9BEE9AED23
:10025C0099400DC3EF9BFFEE9AFEED99FDE842F03D
:10026C00DC23ACF0D0E0FFD0E0FED0E0FDAB822090
:10027C00E7101BEB60BAEC2CFCEF33FFEE33FEED1A
:10028C0033FD0203B1E803F830E705C0F075F00068
:10029C00EF2FFFEE33FEED33FD40B830E7C280AAFE
:1002AC0074F8CC6480CCC86480C8F58204604FC3F9
:1002BC00EB9FF5F0EA9E42F0E99D42F0E89C45F098
:1002CC00603C501DE5825FFFE582D313CB5BCBF422
:1002DC002B5582FB50280ABA002409B9002008804B
:1002EC001DE5825BFBE582D313CF5FCFF4C3132FE5
:1002FC005582FF50090EBE00050DBD00010CC3EB6D
:10030C009FF5F0EA9E42F0E99D42F0E89C45F060D2
:09031C0007CC4820E701B3EC22F4
:1003250075F020800E75F010800575F0087D007E53
:10033500007F003392D530D50312059EEC33401073
:10034500EF33FFEE33FEED33FDEC33FCD5F0ED225C
:0E035500E5F0247EA2D513CC92E7CDCEFF2298
:10036300EDD2E7CD33EC3392D524814006E4FFFE92
:10037300FDFC22FCE4CFCECDCC24E0501174FF80F1
:10038300EDC3CC13CCCD13CDCE13CECF13CF04708E
:07039300F030D5DE02059EEB
:10039A00E9D2E7C933E833F892D5EDD2E7CD33ECA9
:0703AA0033FC5002B2D52222
:1003B100EC30E7100FBF000C0EBE00080DBD0004AD
:1003C1000BEB6014A2D5EB13FCED92E7FD2274FF59
:1003D100FCFDFEFF22E480F8A2D574FF13FC7D80B2
:0303E100E480EFC6
:101184000215F4E493A3F8E493A34003F68001F278
:1011940008DFF48029E493A3F85407240CC8C3336C
:1011A400C4540F4420C8834004F456800146F6DF3B
:1011B400E4800B0102040810204080901366E47E52
:1011C400019360BCA3FF543F30E509541FFEE49330
:1011D400A360010ECF54C025E060A840B8E493A3F7
:1011E400FAE493A3F8E493A3C8C582C8CAC583CA22
:1011F400F0A3C8C582C8CAC583CADFE9DEE780BEDA
:0113D6000016
:1003E400E709F608DFFA8046E709F208DFFA803EFB
:1003F40088828C83E709F0A3DFFA8032E309F608E8
:10040400DFFA8078E309F208DFFA807088828C834F
:10041400E309F0A3DFFA806489828A83E0A3F60803
:10042400DFFA805889828A83E0A3F208DFFA804CDD
:1004340080D280FA80C680D4806980F280338010B4
:1004440080A680EA809A80A880DA80E280CA80331D
:1004540089828A83ECFAE493A3C8C582C8CCC58395
:10046400CCF0A3C8C582C8CCC583CCDFE9DEE78065
:100474000D89828A83E493A3F608DFF9ECFAA9F0E4
:10048400EDFB2289828A83ECFAE0A3C8C582C8CC3A
:10049400C583CCF0A3C8C582C8CCC583CCDFEADE53
:1004A400E880DB89828A83E493A3F208DFF980CCB5
:1004B40088F0EF60010E4E60C388F0ED2402B404AE
:1004C4000050B9F582EB2402B4040050AF23234555
:0604D40082239004347342
:1004DA00C2D530F707B2D563F0FF05F030E70CB2AA
:1004EA00D5F4048463F0FF05F080018430D502F46A
:0204FA000422DA
:1004FC00BB010689828A83E0225002E722BBFE02FE
:09050C00E32289828A83E4932230
:10051500BB010689828A83F0225002F722BBFE01C5
:02052500F322BF
:10052700F8BB010DE58229F582E5833AF583E8F00A
:10053700225006E92582C8F622BBFE05E92582C8B6
:02054700F2229E
:10054900BC000BBE0029EF8DF084FFADF022E4CC96
:10055900F875F008EF2FFFEE33FEEC33FCEE9DEC5F
:10056900984005FCEE9DFE0FD5F0E9E4CEFD22EDA5
:10057900F8F5F0EE8420D21CFEADF075F008EF2FEF
:10058900FFED33FD4007985006D5F0F222C398FDE0
:050599000FD5F0EA227D
:0E059E00C3E49FFFE49EFEE49DFDE49CFC226E
:00000001FF
