:0300000002130BDD
:0C130B00787FE4F6D8FD7581E0021352F3
:10172800015102A305460A8CDF43000000F88CF83B
:10173800F3F95BF9B8FA15FA67FAB9FB04FB4BFB46
:1017480090FBCFFC10FC44FC79FCACFCDCFD09FDF3
:1017580034FD5CFD82FDA6FDC8FDE8FE06FE22FE06
:101768003DFE56FE6EFE85FE9AFEAEFEC1FED3FE1F
:05177800E4FEF4FF0394
:10139700C100C107C108C184C106C101C102C1039F
:1013A700C109C105023D00000229000001530001E7
:1013B7002E7F012CFF01367F0135C9043742A1007A
:1013C70000013B00044FC25C0000042F42FE0000F6
:1013D700014500013F00014D0001470001460001A2
:1013E7004200014E00014B00014802014103012D5B
:1013F70001013C060623202020202000024900008E
:1014070001400F014CFF012200023300200243027A
:0A141700580154FC015518012B0088
:1018090012158B12188230000F300807C208E4FF46
:10181900120C0512149C80EE300912C2097B007A61
:10182900007922755B01E4FD7FA01216763004056C
:0D183900120AA9C2041211381217C780C983
:10158B00C2AFC2A9C2ABC28CC28EC2A8C2A7C2A331
:10159B00758912E4F58CF58AD2B9D2BBC2B8D28860
:1015AB00F559755A00755B35F55C755D00755E41D7
:1015BB00FB7A00793612177D121BF07B007A0079CB
:1015CB0022757501E4FD7FA0121422E5225407F564
:1015DB003CE5221313135403F52DE522C4135403D6
:1015EB00F548E53CFEC374609400F54474089EF521
:0415FB004302184649
:10188200121B881215FF120AA97F0E121C08754935
:1018920000754A281211DF7F0C121C08E4F549F585
:1018A2004A121B88C204D2AFD2A9D2ABD28CC28E4A
:0318B200D2A82297
:101BAA00D205C2B9C28F758DFC758B18E4F52B224C
:100AA90030051AD3E5349418E5339400400AE53447
:100AB9009460E533940040051217C780E3C2AF1272
:100AC9001AABAC06AD07EC12033A8F3A8E398D3862
:100AD9008C37121B88755623D556FDD2AF30050CBD
:100AE90074E92534F53474FF3533F533AF3AAE394B
:100AF900AD38AC37E4FBFA7980783D1201168F3AAC
:100B09008E398D388C37AF52AE51AD50AC4FAB3AB0
:100B1900AA39A938A8371202BC600E400C853A528E
:100B290085395185385085374FAF32AE31AD30AC4C
:100B39002FAB3AAA39A938A8371202BC500C853A0A
:100B49003285393185383085372FAC36EC12033F81
:100B5900AB3AAA39A938A8371202BC60674065D2F6
:100B690001D206AC36EC12033FA804A905AA06ABCC
:100B790007AF3AAE39AD38AC37120021C004C00511
:100B8900C006C007AC48E412033FA804A905AA0699
:100B9900AB07D007D006D005D00412021FE4FBFA38
:100BA9007980783F1200251203738F3BE53BD3947C
:100BB900034003753B037556171219CED556FA2013
:100BC90005398023AC35EC12033FAB3AAA39A93871
:100BD900A8371202BC5013D202D2A37556151219A6
:100BE900F7D556FA200514021BAAC2A3C206E4F5DA
:0B0BF9003BC202C201D2B9C28EC2058D
:010C040022CD
:10113800E52E2441605B24E0607324F07003021103
:10114800D6247060030211DE3007051211DFC207D2
:101158007FC2121C08AF3AAE39AD38AC377B007A83
:10116800007923755D05755E011205CE7B007A0056
:1011780079231218BB7FCF121C087B007A007923D1
:10118800756001AF3B120FD87B007A0079230218F3
:10119800BB300705121A20C2077F89121C08D20A21
:1011A8001219177FC9121C08C20A0219173007053D
:1011B800121A46C2073001097F88121C08D20A8019
:1011C8000A30020A7FC8121C08C20A121515300715
:0711D800051216D1C2072227
:100D500020042B75F002E541A42428F582E5F03447
:100D600017F583052AE52A70020529FFD37401933C
:100D70009FE49395295007E4F529F52AD20430061B
:100D800059053EE53E7002053DC394A0E53D94053E
:100D90004039E53E94D8E53D94094020E53E941065
:100DA000E53D940E4007E4F53DF53E802FE53BC35D
:100DB00094034003D38001C392A78020E53BC394F2
:100DC000024003D38001C392A78011E53BC3940185
:100DD0004003D38001C392A78002C2A7300105124D
:100DE00019CE80063002031219F730055FE534157D
:100DF000347002153314646045337003C28E22E5EB
:100E00003445337047D28E7480252BF8E6B4FF0347
:100E1000E4F52B7480252BF8E675F002A42433F555
:100E200082E5F03417F583E493FC740193FDECF54F
:100E300054EDF555052B7480252BF8E6FF7E00ACAC
:0D0E400043AD441205598E338F34052B222B
:03000300020F15D4
:100F1500C0E0C0F0C083C082C0D075D000C000C0A2
:0D0F250001C002C003C004C005C006C00723
:100F3200756D1475B0FF7F03E5B04207EF64FB6087
:100F4200127F0A7E00121A967F03E5B04207EF6411
:100F5200FB70687F327E00121A96D56DD930004D33
:100F6200AB41AD35AF36121977121B4C7522FFE536
:100F72002D33333354F8FFE548C43354E04F453C36
:100F82005222300303121846D209121B8875290017
:100F9200752A00C204D28CE53CFEC374609400F54D
:100FA2004474089EF543752CFFD207800CC2A3C27D
:0B0FB200A7C28CC28EC205D208B2009C
:100FBD00D007D006D005D004D003D002D001D00088
:0B0FCD00D0D0D082D083D0F0D0E03232
:03000B00021AE6F0
:101AE600C0E0C0F0C083C082C0D075D008120D50CF
:0B1AF600D0D0D082D083D0F0D0E032FE
:03001B000218E7E1
:1018E700C0E0C0F0C083C082C0D075D010E554708E
:1018F70004E555600885548D85558BB294308D0568
:10190700C28D120D50D0D0D082D083D0F0D0E0322B
:100E4D0057656C636F6D6520746F20414155435339
:100E5D00002020202020204E4F2E31332020202016
:100E6D002000483A0020204C3A00543A00202046F9
:100E7D00414E3A00486967686573743A20004C6FBB
:100E8D00776573743A20200041626F766520483A89
:100E9D000042656C6F77204C3A0054523A20002086
:100EAD0020204647533A200072696E67526174657F
:100EBD003A0048204C696D69743A20004C204C6909
:100ECD006D69743A2000545265736F6C7574696F57
:100EDD006E3A200046476561722720537465703A5B
:100EED00200072696E67746F6E653A20200072691A
:100EFD006E6720526174653A2000202020006D003D
:080F0D002E0073007E7F2020FE
:091A8D00E54A25E0FFE54933FEBE
:101A9600EF1FAA0670011E4A600A7D7BAC051DEC8D
:041AA60060EE80F876
:011AAA002219
:0618B5007B007A0079239C
:1018BB008B5C8A5D895EAB5CAA5DA95E12050C60D0
:1018CB001A055EE55E7002055D14F912050CFF1238
:0C18DB001C1BAF4AAE49121A9680DB229B
:1015FF007F38121C087F0C121C087F06121C087FF4
:10160F0001121C087F90121C087BFF7A0E794D1275
:10161F0018BB754900754AC87FD0121C087F071286
:10162F001C087BFF7A0E795E1218BB7F06121C080E
:10163F007556037F08121C08121A8D7F0C121C0896
:10164F00121A8DD556ED7556107F18121C08AF4A19
:10165F00AE49121A96D556F17F01121C08E4F549CE
:02166F00F54A3A
:011671002256
:1011DF007F01121C087BFF7A0E796F1218BB7B0000
:1011EF007A007923756003AF36120FD81218B57BCA
:1011FF00FF7A1779301218BB7BFF7A0E79721218AB
:10120F00BB7B007A007923756003AF35120FD812BC
:10121F0018B57BFF7A1779301218BB7FC0121C08E4
:10122F007BFF7A0E79771218BBAF3AAE39AD38AC77
:10123F00377B007A007923755D05755E011205CE47
:10124F001218B57BFF7A1779301218BB7BFF7A0E15
:10125F00797A1218BB7B007A007923756001AF3B56
:0C126F00120FD87B007A0079230218BB14
:101A20007F01121C087BFF7A0E79811218BBD20A43
:101A30001219177FC0121C087BFF7A0E798B1218BF
:061A4000BBC20A021917E7
:101A46007F01121C087BFF7A0E79951218BBD20A09
:101A56001215157FC0121C087BFF7A0E799E12188C
:061A6600BBC20A021515C7
:1016D1007F01121C087F01121C087BFF7A0E79A77B
:1016E1001218BBE5412430FF121C1B7BFF7A0E79D7
:1016F100AC1218BBE5482430FF121C1B7BFF7A1784
:1017010079301218BB7FC0121C087BFF7A0E79B5A5
:101711001218BBE4F556E556C3953C50097FFF12FC
:061721001C1B055680F0C0
:01172700229F
:020C05008F5707
:100C070078587C007D007BFF7A0F79117E007F0486
:100C17001204C4E557652C7003020D4FE52CC3136E
:100C2700FFE557C3136F7003020CF17F01121C0815
:100C3700E557C31314605F147003020CC5240260E8
:100C470003020CF17F81121C087BFF7A0E79BF1219
:100C570018BB7B007A007923756003AF36120FD873
:100C67001218B57BFF7A1779301218BB7FC1121C97
:100C7700087BFF7A0E79C91218BB7B007A007923AB
:100C8700756003AF35120FD81218B57BFF7A177945
:100C9700301218BB80547F81121C087BFF7A0E79B3
:100CA700D31218BBE5412430FF121C1B7FC1121C55
:100CB700087BFF7A0E79E11218BBE54880267F8210
:100CC700121C087BFF7A0E79EF1218BBE52D243032
:100CD700FF121C1B7FC2121C087BFF7A0E79FB12C6
:100CE70018BBE53C2430FF121C1BE55713920A7F03
:100CF70080121C08A20AE43325E0FF74582FF8E697
:100D0700FF121C1B7F8F121C08A20AE43325E0FF89
:100D170074592FF8E6FF121C1BB20A7FC0121C0879
:100D2700A20AE43325E0FF74582FF8E6FF121C1BD4
:100D37007FCF121C08A20AE43325E0FF74592FF86D
:080D4700E6FF121C1B85572C6E
:010D4F002281
:10087500755918C20AE52C14601F1470030209A9E2
:100885001470030209A1147003020999147003027C
:10089500099624056003020AA8E52C6004AF35809B
:1008A50002AF368F57D55905755918B20AE52C6030
:1008B500047FC080027F80EF440AFF121C08300AC3
:1008C500087BFF7A0F790780147B007A00792375FE
:1008D5006003AF57120FD87B007A0079231218BB3B
:1008E50012127BEF14700302097024036013146065
:1008F5004024FD70B0E52C6005855735800385578C
:1009050036E52C60047FC080027F80EF440AFF1229
:100915001C08E52C6004AF358002AF367B007A00F9
:100925007923756003120FD87B007A0079230218AA
:10093500BBD3E5576480944950030208AAAF35EF4D
:100945003395E0FEEF2401FFE43EFEAD57ED339510
:10095500E0FCD3ED9FEE6480F8EC6480985007E5E9
:100965002C70030208AA15570208AAC3E55764802C
:1009750094FF40030208AAE53614C36480F8E557DE
:100985006480984007E52C60030208AA0557020811
:10099500AA853C57E52CB40403852D57E52CB403F3
:1009A50003854857E52CB40203854157E52C6405BA
:1009B5006005E52CB404047F0E80027F0FE52C3022
:1009C500E0047EC080027E80EE4FFF121C08D559E0
:1009D50005755918B20A300A057558208006E5577D
:1009E5002430F5587F10121C08AF58121C1B121228
:1009F5007BEF1460762403603514605E24FD70CEB1
:100A0500E52CB4050585573C8024E52CB4040DE59B
:100A150057652D6007D20385572D8012E52CB40349
:100A2500058557488008E52CB40203855741E52C18
:100A3500B40504AF3C8014E52CB40404AF2D800B41
:100A4500E52CB40304AF488002AF418F587F1012E4
:100A55001C08E5582430FF021C1BD3E5576480941D
:100A65008050030209D315570209D3E52C640360AE
:100A750005E52CB405067E007F0480047E007F001A
:100A8500EF2403FFE43EFEAD57ED3395E0FCC3EDE7
:100A95009FEE6480F8EC64809840030209D3055703
:030AA5000209D370
:010AA800222B
:101B1B00AB407F0A7E00121A9675400FE5B042402B
:081B2B00E5406B6002D322C308
:011B3300228F
:1017C70075B0FF75400FE5B04240E5402441601019
:1017D70024E0600C24F0600824F060132480701E5D
:1017E700E52E6540601B121B1B401685404C22E509
:1017F7004CF4600D121B1B4008D207854C2E754C0C
:02180700FF22BE
:10149C0075B0FF75400FE5B04240E5402441601047
:1014AC0024E0600C24F0600824F0600D248070555A
:1014BC00121B1B405385404C22E54CF4604A121B16
:1014CC001B4045E54C2441601A24E0602024F06068
:1014DC002C2470702BC2AF754CFF120875754CFF25
:1014EC00D2AF22E52C04F556B406158010E52C700D
:1014FC0005755605800AE52C14F5568003E4F5565F
:08150C00AF56120C05754CFFEF
:0115140022B4
:10127B0075B0FF75400FE5B04240121B1B50037F4A
:10128B000022E5402481604F24A0600C24F06047CD
:10129B0024F0604824407062E54C65407036E5539D
:1012AB00700D0553E540B4BF037F01227FFF22057C
:1012BB0053E553C394604011E553540F700BE54055
:1012CB00B4BF037F01227FFF22E553B4FF037553A5
:1012DB005F7F0022E4F55385404C8021E54CB4FF41
:1012EB00037F0022E54C2411600A2470700C754CAE
:1012FB00FF7FFE22754CFF7F0222754CFF7F002281
:1019CE000545E545B4B421E4F545053FE53FB414BE
:1019DE0017E4F53F054DE54DB43C0DE4F54D0547D7
:0919EE00E547B43C03E4F547228F
:1019F7000546E546B4B421E4F5460542E542B4148C
:101A070017E4F542054EE54EB43C0DE4F54E054BA3
:091A1700E54BB43C03E4F54B225D
:101515007B007A007923300A15756002AF47120FF8
:10152500D87B007A007926756002AF4D801375600F
:1015350002AF4B120FD87B007A007926756002AF97
:101545004E120FD81218B57BFF7A0F790B1218BB04
:101555007B007A0079261218BB7BFF7A0F790D1272
:1015650018BB300A04E53F8002E542C313FF7B0048
:101575007A007923756001120FD81218B57BFF7AAE
:061585000F790F0218BBF4
:10191700300A0AAF52AE51AD50AC4F8008AF32AE6D
:1019270031AD30AC2F7B007A007923755D05755E8C
:10193700011205CE1218B57BFF7A1779300218BB52
:10184600E52D2403FD7B007A00796E7575017FA076
:10185600121422E52D2404FD7B007A00796F75753C
:10186600017FA0121422C3E56F956EF56F7B007A97
:0C187600007980F575AD6E7FA002142291
:0E05CE008F598E588D578C568B5A8A5B895CDC
:1005DC00855D82758300E4120537756CCD756BCC27
:1005EC00756ACC75693EE55E7003020686E4FFFE13
:1005FC00FDFCAB59AA58A957A8561202BC7E005054
:10060C00047F0180027F007C00EF255EFFEC3ECF73
:10061C002401CF3400FED3EF955D7480F86E9840C2
:10062C003AE4FFFEFDAB59AA58A957A8561202BCD2
:10063C0050047F0180027F008F60E4FFFEFDFCAB65
:10064C0059AA58A957A8561202BC50047F0180021F
:10065C007F00E55D14C39FF55E8008C3E55D955E84
:10066C0014F560AB5AAA5BA95CAF60EF3395E08FD1
:10067C0082F583742E1205378003855D60855E5F7D
:10068C00AF5F155FEF601DAF6CAE6BAD6AAC697B95
:10069C00CD7ACC79CC783D1201168F6C8E6B8D6A2D
:1006AC008C6980DCE4FFFEFDFCAB59AA58A957A865
:1006BC00561202BCAF59AE58AD57AC56AB6CAA6BC8
:1006CC00A96AA86950291200218F598E588D578C10
:1006DC0056120373AD07AC06C3E49DF562E49CF5BA
:1006EC0061EC12033AAB59AA58A957A856802A12A2
:1006FC0000258F598E588D578C561203738E618F2F
:10070C0062AC61AD62E412033AA804A905AA06AB77
:10071C0007AF59AE58AD57AC561200218F688E6793
:10072C008D668C65E56004F55FAD5FED3395E0FC9F
:10073C00C3ED955D7480F86C985072AF68AE67AD80
:10074C0066AC65E4FBFA792078411201168F688E4D
:10075C00678D668C651203737563008F64EF2430AC
:10076C00FFAB5AAA5BA95CE55FFD3395E08D82F582
:10077C0083EF120537AF68AE67AD66AC65C004C0D9
:10078C0005C006C007AC63AD64E412033AA804A923
:10079C0005AA06AB07D007D006D005D0041200215D
:1007AC008F688E678D668C65055F020735E5601472
:1007BC00F55FD3E55F648094804040AE61AF627CAE
:1007CC00007D0A12056BED2430FFAB5AAA5BA95CC5
:1007DC00E55FFD3395E08D82F583EF120537AE6151
:1007EC00AF627C007D0A12056B8E618F62E56245FB
:1007FC00617004155F8004155F80B7E4FFFEFDFC9B
:10080C00AB59AA58A957A8561202BC50047F2D8088
:10081C0021E5624561700AE560640160047F208017
:10082C0011AE61AF627C007D0A12056BED2430FFC6
:10083C00E43CAB5AAA5BA95CE55FFD3395E08D8285
:10084C00F583EF801EAF5F155FD3EF64809480401B
:10085C0017AB5AAA5BA95CAF5FEF3395E08F82F5BB
:08086C0083742012053780DDC2
:010874002261
:060FD8008B5D8A5E895F5B
:100FDE00856082758300E4120537C3EF64809480C8
:100FEE0050028001C3920BE560700302108D300B2E
:100FFE00181560E560700302108D7401255FF55FB2
:10100E00E4355EF55E6307FF0FEF800EE560602846
:10101E00EF75F00A1204EAFF601E75F00A1204EA78
:10102E00AEF0EE2430AB5DAA5EA95F1560856082DE
:10103E0075830012053780D4300B2B74FF255FF5B6
:10104E005F74FF355EF55EE560700BAB5DAA5EA961
:10105E005F742D120525AB5DAA5EA95F8560827552
:10106E008300742D8014E5606015AB5DAA5EA95FE8
:0F107E001560856082758300742012053780E746
:01108D002240
:101B62007580FFC292C290D291D292AF80EF20E7ED
:031B7200F2C2922A
:011B7500224D
:0B1C0800EF6007C20BF55F121B762295
:071C1B00D20B8F5F021B7664
:101B7600121B62C291A20B9290855F80D29200C224
:021B86009222A9
:0C000E00001FEF6007007E03DEFEDFF93C
:01001A0022C3
:101A6C00E4FDD295C2957F3C12000ED2957F0C12EC
:101A7C00000EA295E433FDD2957F1812000EAF052F
:011A8C002237
:0A19A3007FCC121AC97FBE121AC9C8
:1019AD007D08E4FCC2957F0112000ED295ECC313A5
:1019BD00FC3095034304807F0512000EDDE6AF0475
:0119CD0022F7
:021AC900AD0767
:101ACB007B08C2957F0112000EED1392957F0512D4
:0A1ADB00000ED295EDC313FDDBE809
:011AE50022DE
:101B8800121A6CEF700A7FCC121AC97F44121AC954
:011B9800222A
:101AAB00E4F9FCFBFA121A6CEF6004E4FEFF22125D
:0D1ABB0019A3A9071219ADEFFAE9AE02FF59
:011AC80022FB
:10197700AC07AA03A905121A6CEF701F7FCC121AC5
:10198700C97F4E121AC9AF04121AC9AF01121AC978
:0C199700EAC43354E0441FFF121AC922B6
:10177D008B568A578958121A6CEF703D1219A312A5
:10178D0019AD1219ADAB56AA57A958EF120525126E
:10179D0019ADAB59AA5AA95BEF1205251219ADABBC
:1017AD005CAA5DA95EEF120525AB5CAA5DA95E1270
:0A17BD00050CC41354071205252281
:101B4C00121A6CEF700F7FCC121AC97F48121AC987
:061B5C007F0C12000E22B6
:071C1300D297121C1AD296B1
:011C1A0022A7
:0C1BD600121C13A297920DC296A20DB330
:011BE20022E0
:101B9900D296D29700121C1AC29700121C1AC2962A
:011BA9002219
:0E1BBA00C297D29600121C1AD29700021C1A73
:0C1BF000D29600D29700121C1A021BBAF9
:0E1BC800C297121C15C296121C1AD297002248
:0C1BFC00121C13C296121C1AC297002281
:101B3400C2967E08EF339297D296121C1AC296EF81
:071B440025E0FFDEEFD29760
:011B4B002277
:101B0100D2977E08EF25E0FFC296121C15A297E43A
:0A1B1100334207DEEFC296021C1AF1
:0A1422008F708D718B728A738974CC
:10142C00E5757002D322121B99AF70121B34121B7C
:10143C00D6920C5055AF71121B34121BD6920C5015
:10144C0049121B99E57004FF121B34121BD6920C27
:10145C005038E57514F576E576601F121B01AB72FA
:10146C00AA73A974EF120525121BC874012574F513
:10147C0074E43573F573157680DD121B01AB72AA1B
:0F148C0073A974EF120525121BFC121BBAA20CD8
:01149B00222E
:04167200AD78AF7729
:0A1676008F568D578B588A59895AF8
:10168000E55B7002D322121B99AF56121B34121B5A
:10169000D6920A5036AF57121B34121BD6920A50FC
:1016A0002A855B5CE55C6023AB58AA59A95A1205F0
:1016B0000CFF121B34121BD6920A500F7401255ACC
:1016C000F55AE43559F559155C80D9121BBAA20AAE
:0116D00022F7
:0C1BE3007FA4AE071FEE70FA7F02DFFE49
:011BEF0022D3
:0D194700257BF57BE4357AF57A057DAF77D9
:021954008F18EA
:10195600751910121BE3121B99AF18121B34121BB8
:10196600D64003D519ED121BBAE5196002D322C37E
:01197600224E
:0A108E008F778D788B798A7A897B41
:10109800E57C7002D322E578C4540FF57DE57C2405
:1010A800FFFFE434FFFE7C00EF2578FFEC3EFEEF07
:1010B8007804CEA2E713CE13D8F8F57E657D6024B8
:1010C800E578540FFFC374109FF57FAB79AA7AA90E
:1010D8007BF55B121672E57F2578F578E57F1219A6
:1010E80047400122E57D657E6021E57DC3940F5070
:1010F8001AAB79AA7AA97B755B101216727410253F
:1011080078F578741012194740DA22AB79AA7AA9CF
:101118007BE57DB57E0AC3E57C957F540FFF800291
:0F1128007F0F8F5B1216725005AF77021954C3F9
:011137002295
:10001E000203DFE86480F8E933E83360110460F02E
:10002E00ED33EC337009E8FCE9FDEAFEEBFF220448
:10003E0060DED3EB9FEA9EE99DE8C2E78CF0C2F743
:10004E0095F0400CE8CCF8E9CDF9EACEFAEBCFFB0F
:10005E001203AA85D0F05804700320D5B3E80470BB
:10006E00075002B2D50203E992D5EC0460F7E4CC56
:10007E00C0E0C398F8603B94186008400DD0E0FBD8
:10008E000203C1E4FBFAC9FC8028E830E406E4C9A7
:10009E00FBE4CAFCE830E305E4C9CACBFCE854072C
:1000AE006010F8C3E913F9EA13FAEB13FBEC13FC37
:1000BE00D8F130F52FC3E49CFCEF9BFFEE9AFEEDDA
:1000CE0099FDD0E0FBEF4E4D4C701222DB03020384
:1000DE00E6EC2CFCEF33FFEE33FEED33FDED30E7B7
:1000EE00EB0203C1EF2BFFEE3AFEED39FDD0E0FB44
:1000FE0050130BBB00030203E9ED13FDEE13FEEFED
:08010E0013FFEC13FC0203C116
:10011600EC4D6011E8497017ED33EC3304600DE4E3
:10012600FCFFFEFD22E933E8330470F80203DF1218
:1001360003AA58046009E4CC248150062850090219
:1001460003E92840030203E6C0E0EB4A7044B980A5
:1001560006D0E0FB0203D5EF4E701CBD8008EBFF16
:10016600EAFEE9FD80EBE98DF0A4FEE5F00201FF71
:10017600E9CDF9EAFEEBFFEF89F0A4FCE5F0CE89C4
:10018600F0A42EFFE435F0CD89F0A42DFEE435F081
:100196008067EF4E7005BD80D780C3EF8BF0A4ACAF
:1001A600F0EE8BF0A42CFCE435F0F8EF8AF0A42CEA
:1001B600E5F038FCE433CB8DF0A42CFCE5F03BF8FD
:1001C600EE8AF0A42CFCE5F038F8E433CF89F0A4ED
:1001D6002CFCE5F038CF3400CE89F0A42FFFE5F0F3
:1001E6003EFEE433C98DF0A42EFEE5F039CD8AF04B
:1001F600A42FFFE5F03EFEE43DFD33D0E0FB5007C3
:100206000BBB000F0203E9EC2CFCEF33FFEE33FED1
:06021600ED33FD0203C1FF
:10021C000203E9EC5D046005E8590470030203DF96
:10022C001203AA580460F6EC4860F2EC7004FDFE70
:10023C00FF22C860DB2481C85009C39860025006B5
:10024C000203E69850CAF582E9294B4A7005AB8245
:10025C000203D575F0007C1A7880C3EF9BEE9AED03
:10026C0099400DC3EF9BFFEE9AFEED99FDE842F02D
:10027C00DC23ACF0D0E0FFD0E0FED0E0FDAB822080
:10028C00E7101BEB60BAEC2CFCEF33FFEE33FEED0A
:10029C0033FD0203C1E803F830E705C0F075F00048
:1002AC00EF2FFFEE33FEED33FD40B830E7C280AAEE
:1002BC0074F8CC6480CCC86480C8F58204604FC3E9
:1002CC00EB9FF5F0EA9E42F0E99D42F0E89C45F088
:1002DC00603C501DE5825FFFE582D313CB5BCBF412
:1002EC002B5582FB50280ABA002409B9002008803B
:1002FC001DE5825BFBE582D313CF5FCFF4C3132FD5
:10030C005582FF50090EBE00050DBD00010CC3EB5C
:10031C009FF5F0EA9E42F0E99D42F0E89C45F060C2
:09032C0007CC4820E701B3EC22E4
:1003350075F020800E75F010800575F0087D007E43
:10034500007F003392D530D5031205C0EC33401041
:10035500EF33FFEE33FEED33FDEC33FCD5F0ED224C
:0E036500E5F0247EA2D513CC92E7CDCEFF2288
:10037300EDD2E7CD33EC3392D524814006E4FFFE82
:10038300FDFC22FCE4CFCECDCC24E0501174FF80E1
:10039300EDC3CC13CCCD13CDCE13CECF13CF04707E
:0703A300F030D5DE0205C0B9
:1003AA00E9D2E7C933E833F892D5EDD2E7CD33EC99
:0703BA0033FC5002B2D52212
:1003C100EC30E7100FBF000C0EBE00080DBD00049D
:1003D1000BEB6014A2D5EB13FCED92E7FD2274FF49
:1003E100FCFDFEFF22E480F8A2D574FF13FC7D80A2
:0303F100E480EFB6
:10131700021809E493A3F8E493A34003F68001F2CB
:1013270008DFF48029E493A3F85407240CC8C333D7
:10133700C4540F4420C8834004F456800146F6DFA6
:10134700E4800B0102040810204080901397E47E8C
:10135700019360BCA3FF543F30E509541FFEE4939B
:10136700A360010ECF54C025E060A840B8E493A362
:10137700FAE493A3F8E493A3C8C582C8CAC583CA8D
:10138700F0A3C8C582C8CAC583CADFE9DEE780BE45
:0114210000CA
:1003F400E709F608DFFA8046E709F208DFFA803EEB
:1004040088828C83E709F0A3DFFA8032E309F608D7
:10041400DFFA8078E309F208DFFA807088828C833F
:10042400E309F0A3DFFA806489828A83E0A3F608F3
:10043400DFFA805889828A83E0A3F208DFFA804CCD
:1004440080D280FA80C680D4806980F280338010A4
:1004540080A680EA809A80A880DA80E280CA80330D
:1004640089828A83ECFAE493A3C8C582C8CCC58385
:10047400CCF0A3C8C582C8CCC583CCDFE9DEE78055
:100484000D89828A83E493A3F608DFF9ECFAA9F0D4
:10049400EDFB2289828A83ECFAE0A3C8C582C8CC2A
:1004A400C583CCF0A3C8C582C8CCC583CCDFEADE43
:1004B400E880DB89828A83E493A3F208DFF980CCA5
:1004C40088F0EF60010E4E60C388F0ED2402B4049E
:1004D4000050B9F582EB2402B4040050AF23234545
:0604E40082239004447322
:1004EA00C2D530F707B2D563F0FF05F030E70CB29A
:1004FA00D5F4048463F0FF05F080018430D502F45A
:02050A000422C9
:10050C00BB010689828A83E0225002E722BBFE02ED
:09051C00E32289828A83E4932220
:10052500BB010689828A83F0225002F722BBFE01B5
:02053500F322AF
:10053700F8BB010DE58229F582E5833AF583E8F0FA
:10054700225006E92582C8F622BBFE05E92582C8A6
:02055700F2228E
:10055900EF8DF0A4A8F0CF8CF0A428CE8DF0A42EB6
:02056900FE2270
:10056B00BC000BBE0029EF8DF084FFADF022E4CC74
:10057B00F875F008EF2FFFEE33FEEC33FCEE9DEC3D
:10058B00984005FCEE9DFE0FD5F0E9E4CEFD22ED83
:10059B00F8F5F0EE8420D21CFEADF075F008EF2FCD
:1005AB00FFED33FD4007985006D5F0F222C398FDBE
:0505BB000FD5F0EA225B
:0E05C000C3E49FFFE49EFEE49DFDE49CFC224C
:00000001FF
