:030000000208F4FF
:0C08F400787FE4F6D8FD75814202093BD4
:100A9E0057656C636F6D6520746F204141554353EC
:100AAE00004E4F2E303100483A002020004C3A00C4
:0B0ABE00543A0046414E3A002043002D
:100B7B00020A3000041620202000040C2020200044
:0C0B8B000610202020202000020800009E
:03000B00020C776D
:0D0C7700C0E00509E50970020508D0E03273
:1009D1007522031522E522600B752104E52160F3E0
:1009E100152180F8120C67758902E4F58CF58AD21D
:1009F100AFD2A9D28C1207877F017E00120B3BE494
:0E0A0100FFFE1209807F017E00120B3B80F188
:1007870078237C007D007BFF7A0A79C67E007F0391
:100797001204147523DF120C2E7F90120C847BFF3A
:1007A7007A0A799EE4FDFC120A427F16E4D39F5031
:1007B7000BEF94275006EF44C0FF80027F00120C16
:1007C700847F07120C847BFF7A0A79AF7D647C00F3
:1007D700120A427F06120C847D647C007F0B120B89
:1007E700D27DF47C017F03120A0F7D647C007F10A9
:1007F700120BD27F01120C847F647E00120B3B75B3
:100807002B00752C00752D277B007A007926120A9C
:10081700727F0E120C847BFF7A0A79B57D647C00A7
:10082700120A42AC26E412028F7B007A00790C751B
:100837003303E4F5341204EA7B007A00790C7D6413
:100847007C00120A427B007A0079237D647C0012C7
:100857000A427BFF7A0A79B87D647C00120A427BE0
:10086700FF7A0A79BB7D647C00120A42AC27E41246
:10087700028F7B007A007916753303E4F53412048E
:10088700EA7B007A0079167D647C00120A427B00BD
:100897007A0079237D647C00120A427FC0120C849F
:1008A7007BFF7A0A79BE7D647C00120A427F647EF0
:1008B700001209807B007A0079237D647C00120A8C
:1008C700427BFF7A0A79B87D647C00120A427BFF7B
:1008D7007A0A79C17D647C00120A427B007A00792A
:0D08E7000A7D647C00120A427F0C020C8422
:040980008E288F2905
:10098400C3E509948CE508940A40F57FC2120C84EF
:10099400120B198E2A8F2B120C67E4F508F509AC9B
:1009A4002AAD2BEC12028AE4FBFA7980783D12011D
:1009B400067B007A0079107533057534011204EA58
:0D09C4007B007A007910AD29AC28020A42B0
:100B3B00E4FDFCC3ED9FEC9E5015E4FBFA0BBB00F0
:0F0B4B00010AEB64724A70F50DBD00010C80E4E5
:010B5A002278
:070C42007FC8120C497FC8B6
:0B0C49001FEF6007007E03DEFEDFF9F6
:010C5400227D
:100B5B00C200D295C2957F3C120C49D2957F0C12E4
:0F0B6B000C49A2959200D2957F18120C49A20056
:010B7A002258
:020B9800AD07A7
:100B9A007B08C2957F01120C49ED1392957F0612CC
:0A0BAA000C49D295EDC313FDDBE802
:010BB400221E
:0A0AC9007FCC120B987FBE120B9831
:100AD3007D08E4FCC2957F01120C49D295ECC31347
:100AE300FC3095034304807F04120C49DDE6AF0418
:010AF30022E0
:100C6700120B5B400A7FCC120B987F44120B982221
:100B1900E4FBFDF582F583120B5B5004E4FEFF2232
:100B2900120AC9AB07120AD3EFF583EBF582AE833C
:010B3900FFBC
:010B3A002298
:100AF400AC07AA03A905120B5B40197FCC120B9813
:100B04007F4E120B98AF01120B98AF04120B98AFE3
:050B140002120B982203
:100A72008B288A29892A120B5B4020120AC9120A82
:100A8200D3120AD3AB2BAA2CA92DEF120453120AAC
:0C0A9200D3AB28AA29A92AEF1204532292
:100BB500120B5B40177FCC120B987F48120B98D213
:0D0BC50095120C42120C427FC8120C4922FE
:100BEE00120B5B40107FCC120B987FB8120B981231
:050BFE000AD3EF60FDC9
:010C030022CE
:100C0400120B5B40107FEC120B987FEC120B9812C6
:050C14000AD3EF60FDB2
:010C190022B8
:100C1A007580FFC292C290D291D292AF80EF20E744
:030C2A00F2C29281
:010C2D0022A4
:0B0C8400EF6007C200F531120C552292
:07000300D2008F31020C5501
:100C5500120C1AC291A2009290853180D29200C2E4
:020C65009222D9
:100C2E007F38120C847F0C120C847F06120C847F8A
:040C3E0001020C841F
:100A42008B2C8A2D892E8C2F8D30AB2CAA2DA92E82
:100A520012043A601A052EE52E7002052D14F912C1
:100A6200043AFF120003AF30AE2F120B3B80DB22A1
:100A0F008F288C298D2AE529C313F529E52A13F59B
:100A1F002AAF281528EF601A7F08120C84AF2AAE70
:100A2F0029120B3B7F0C120C84AF2AAE29120B3B01
:030A3F0080DF2233
:100BD2008F288C298D2AAF281528EF600E7F1812D6
:0C0BE2000C84AF2AAE29120B3B80EB22E2
:0E04EA008F2F8E2E8D2D8C2C8B308A318932E7
:1004F8007542CD7541CC7540CC753F3EE5347003EF
:10050800020598E4FFFEFDFCAB2FAA2EA92DA82C0E
:1005180012020C7E0050047F0180027F007C00EFF5
:100528002534FFEC3ECF2401CF3400FED3EF9533C2
:100538007480F86E98403AE4FFFEFDAB2FAA2EA90E
:100548002DA82C12020C50047F0180027F008F36E8
:10055800E4FFFEFDFCAB2FAA2EA92DA82C12020C3D
:1005680050047F0180027F00E53314C39FF5348077
:1005780008C3E533953414F536AB30AA31A932AF48
:1005880036EF3395E08F82F583742E12046580036D
:10059800853336853435AF351535EF601DAF42AE3E
:1005A80041AD40AC3F7BCD7ACC79CC783D12010689
:1005B8008F428E418D408C3F80DCE4FFFEFDFCAB1A
:1005C8002FAA2EA92DA82C12020CAF2FAE2EAD2DBE
:1005D800AC2CAB42AA41A940A83F50291200118F68
:1005E8002F8E2E8D2D8C2C1202C3AD07AC06C3E4C2
:1005F8009DF538E49CF537EC12028AAB2FAA2EA998
:100608002DA82C802A1200158F2F8E2E8D2D8C2C24
:100618001202C38E378F38AC37AD38E412028AA87D
:1006280004A905AA06AB07AF2FAE2EAD2DAC2C1230
:1006380000118F3E8E3D8D3C8C3BE53604F535AD83
:1006480035ED3395E0FCC3ED95337480F86C985024
:1006580072AF3EAE3DAD3CAC3BE4FBFA792078414D
:100668001201068F3E8E3D8D3C8C3B1202C37539BC
:10067800008F3AEF2430FFAB30AA31A932E535FDBF
:100688003395E08D82F583EF120465AF3EAE3DAD44
:100698003CAC3BC004C005C006C007AC39AD3AE469
:1006A80012028AA804A905AA06AB07D007D006D06B
:1006B80005D0041200118F3E8E3D8D3C8C3B0535D4
:1006C800020647E53614F535D3E535648094804055
:1006D80040AE37AF387C007D0A120487ED2430FF26
:1006E800AB30AA31A932E535FD3395E08D82F5832B
:1006F800EF120465AE37AF387C007D0A1204878E8E
:10070800378F38E53845377004153580041535803E
:10071800B7E4FFFEFDFCAB2FAA2EA92DA82C1202D0
:100728000C50047F2D8021E5384537700AE5366482
:100738000160047F208011AE37AF387C007D0A123B
:100748000487ED2430FFE43CAB30AA31A932E5350B
:10075800FD3395E08D82F583EF801EAF351535D3D7
:10076800EF648094804017AB30AA31A932AF35EFDF
:0E0778003395E08F82F583742012046580DDD6
:010786002250
:10000E0002032FE86480F8E933E83360110460F0EE
:10001E00ED33EC337009E8FCE9FDEAFEEBFF220458
:10002E0060DED3EB9FEA9EE99DE8C2E78CF0C2F753
:10003E0095F0400CE8CCF8E9CDF9EACEFAEBCFFB1F
:10004E001202FA85D0F05804700320D5B3E804707C
:10005E00075002B2D502033992D5EC0460F7E4CC16
:10006E00C0E0C398F8603B94186008400DD0E0FBE8
:10007E00020311E4FBFAC9FC8028E830E406E4C967
:10008E00FBE4CAFCE830E305E4C9CACBFCE854073C
:10009E006010F8C3E913F9EA13FAEB13FBEC13FC47
:1000AE00D8F130F52FC3E49CFCEF9BFFEE9AFEEDEA
:1000BE0099FDD0E0FBEF4E4D4C701222DB03020394
:1000CE0036EC2CFCEF33FFEE33FEED33FDED30E777
:1000DE00EB020311EF2BFFEE3AFEED39FDD0E0FB04
:1000EE0050130BBB0003020339ED13FDEE13FEEFAD
:0800FE0013FFEC13FC020311D7
:10010600EC4D6011E8497017ED33EC3304600DE4F3
:10011600FCFFFEFD22E933E8330470F802032F12D8
:1001260002FA58046009E4CC2481500628500902DA
:100136000339284003020336C0E0EB4A7044B98015
:1001460006D0E0FB020325EF4E701CBD8008EBFFD6
:10015600EAFEE9FD80EBE98DF0A4FEE5F00201EF91
:10016600E9CDF9EAFEEBFFEF89F0A4FCE5F0CE89D4
:10017600F0A42EFFE435F0CD89F0A42DFEE435F091
:100186008067EF4E7005BD80D780C3EF8BF0A4ACBF
:10019600F0EE8BF0A42CFCE435F0F8EF8AF0A42CFA
:1001A600E5F038FCE433CB8DF0A42CFCE5F03BF80D
:1001B600EE8AF0A42CFCE5F038F8E433CF89F0A4FD
:1001C6002CFCE5F038CF3400CE89F0A42FFFE5F003
:1001D6003EFEE433C98DF0A42EFEE5F039CD8AF05B
:1001E600A42FFFE5F03EFEE43DFD33D0E0FB5007D3
:1001F6000BBB000F020339EC2CFCEF33FFEE33FE92
:06020600ED33FD020311BF
:10020C0074F8CC6480CCC86480C8F58204604FC399
:10021C00EB9FF5F0EA9E42F0E99D42F0E89C45F038
:10022C00603C501DE5825FFFE582D313CB5BCBF4C2
:10023C002B5582FB50280ABA002409B900200880EB
:10024C001DE5825BFBE582D313CF5FCFF4C3132F85
:10025C005582FF50090EBE00050DBD00010CC3EB0D
:10026C009FF5F0EA9E42F0E99D42F0E89C45F06073
:09027C0007CC4820E701B3EC2295
:1002850075F020800E75F010800575F0087D007EF4
:10029500007F003392D530D5031204DCEC334010D7
:1002A500EF33FFEE33FEED33FDEC33FCD5F0ED22FD
:0E02B500E5F0247EA2D513CC92E7CDCEFF2239
:1002C300EDD2E7CD33EC3392D524814006E4FFFE33
:1002D300FDFC22FCE4CFCECDCC24E0501174FF8092
:1002E300EDC3CC13CCCD13CDCE13CECF13CF04702F
:0702F300F030D5DE0204DC4F
:1002FA00E9D2E7C933E833F892D5EDD2E7CD33EC4A
:07030A0033FC5002B2D522C2
:10031100EC30E7100FBF000C0EBE00080DBD00044D
:100321000BEB6014A2D5EB13FCED92E7FD2274FFF9
:10033100FCFDFEFF22E480F8A2D574FF13FC7D8052
:03034100E480EF66
:100900000209D1E493A3F8E493A34003F68001F233
:1009100008DFF48029E493A3F85407240CC8C333F8
:10092000C4540F4420C8834004F456800146F6DFC7
:10093000E4800B0102040810204080900B7BE47ED1
:10094000019360BCA3FF543F30E509541FFEE493BC
:10095000A360010ECF54C025E060A840B8E493A383
:10096000FAE493A3F8E493A3C8C582C8CAC583CAAE
:10097000F0A3C8C582C8CAC583CADFE9DEE780BE66
:010B9700005D
:10034400E709F608DFFA8046E709F208DFFA803E9B
:1003540088828C83E709F0A3DFFA8032E309F60888
:10036400DFFA8078E309F208DFFA807088828C83F0
:10037400E309F0A3DFFA806489828A83E0A3F608A4
:10038400DFFA805889828A83E0A3F208DFFA804C7E
:1003940080D280FA80C680D4806980F28033801055
:1003A40080A680EA809A80A880DA80E280CA8033BE
:1003B40089828A83ECFAE493A3C8C582C8CCC58336
:1003C400CCF0A3C8C582C8CCC583CCDFE9DEE78006
:1003D4000D89828A83E493A3F608DFF9ECFAA9F085
:1003E400EDFB2289828A83ECFAE0A3C8C582C8CCDB
:1003F400C583CCF0A3C8C582C8CCC583CCDFEADEF4
:10040400E880DB89828A83E493A3F208DFF980CC55
:1004140088F0EF60010E4E60C388F0ED2402B4044E
:100424000050B9F582EB2402B4040050AF232345F5
:0604340082239003947383
:10043A00BB010689828A83E0225002E722BBFE02C0
:09044A00E32289828A83E49322F3
:10045300BB010689828A83F0225002F722BBFE0188
:02046300F32282
:10046500F8BB010DE58229F582E5833AF583E8F0CD
:10047500225006E92582C8F622BBFE05E92582C879
:02048500F22261
:10048700BC000BBE0029EF8DF084FFADF022E4CC59
:10049700F875F008EF2FFFEE33FEEC33FCEE9DEC22
:1004A700984005FCEE9DFE0FD5F0E9E4CEFD22ED68
:1004B700F8F5F0EE8420D21CFEADF075F008EF2FB2
:1004C700FFED33FD4007985006D5F0F222C398FDA3
:0504D7000FD5F0EA2240
:0E04DC00C3E49FFFE49EFEE49DFDE49CFC2231
:00000001FF
