:030000000211DC0E
:0C11DC00787FE4F6D8FD7581D50212235F
:0B1A0F00015102A305460A8CDF4300D2
:10135B00C100C106C107C184C105C101C102C103DE
:10136B00C1080239000002280000014D00012D7F49
:10137B00012BFF01337F0132C9043442A10000016C
:10138B0038000449C25C0000042E42FE0000013FFD
:10139B0000013B00014700014100014000013E00FC
:1013AB00014800014500014202013D03012C0101EE
:1013BB002A07062220202020200002430000013CA7
:0713CB000F0146FF0156006F
:1016AB001215CA12174A30000F300707C207E4FFA2
:1016BB00120AA51212E280EE300812C2087B007AE1
:1016CB00007956750D01E4FD7FA012151830040545
:0D16DB00120BF0C20412100912166980C92A
:03000B00020D12D1
:100D1200C0E0C0F0C083C082C0D075D000C000C0A7
:100D220001C002C003C004C005C006C00720042CD5
:100D320075F002E53DA4240FF582E5F0341AF5833F
:100D42000529E52970020528FFD37401939FE493D6
:100D520095285008752800752900D20430055A05D7
:100D62003AE53A70020539C394A0E5399405403A50
:100D7200E53A94D8E53994094021E53A9410E539E9
:100D8200940E4008753900753A00802FE538C394F7
:100D9200034003D38001C392A78020E538C39402A5
:100DA2004003D38001C392A78011E538C394014068
:100DB20003D38001C392A78002C2A7300105121794
:100DC200D080063002031217F9D007D006D005D022
:100DD20004D003D002D001D000D0D0D082D083D0B2
:040DE200F0D0E0323B
:03000300020F5E8B
:100F5E00C0E0C0F0C083C082C0D075D000C000C059
:0D0F6E0001C002C003C004C005C006C007DA
:100F7B00751F1475B0FF7F03E5B04207EF64FB608C
:100F8B00127F0A7E001218BB7F03E5B04207EF64A5
:100F9B00FB70507F327E001218BBD51FD930003941
:100FAB00AB3DAD32AF33121779121956785676FF27
:100FBB00E52C33333354F8FFE542C43354E04F454B
:100FCB002A56F6D208121992752800752900C20408
:100FDB00D28C752BFFD2068008C2A3C2A7C28CD2BB
:030FEB0007B2004A
:100FEE00D007D006D005D004D003D002D001D00057
:0B0FFE00D0D0D082D083D0F0D0E03201
:1015CA00C2A7C2A3758902E4F58CF58AD288C2B88B
:1015DA00D2B9F50B750C00750D32F50E750F007545
:1015EA00103DFB7A00793312161F1219F77B007A25
:1015FA00007956750D01E4FD7FA01212687856E64F
:10160A00FF5407F52AEF1313135403F52CE6C413FA
:05161A005403F542221B
:10174A00121992121449120BF07F0E121A1A7543CB
:10175A00007544281210B07F0C121A1AE4F543F5EA
:0F176A0044121992C204D2AFD2A9D28CD2A822B3
:100BF000C2AF1218D0AC06AD07EC12032A8F378EA5
:100C0000368D358C34121992750823D508FDD2AF74
:100C1000AF37AE36AD35AC34E4FBFA7980783D12AF
:100C200001068F378E368D358C34AF4CAE4BAD4AC6
:100C3000AC49AB37AA36A935A8341202AC600E40D5
:100C40000C85374C85364B85354A853449AF31AEF6
:100C500030AD2FAC2EAB37AA36A935A8341202AC72
:100C6000500C85373185363085352F85342EAC33A1
:100C7000EC12032FAB37AA36A935A8341202AC60A8
:100C8000644062D201D205AC33EC12032FA804A950
:100C900005AA06AB07AF37AE36AD35AC341200113E
:100CA000C004C005C006C007AC42E412032FA8046C
:100CB000A905AA06AB07D007D006D005D0041202BA
:100CC0000FE4FBFA7980783F1200151203638F3826
:100CD000E538D3940340037538037508171217D00D
:100CE000D508FA8007C201C205E4F538AC32EC122F
:100CF000032FAB37AA36A935A8341202AC500ED256
:100D000002D2A37508151217F9D508FA22C2A3C298
:010D100002E0
:010D110022BF
:10100900E52D2441605B24E0607324F07003021035
:10101900A7247060030210AF3006051210B0C20693
:101029007FC2121A1AAF37AE36AD35AC347B007AAF
:10103900007922750F057510011205AC7B007A0045
:1010490079221216EE7FCF121A1A7B007A007922C2
:10105900751201AF38120EA87B007A0079220216A8
:10106900EE300605121822C2067F89121A1AD20911
:1010790012171A7FC9121A1AC20902171A3006055D
:10108900121848C2063001097F88121A1AD209803B
:101099000A30020A7FC8121A1AC2091213D330067B
:0710A90005121573C20622B7
:100DE60057656C636F6D6520746F204141554353A1
:100DF600002020202020204E4F2E3133202020207E
:100E06002000483A0020204C3A00543A0020204660
:100E1600414E3A00486967686573743A20004C6F22
:100E2600776573743A20200041626F766520483AF0
:100E36000042656C6F77204C3A0054523A200020ED
:100E460020204647533A2000617564696F3A2000B6
:100E560048204C696D69743A20004C204C696D69D4
:100E6600743A2000545265736F6C7574696F6E3AEC
:100E7600200046476561722720537465703A20004A
:100E860072696E67746F6E653A20200041756469F9
:100E96006F3A2000202020006D002E0073007E7F18
:020EA60020200A
:0918B200E54425E0FFE54333FEA7
:1018BB00EF1FAA0670011E4A600A7D7BAC051DEC6A
:0418CB0060EE80F853
:0118CF0022F6
:0616E8007B007A0079226C
:1016EE008B0E8A0F8910AB0EAA0FA9101204FC6084
:1016FE001A0510E5107002050F14F91204FCFF1202
:0C170E001A2DAF44AE431218BB80DB2242
:101449007F38121A1A7F0C121A1A7F06121A1A7F7B
:1014590001121A1A7F90121A1A7BFF7A0D79E61275
:1014690016EE7543007544C87FD0121A1A7F071209
:101479001A1A7BFF7A0D79F71216EE7F06121A1ADD
:101489007508037F08121A1A1218B27F0C121A1A59
:101499001218B2D508ED7508107F18121A1AAF4440
:1014A900AE431218BBD508F17F01121A1AE4F543AD
:0214B900F544F8
:0114BB00220E
:1010B0007F01121A1A7BFF7A0E79081216EE7B0056
:1010C0007A007922751203AF33120EA81216E87B4C
:1010D000FF7A1A79171216EE7BFF7A0E790B121629
:1010E000EE7B007A007922751203AF32120EA8123D
:1010F00016E87BFF7A1A79171216EE7FC0121A1AB9
:101100007BFF7A0E79101216EEAF37AE36AD35ACE6
:10111000347B007A007922750F057510011205AC39
:101120001216E87BFF7A1A79171216EE7BFF7A0EF9
:1011300079131216EE7B007A007922751201AF380E
:0C114000120EA87B007A0079220216EE45
:101822007F01121A1A7BFF7A0E791A1216EED2096A
:1018320012171A7FC0121A1A7BFF7A0E7924121617
:06184200EEC20902171AB4
:101848007F01121A1A7BFF7A0E792E1216EED20930
:101858001213D37FC0121A1A7BFF7A0E7937121629
:06186800EEC2090213D3D9
:101573007F01121A1A7F01121A1A7BFF7A0E794021
:101583001216EEE53D2430FF121A2D7BFF7A0E79F9
:10159300451216EEE5422430FF121A2D7BFF7A1A0C
:1015A30079171216EE7FC0121A1A7BFF7A0E794E44
:1015B3001216EEE4F508E508C3952A50097FFF12D9
:0615C3001A2D050880F05E
:0115C90022FF
:020AA5008F09B7
:100AA700780A7C007D007BFF7A0E79A47E007F04A4
:100AB7001204B4E509652B7003020BEFE52BC31392
:100AC700FFE509C3136F7003020B917F01121A1A16
:100AD700E509C31314605F147003020B65240260F9
:100AE70003020B917F81121A1A7BFF7A0E79561235
:100AF70016EE7B007A007922751203AF33120EA827
:100B07001216E87BFF7A1A79171216EE7FC1121AAE
:100B17001A7BFF7A0E79601216EE7B007A00792233
:100B2700751203AF32120EA81216E87BFF7A1A79F4
:100B3700171216EE80547F81121A1A7BFF7A0E79EC
:100B47006A1216EEE53D2430FF121A2D7FC1121AE4
:100B57001A7BFF7A0E79781216EEE54280267F829D
:100B6700121A1A7BFF7A0E79861216EEE52C2430BC
:100B7700FF121A2D7FC4121A1A7BFF7A0E7992126E
:100B870016EEE52C2430FF121A2DE5091392097F82
:100B970080121A1AA209E43325E0FF740A2FF8E637
:100BA700FF121A2D7F8F121A1AA209E43325E0FFCC
:100BB700740B2FF8E6FF121A2DB2097FC0121A1A0A
:100BC700A209E43325E0FF740A2FF8E6FF121A2D75
:100BD7007FCF121A1AA209E43325E0FF740B2FF80E
:080BE700E6FF121A2D85092B0F
:010BEF0022E3
:10085300750B18C209E52B14601F14700302098776
:1008630014700302097F14700302097714700302E2
:10087300097424056003020AA4E52B6004AF3280E7
:1008830002AF338F09D50B05750B18B209E52B6041
:10089300047FC080027F80EF440AFF121A1A3009D6
:1008A300087BFF7A0E799A80147B007A007922758F
:1008B3001203AF09120EA87B007A0079221216EEFA
:1008C30012114CEF14700302094E240360131460D9
:1008D3004024FD70B0E52B6005850932800385094E
:1008E30033E52B60047FC080027F80EF440AFF1250
:1008F3001A1AE52B6004AF328002AF337B007A0013
:100903007922751203120EA87B007A00792202164F
:10091300EED3E509648094495003020888AF32EFAF
:100923003395E0FEEF2401FFE43EFEAD09ED339580
:10093300E0FCD3ED9FEE6480F8EC6480985007E50B
:100943002B70030208881509020888C3E50964802F
:1009530094FF4003020888E53314C36480F8E50973
:100963006480984007E52B600302088805090208A4
:1009730088852A09E52BB40403852C09E52BB403E8
:1009830003854209E52BB40203853D09E52BB40534
:10099300047F0C800BE52BB404047F0E80027F0FD1
:1009A300E52B30E0047EC080027E80EE4FFF121AFA
:1009B3001AD50B05750B18B209300905750A208085
:1009C30006E5092430F50A7F10121A1AAF0A121A23
:1009D3002D12114CEF147003020A6C2403603514BA
:1009E300605E24FD70CBE52BB4050585092A8024C0
:1009F300E52BB4040DE509652C6007D20385092CAA
:100A03008012E52BB403058509428008E52BB40267
:100A13000385093DE52BB40504AF2A8014E52BB407
:100A23000404AF2C800BE52BB40304AF428002AF68
:100A33003D8F0A7F10121A1AE50A2430FF021A2D7D
:100A4300E52B7E00B404047F0180027F00AD09ED35
:100A53003395E0FCD3ED9FEE6480F8EC648098500E
:100A6300030209B415090209B4E52B64036005E523
:100A73002BB405067E007F0480047E007F00EF24F4
:100A830003FFE43EFEAD09ED3395E0FCC3ED9FEEBD
:100A93006480F8EC64809840030209B405090209F4
:010AA300B49E
:010AA400222F
:10192500AB3C7F0A7E001218BB753C0FE5B0423C0C
:08193500E53C6B6002D322C304
:01193D002287
:1016690075B0FF753C0FE5B0423CE53C2441601084
:1016790024E0600C24F0600824F060132480701EBC
:10168900E52D653C601B1219254016853C4622E56F
:1016990046F4600D1219254008D20685462D754677
:0216A900FF221E
:1012E20075B0FF753C0FE5B0423CE53C244160100F
:1012F20024E0600C24F0600824F0600D2480705516
:101302001219254053853C4622E546F4604A1219DB
:10131200254045E5462441601A24E0602024F0601F
:101322002C2470702BC2AF7546FF1208537546FF0E
:10133200D2AF22E52B04F508B406158010E52B7018
:1013420005750805800AE52B14F5088003E4F50805
:08135200AF08120AA57546FF61
:01135A002270
:10114C0075B0FF753C0FE5B0423C12192550037F7A
:10115C000022E53C2481604F24A0600C24F0604701
:10116C0024F0604824407062E546653C7036E54DDD
:10117C00700D054DE53CB4BF037F01227FFF2205B6
:10118C004DE54DC394604011E54D540F700BE53C9B
:10119C00B4BF037F01227FFF22E54DB4FF03754DE1
:1011AC005F7F0022E4F54D853C468021E546B4FF87
:1011BC00037F0022E5462411600A2470700C7546EA
:1011CC00FF7FFE227546FF7F02227546FF7F0022BD
:1017D000053FE53FB4B421E4F53F053BE53BB414D8
:1017E00017E4F53B0547E547B43C0DE4F5470541F3
:0917F000E541B43C03E4F541229B
:1017F9000540E540B4B421E4F540053EE53EB414A6
:1018090017E4F53E0548E548B43C0DE4F5480545BF
:09181900E545B43C03E4F5452269
:1013D3007B007A007922300915751202AF41120E93
:1013E300A87B007A007925751202AF478013751226
:1013F30002AF45120EA87B007A007925751202AF61
:1014030048120EA81216E87BFF7A0E799E1216EE8A
:101413007B007A0079251216EE7BFF7A0E79A012F3
:1014230016EE300904E53B8002E53EC313FF7B0063
:101433007A007922751201120EA81216E87BFF7A40
:061443000E79A20216EE74
:10171A0030090AAF4CAE4BAD4AAC498008AF31AE86
:10172A0030AD2FAC2E7B007A007922750F0575102B
:10173A00011205AC1216E87BFF7A1A79170216EE27
:0E05AC008F0B8E0A8D098C088B0C8A0D890E20
:1005BA00850F82758300E4120527751ECD751DCC43
:1005CA00751CCC751B3EE5107003020664E4FFFE41
:1005DA00FDFCAB0BAA0AA909A8081202AC7E0050BE
:1005EA00047F0180027F007C00EF2510FFEC3ECFE4
:1005FA002401CF3400FED3EF950F7480F86E984033
:10060A003AE4FFFEFDAB0BAA0AA909A8081202AC3C
:10061A0050047F0180027F008F12E4FFFEFDFCABD5
:10062A000BAA0AA909A8081202AC50047F01800289
:10063A007F00E50F14C39FF5108008C3E50F9510DE
:10064A0014F512AB0CAA0DA90EAF12EF3395E08F79
:10065A0082F583742E1205278003850F12851011E7
:10066A00AF111511EF601DAF1EAE1DAD1CAC1B7B8B
:10067A00CD7ACC79CC783D1201068F1E8E1D8D1C49
:10068A008C1B80DCE4FFFEFDFCAB0BAA0AA909A8BF
:10069A00081202ACAF0BAE0AAD09AC08AB1EAA1D1C
:1006AA00A91CA81B50291200118F0B8E0A8D098CC8
:1006BA0008120363AD07AC06C3E49DF514E49CF588
:1006CA0013EC12032AAB0BAA0AA909A808802A125A
:1006DA0000158F0B8E0A8D098C081203638E138FF7
:1006EA0014AC13AD14E412032AA804A905AA06AB94
:1006FA0007AF0BAE0AAD09AC081200118F1A8E199A
:10070A008D188C17E51204F511AD11ED3395E0FC47
:10071A00C3ED950F7480F86C985072AF1AAE19AD8C
:10072A0018AC17E4FBFA792078411201068F1A8E69
:10073A00198D188C171203637515008F16EF243064
:10074A00FFAB0CAA0DA90EE511FD3395E08D82F5DC
:10075A0083EF120527AF1AAE19AD18AC17C004C043
:10076A0005C006C007AC15AD16E412032AA804A9F1
:10077A0005AA06AB07D007D006D005D0041200118F
:10078A008F1A8E198D188C170511020713E512148A
:10079A00F511D3E511648094804040AE13AF147C08
:1007AA00007D0A120549ED2430FFAB0CAA0DA90EF3
:1007BA00E511FD3395E08D82F583EF120527AE131F
:1007CA00AF147C007D0A1205498E138F14E5144577
:1007DA0013700415118004151180B7E4FFFEFDFCA7
:1007EA00AB0BAA0AA909A8081202AC50047F2D80F3
:1007FA0021E5144513700AE512640160047F208024
:10080A0011AE13AF147C007D0A120549ED2430FFA6
:10081A00E43CAB0CAA0DA90EE511FD3395E08D82DF
:10082A00F583EF801EAF111511D3EF6480948040D9
:10083A0017AB0CAA0DA90EAF11EF3395E08F82F515
:08084A0083742012052780DDF4
:010852002283
:060EA8008B0F8A10891176
:100EAE00851282758300E4120527C3EF6480948057
:100EBE0050028001C3920AE5127003020F5D300AE0
:100ECE00181512E5127003020F5D74012511F5114C
:100EDE00E43510F5106307FF0FEF800EE512602862
:100EEE00EF75F00A1204DAFF601E75F00A1204DACA
:100EFE00AEF0EE2430AB0FAA10A911151285128296
:100F0E0075830012052780D4300A2B74FF2511F546
:100F1E001174FF3510F510E512700BAB0FAA10A966
:100F2E0011742D120515AB0FAA10A9118512827519
:100F3E008300742D8014E5126015AB0FAA10A91151
:0F0F4E001512851282758300742012052780E723
:010F5D002271
:10196C007580FFC292C290D291D292AF80EF20E7E5
:03197C00F2C29222
:01197F002245
:0B1A1A00EF6007C20AF51112198022CC
:071A2D00D20A8F110219809B
:1019800012196CC291A20A9290851180D29200C263
:021990009222A1
:0C19D000001FEF6007007E03DEFEDFF961
:0119DC0022E8
:10189100E4FDD295C2957F3C1219D0D2957F0C12EE
:1018A10019D0A295E433FDD2957F181219D0AF0556
:0118B1002214
:0A17A5007FCC1218EE7FBE1218EE82
:1017AF007D08E4FCC2957F011219D0D295ECC313CA
:1017BF00FC3095034304807F051219D0DDE6AF049A
:0117CF0022F7
:0218EE00AD0744
:1018F0007B08C2957F011219D0ED1392957F0512D6
:0A19000019D0D295EDC313FDDBE80A
:01190A0022BA
:10199200121891EF700A7FCC1218EE7F441218EEE3
:0119A2002222
:1018D000E4F9FCFBFA121891EF6004E4FEFF221217
:0D18E00017A5A9071217AFEFFAE9AE02FF36
:0118ED0022D8
:10177900AC07AA03A905121891EF701F7FCC1218A4
:10178900EE7F4E1218EEAF041218EEAF011218EEEA
:0C179900EAC43354E0441FFF1218EE2293
:10161F008B088A09890A121891EF703D1217A512CB
:10162F0017AF1217AFAB08AA09A90AEF12051512C7
:10163F0017AFAB0BAA0CA90DEF1205151217AFAB15
:10164F000EAA0FA910EF120515AB0EAA0FA91012B3
:0A165F0004FCC41354071205152201
:10195600121891EF700F7FCC1218EE7F481218EE16
:061966007F0C1219D022D3
:071A2500D297121A2CD29691
:011A2C002297
:0C19DD00121A25A297920AC296A20AB321
:0119E90022DB
:1019A300D296D29700121A2CC29700121A2CC29602
:0119B3002211
:0E19B400C297D29600121A2CD29700021A2C5B
:0C19F700D29600D29700121A2C0219B4EC
:0E19C200C297121A27C296121A2CD297002230
:0C1A0300121A25C296121A2CC29700225B
:10193E00C2967E08EF339297D296121A2CC296EF69
:07194E0025E0FFDEEFD29758
:01195500226F
:10190B00D2977E08EF25E0FFC296121A27A297E422
:0A191B00334207DEEFC296021A2CD9
:0A1268008F088D098B0A8A0B890C90
:10127200E50D7002D3221219A3AF0812193E1219FA
:10128200DD92095055AF0912193E1219DD9209502B
:10129200491219A3E50804FF12193E1219DD920939
:1012A2005038E50D14F50EE50E601F12190BAB0A4E
:1012B200AA0BA90CEF1205151219C27401250CF51F
:1012C2000CE4350BF50B150E80DD12190BAB0AAAD7
:0F12D2000BA90CEF120515121A031219B4A20979
:0112E10022EA
:0A1518008F088D098B0A8A0B890CDD
:10152200E50D7002D3221219A3AF0812193E121947
:10153200DD92095036AF0912193E1219DD92095097
:101542002A850D0EE50E6023AB0AAA0BA90C120424
:10155200FCFF12193E1219DD9209500F7401250C7D
:10156200F50CE4350BF50B150E80D91219B4A2094E
:011572002256
:0C19EA007FA4AE071FEE70FA7F02DFFE44
:0119F60022CE
:02186E008F5495
:101870007555101219EA1219A3AF5412193E121914
:10188000DD4003D555ED1219B4E5556002D322C3EE
:011890002235
:1014BC008F4E8D4F8B508A518952E553D3941040E7
:1014CC0032AB50AA51A952750D10AD4FAF4E12153B
:1014DC00184001227410254FF54F74102552F55207
:1014EC00E43551F55174F02553F553AF4E12186E87
:1014FC0040C822AB50AA51A95285530DAD4FAF4EE7
:0C150C001215185005AF4E02186EC322D5
:10000E000203CFE86480F8E933E83360110460F04E
:10001E00ED33EC337009E8FCE9FDEAFEEBFF220458
:10002E0060DED3EB9FEA9EE99DE8C2E78CF0C2F753
:10003E0095F0400CE8CCF8E9CDF9EACEFAEBCFFB1F
:10004E0012039A85D0F05804700320D5B3E80470DB
:10005E00075002B2D50203D992D5EC0460F7E4CC76
:10006E00C0E0C398F8603B94186008400DD0E0FBE8
:10007E000203B1E4FBFAC9FC8028E830E406E4C9C7
:10008E00FBE4CAFCE830E305E4C9CACBFCE854073C
:10009E006010F8C3E913F9EA13FAEB13FBEC13FC47
:1000AE00D8F130F52FC3E49CFCEF9BFFEE9AFEEDEA
:1000BE0099FDD0E0FBEF4E4D4C701222DB03020394
:1000CE00D6EC2CFCEF33FFEE33FEED33FDED30E7D7
:1000DE00EB0203B1EF2BFFEE3AFEED39FDD0E0FB64
:1000EE0050130BBB00030203D9ED13FDEE13FEEF0D
:0800FE0013FFEC13FC0203B137
:10010600EC4D6011E8497017ED33EC3304600DE4F3
:10011600FCFFFEFD22E933E8330470F80203CF1238
:10012600039A58046009E4CC248150062850090239
:1001360003D92840030203D6C0E0EB4A7044B980D5
:1001460006D0E0FB0203C5EF4E701CBD8008EBFF36
:10015600EAFEE9FD80EBE98DF0A4FEE5F00201EF91
:10016600E9CDF9EAFEEBFFEF89F0A4FCE5F0CE89D4
:10017600F0A42EFFE435F0CD89F0A42DFEE435F091
:100186008067EF4E7005BD80D780C3EF8BF0A4ACBF
:10019600F0EE8BF0A42CFCE435F0F8EF8AF0A42CFA
:1001A600E5F038FCE433CB8DF0A42CFCE5F03BF80D
:1001B600EE8AF0A42CFCE5F038F8E433CF89F0A4FD
:1001C6002CFCE5F038CF3400CE89F0A42FFFE5F003
:1001D6003EFEE433C98DF0A42EFEE5F039CD8AF05B
:1001E600A42FFFE5F03EFEE43DFD33D0E0FB5007D3
:1001F6000BBB000F0203D9EC2CFCEF33FFEE33FEF2
:06020600ED33FD0203B11F
:10020C000203D9EC5D046005E8590470030203CFC6
:10021C0012039A580460F6EC4860F2EC7004FDFE90
:10022C00FF22C860DB2481C85009C39860025006C5
:10023C000203D69850CAF582E9294B4A7005AB8265
:10024C000203C575F0007C1A7880C3EF9BEE9AED23
:10025C0099400DC3EF9BFFEE9AFEED99FDE842F03D
:10026C00DC23ACF0D0E0FFD0E0FED0E0FDAB822090
:10027C00E7101BEB60BAEC2CFCEF33FFEE33FEED1A
:10028C0033FD0203B1E803F830E705C0F075F00068
:10029C00EF2FFFEE33FEED33FD40B830E7C280AAFE
:1002AC0074F8CC6480CCC86480C8F58204604FC3F9
:1002BC00EB9FF5F0EA9E42F0E99D42F0E89C45F098
:1002CC00603C501DE5825FFFE582D313CB5BCBF422
:1002DC002B5582FB50280ABA002409B9002008804B
:1002EC001DE5825BFBE582D313CF5FCFF4C3132FE5
:1002FC005582FF50090EBE00050DBD00010CC3EB6D
:10030C009FF5F0EA9E42F0E99D42F0E89C45F060D2
:09031C0007CC4820E701B3EC22F4
:1003250075F020800E75F010800575F0087D007E53
:10033500007F003392D530D50312059EEC33401073
:10034500EF33FFEE33FEED33FDEC33FCD5F0ED225C
:0E035500E5F0247EA2D513CC92E7CDCEFF2298
:10036300EDD2E7CD33EC3392D524814006E4FFFE92
:10037300FDFC22FCE4CFCECDCC24E0501174FF80F1
:10038300EDC3CC13CCCD13CDCE13CECF13CF04708E
:07039300F030D5DE02059EEB
:10039A00E9D2E7C933E833F892D5EDD2E7CD33ECA9
:0703AA0033FC5002B2D52222
:1003B100EC30E7100FBF000C0EBE00080DBD0004AD
:1003C1000BEB6014A2D5EB13FCED92E7FD2274FF59
:1003D100FCFDFEFF22E480F8A2D574FF13FC7D80B2
:0303E100E480EFC6
:1011E8000216ABE493A3F8E493A34003F68001F25C
:1011F80008DFF48029E493A3F85407240CC8C33308
:10120800C4540F4420C8834004F456800146F6DFD6
:10121800E4800B010204081020408090135BE47EF8
:10122800019360BCA3FF543F30E509541FFEE493CB
:10123800A360010ECF54C025E060A840B8E493A392
:10124800FAE493A3F8E493A3C8C582C8CAC583CABD
:10125800F0A3C8C582C8CAC583CADFE9DEE780BE75
:0113D200001A
:1003E400E709F608DFFA8046E709F208DFFA803EFB
:1003F40088828C83E709F0A3DFFA8032E309F608E8
:10040400DFFA8078E309F208DFFA807088828C834F
:10041400E309F0A3DFFA806489828A83E0A3F60803
:10042400DFFA805889828A83E0A3F208DFFA804CDD
:1004340080D280FA80C680D4806980F280338010B4
:1004440080A680EA809A80A880DA80E280CA80331D
:1004540089828A83ECFAE493A3C8C582C8CCC58395
:10046400CCF0A3C8C582C8CCC583CCDFE9DEE78065
:100474000D89828A83E493A3F608DFF9ECFAA9F0E4
:10048400EDFB2289828A83ECFAE0A3C8C582C8CC3A
:10049400C583CCF0A3C8C582C8CCC583CCDFEADE53
:1004A400E880DB89828A83E493A3F208DFF980CCB5
:1004B40088F0EF60010E4E60C388F0ED2402B404AE
:1004C4000050B9F582EB2402B4040050AF23234555
:0604D40082239004347342
:1004DA00C2D530F707B2D563F0FF05F030E70CB2AA
:1004EA00D5F4048463F0FF05F080018430D502F46A
:0204FA000422DA
:1004FC00BB010689828A83E0225002E722BBFE02FE
:09050C00E32289828A83E4932230
:10051500BB010689828A83F0225002F722BBFE01C5
:02052500F322BF
:10052700F8BB010DE58229F582E5833AF583E8F00A
:10053700225006E92582C8F622BBFE05E92582C8B6
:02054700F2229E
:10054900BC000BBE0029EF8DF084FFADF022E4CC96
:10055900F875F008EF2FFFEE33FEEC33FCEE9DEC5F
:10056900984005FCEE9DFE0FD5F0E9E4CEFD22EDA5
:10057900F8F5F0EE8420D21CFEADF075F008EF2FEF
:10058900FFED33FD4007985006D5F0F222C398FDE0
:050599000FD5F0EA227D
:0E059E00C3E49FFFE49EFEE49DFDE49CFC226E
:00000001FF
