:030000000210E308
:0C10E300787FE4F6D8FD75814D02112ADB
:1015E70012160F12150F30000F300607C206E4FF60
:1015F700120A4C1211F780EE300305120BAEC2032C
:08160700120F1012146B80DEBB
:03000B00020CC61E
:100CC600C0E0C0F0C083C082C0D075D000C000C0F4
:100CD60001C002C003C004C005C006C00720032C23
:100CE60075F002E53CA42473F582E5F03417F5832C
:100CF6000529E52970020528FFD37401939FE49323
:100D060095285008752800752900D2033004570528
:100D160039E53970020538C394A0E53894054038A2
:100D2600E53994D8E53894094020E5399410E5383A
:100D3600940E4008753800753900802CE537C39449
:100D46000350028001C392A7801EE537C394025068
:100D5600028001C392A78010E537C3940150028038
:100D660001C392A78002D2A730010512159580060D
:100D76003002031215BED007D006D005D004D0032A
:100D8600D002D001D000D0D0D082D083D0F0D0E035
:010D9600322A
:0300030002105395
:10105300C0E0C0F0C083C082C0D075D000C000C063
:0D10630001C002C003C004C005C006C007E4
:10107000751F1475B0FF7F03E5B04207EF64FB6096
:10108000127F0A7E001216E67F03E5B04207EF6486
:10109000FB70357F327E001216E6D51FD930002056
:1010A000AB3CAD31AF3212153E12174A12173975EB
:1010B0002800752900C203D28C752BFFD20580064B
:0810C000D2A7C28CD206B200D7
:1010C800D007D006D005D004D003D002D001D0007C
:0B10D800D0D0D082D083D0F0D0E03226
:10160F00758902E4F58CF58AD288C2B8D2B9F50B88
:10161F00750C00750D31F50E750F0075103CFB7ACA
:06162F00007932021421D3
:10150F001217391212E6120BAE7F0E1217687542C0
:10151F0000754328120FB77F0C121768E4F542F5D8
:0F152F0043121739C203D2AFD2A9D28CD2A8224D
:100BAE00C2AF1216A2AC06AD07EC12032A8F368E18
:100BBE00358D348C33121739750829D508FDD2AF0F
:100BCE00AF36AE35AD34AC33E4FBFA7980783D12F6
:100BDE0001068F368E358D348C33AF4CAE4BAD4A0D
:100BEE00AC49AB36AA35A934A8331202AC600E401C
:100BFE000C85364C85354B85344A853349AF30AE3E
:100C0E002FAD2EAC2DAB36AA35A934A8331202ACBB
:100C1E00500C85363085352F85342E85332DAC32EC
:100C2E00EC12032FAB36AA35A934A8331202AC60EE
:100C3E005A4058D201D204AC32EC12032FA804A9A8
:100C4E0005AA06AB07AF36AE35AD34AC3312001184
:100C5E00C004C005C006C007AC41E412032FA804AF
:100C6E00A905AA06AB07D007D006D005D0041202FC
:100C7E000FE4FBFA7980783F1200151203638F3769
:100C8E00750815121595D508FA8007C201C204E43D
:100C9E00F537AC31EC12032FAB36AA35A934A83395
:100CAE001202AC500ED202C2A37508151215BED593
:070CBE0008FA22D2A3C202D2
:010CC500220C
:100F1000E52C2441605B24E0607324F07003020F31
:100F2000AE24706003020FB6300505120FB7C2057C
:100F30007FC2121768AF36AE35AD34AC337B007A62
:100F4000007922750F057510011205AC7B007A003F
:100F500079221214B37FCF1217687B007A007922AE
:100F6000751301AF37120E5A7B007A0079220214F2
:100F7000B3300505121635C2057F89121768D207EE
:100F80001214DF7FC9121768C2070214DF3005058B
:100F900012165BC2053001097F88121768D20780DC
:100FA0000A30020A7FC8121768C207121270300591
:070FB000051213CAC205225D
:0C175B00001FEF6007007E03DEFEDFF9D8
:01176700225F
:10168100E4FDD295C2957F3C12175BD2957F0C1277
:10169100175BA295E433FDD2957F1812175BAF0556
:0116A1002226
:0216C000AD0774
:1016C2007B08C2957F0112175BED1392957F05127D
:0A16D200175BD295EDC313FDDBE8B2
:0116DC0022EB
:0A156A007FCC1216C07FBE1216C01F
:101574007D08E4FCC2957F0112175BD295ECC3137E
:10158400FC3095034304807F0512175BDDE6AF044E
:011594002234
:10173900121681EF700A7FCC1216C07F441216C0B0
:01174900227D
:1016A200E4F9FCFBFA121681EF6004E4FEFF221259
:0D16B200156AA907121574EFFAE9AE02FFE0
:0116BF002208
:10153E00AC07AA03A905121681EF701F7FCC1216F5
:10154E00C07F4E1216C0AF041216C0AF011216C0E5
:0C155E00EAC43354E0441FFF1216C02200
:101421008B088A09890A121681EF703D12156A121A
:101431001574121574AB08AA09A90AEF1205151241
:101441001574AB0BAA0CA90DEF120515121574AB8F
:101451000EAA0FA910EF120515AB0EAA0FA91012B3
:0A14610004FCC41354071205152201
:10174A00121681EF700A7FCC1216C07F481216C09B
:01175A00226C
:101713007580FFC292C290D291D292AF80EF20E740
:03172300F2C2927D
:0117260022A0
:0B176800EF6007C208F51212172722DD
:07177E00D2088F12021727A9
:10172700121713C291A2089290851280D29200C21A
:021737009222FC
:100D970057656C636F6D6520746F204141554353F0
:100DA700002020202020204E4F2E313320202020CD
:100DB7002000483A0020204C3A00543A00202046B0
:100DC700414E3A00486967686573743A20004C6F72
:100DD700776573743A20200041626F766520483A40
:100DE7000042656C6F77204C3A0054523A2000203D
:100DF70020204647533A2000566F6C756D653A20A0
:100E07000048204C696D69743A20004C204C696D8C
:100E170069743A2000545265736F6C7574696F6E0C
:100E27003A200046476561722720537465703A205F
:100E37000052696E67746F6E653A202000566F6CBA
:100E4700756D653A00202020006D002E0073007E2E
:030E57007F2020D9
:0916DD00E54325E0FFE54233FE80
:1016E600EF1FAA0670011E4A60097D8E1DED60F08F
:0316F6000080F978
:0116F90022CE
:0614AD007B007A007922A9
:1014B3008B0F8A108911AB0FAA10A9111204FC60BB
:1014C3001A0511E5117002051014F91204FCFF123C
:0C14D300177EAF43AE421216E680DB220B
:1012E6007F381217687F0C1217687F061217687FFF
:1012F600011217687F901217687BFF7A0D79971293
:1013060014B37542007543647FD01217687F0712C5
:1013160017687BFF7A0D79A81214B37F0612176837
:101326007508037F081217681216DD7F0C121768FE
:101336001216DDD508ED7508107F18121768AF4331
:10134600AE421216E6D508F17F01121768E4F5429F
:02135600F5435D
:011358002272
:100FB7007F011217687BFF7A0D79B91214B37B0092
:100FC7007A007922751303AF32120E5A1214AD7BD1
:100FD700FF7A17797B1214B37BFF7A0D79BC121451
:100FE700B37B007A007922751303AF31120E5A12C0
:100FF70014AD7BFF7A17797B1214B37FC012176881
:101007007BFF7A0D79C11214B3AF36AE35AD34AC70
:10101700337B007A007922750F057510011205AC34
:101027001214AD7BFF7A17797B1214B37BFF7A0D0D
:1010370079C41214B37B007A007922751301AF3794
:0C104700120E5A7B007A0079220214B3CA
:101635007F011217687BFF7A0D79CB1214B3D2079D
:101645001214DF7FC01217687BFF7A0D79D512144B
:06165500B3C2070214DF1E
:10165B007F011217687BFF7A0D79DF1214B3D20763
:10166B001212707FC01217687BFF7A0D79E8121483
:06167B00B3C20702127069
:1013CA007F011217687F011217687BFF7A0D79F186
:1013DA001214B3E53C2430FF12177E7BFF7A0D7995
:1013EA00F61214B3E5412430FF12177E7BFF7A17F9
:1013FA00797B1214B37FC01217687BFF7A0D79FFCD
:10140A001214B3E4F508E508C3952A50097FFF12C0
:06141A00177E050880F0BA
:0114200022A9
:020A4C008F0910
:100A4E00780B7C007D007BFF7A0E79567E007F044A
:100A5E001204B4E509652B7003020BADE52BC3132D
:100A6E00FFE509C3136F7003020B547F0112176861
:100A7E00E509C31314605F147003020B12240260A5
:100A8E0003020B547F811217687BFF7A0E790812CE
:100A9E0014B37B007A007922751303AF32120E5A0B
:100AAE001214AD7BFF7A17797B1214B37FC1121724
:100ABE00687BFF7A0E79121214B37B007A007922CA
:100ACE00751303AF31120E5A1214AD7BFF7A1779DC
:100ADE007B1214B380707F811217687BFF7A0E79B8
:100AEE001C1214B3E53C2430FF12177E7FC112177F
:100AFE00687BFF7A0E792A1214B3E5412430FF1277
:100B0E00177E80427F821217687BFF7A0E79381229
:100B1E0014B3E5482430FF12177E7FC11217687B8D
:100B2E00FF7A0E79441214B3E4F50AAD0AED33954B
:100B3E00E0FCC3ED952A7480F86C9850097FFF1283
:100B4E00177E050A80E5E5095401F50A7F80121724
:100B5E0068E50A25E0240BF8E6FF12177E7F8F1258
:100B6E001768E50A25E0240CF8E6FF12177EE50A61
:100B7E0070047F0180027F008F0A7FC0121768E524
:100B8E000A25E0240BF8E6FF12177E7FCF121768B6
:0F0B9E00E50A25E0240CF8E6FF12177E85092BE7
:010BAD002225
:10085300750B18C207E52B1460191470030209798C
:1008630014700302097114700302096E24046003F7
:10087300020A4BE52B6004AF318002AF328F09D5FA
:100883000B05750B18B207E52B60047FC080027F50
:1008930080EF440AFF1217683007087BFF7A0E794E
:1008A3004C80147B007A007922751303AF09120E72
:1008B3005A7B007A0079221214B312116FEF14706D
:1008C300030209482403601314604024FD70B0E55B
:1008D3002B60058509318003850932E52B60047F90
:1008E300C080027F80EF440AFF121768E52B600483
:1008F300AF318002AF327B007A0079227513031285
:100903000E5A7B007A0079220214B3D3E50964807E
:1009130094495003020882AF31EF3395E0FEEF2490
:1009230001FFE43EFEAD09ED3395E0FCD3ED9FEE10
:100933006480F8EC6480985007E52B70030208820A
:100943001509020882C3E509648094FF4003020885
:1009530082E53214C36480F8E5096480984007E5B2
:100963002B60030208820509020882854809E52BEA
:10097300B40303854109E52BB40203853C09E52B48
:10098300B404047F0E80027F0FE52B30E0047EC0A9
:1009930080027E80EE4FFF121768D50B05750B188A
:1009A300B207300705750A208006E5092430F50AE9
:1009B3007F10121768AF0A12177E12116FEF1460BF
:1009C300572403602314604324FD70CEE52BB40445
:1009D300058509488012E52BB40305850941800884
:1009E300E52BB4020385093CE52BB40404AF48802E
:1009F3000BE52BB40304AF418002AF3C8F0A7F1099
:100A0300121768E50A2430FF02177ED3E5096480D4
:100A13009480408615098082E52B7E00B403047F11
:100A23000480027F00EF2403FFE43EFEAD09ED33B3
:100A330095E0FCC3ED9FEE6480F8EC64809840037E
:080A430002099D050902099D4D
:010A4B002288
:1016FA00AC3B7F0A7E001216E6753B0FE5B0423B13
:08170A00E53B6C6002D322C331
:0117120022B4
:10146B0075B0FF753B0FE5B0423BE53B2441601087
:10147B0024E0600C24F0600824F060132480701EBC
:10148B00E52C653B601B1216FA4016853B4522E5A1
:10149B0045F4600D1216FA4008D20585452C7545AA
:0214AB00FF221E
:1011F70075B0FF753B0FE5B0423BE53B24416010FE
:1012070024E0600C24F0600824F0600D2480705501
:101217001216FA4053853B4522E545F4604A1216FB
:10122700FA4045E5452441601A24E0602024F06037
:101237002C2470702BC2AF7545FF1208537545FFFC
:10124700D2AF22E52B04F508B406158010E52B7004
:1012570005750805800AE52B14F5088003E4F508F1
:08126700AF08120A4C7545FFA7
:01126F00225C
:10116F0075B0FF753B0FE5B0423B1216FA50037F87
:10117F000022E53B2481604724A0600C24F0603FEF
:10118F0024F060402440705AE545653B702EE54DD4
:10119F00700D054DE53BB4BF037F01227FFF220594
:1011AF004DE54DD394504011E54D540F700BE53B79
:1011BF00B4BF037F01227FFF227F0022E4F54D851C
:1011CF003B458021E545B4FF037F0022E54524110F
:1011DF00600A2470700C7545FF7FFE227545FF7FF6
:0811EF0002227545FF7F00227A
:10159500053EE53EB4B421E4F53E053AE53AB4141A
:1015A50017E4F53A0546E546B43C0DE4F546054035
:0915B500E540B43C03E4F54022DA
:1015BE00053FE53FB4B421E4F53F053DE53DB414E8
:1015CE0017E4F53D0547E547B43C0DE4F547054402
:0915DE00E544B43C03E4F54422A9
:101270007B007A007922300715751302AF40120EF9
:101280005A7B007A007925751302AF4680137513D7
:1012900002AF44120E5A7B007A007925751302AF13
:1012A00047120E5A1214AD7BFF7A0E79501214B306
:1012B0007B007A0079251214B37BFF7A0E795212E3
:1012C00014B3300704E53A8002E53DC313FF7B0009
:1012D0007A007922751301120E5A1214AD7BFF7A2F
:0612E0000E79540214B364
:1014DF0030070AAF4CAE4BAD4AAC498008AF30AEC7
:1014EF002FAD2EAC2D7B007A007922750F0575106C
:1014FF00011205AC1214AD7BFF7A17797B0214B37E
:0E05AC008F0B8E0A8D098C088B0C8A0D890E20
:1005BA00850F82758300E4120527751ECD751DCC43
:1005CA00751CCC751B3EE5107003020664E4FFFE41
:1005DA00FDFCAB0BAA0AA909A8081202AC7E0050BE
:1005EA00047F0180027F007C00EF2510FFEC3ECFE4
:1005FA002401CF3400FED3EF950F7480F86E984033
:10060A003AE4FFFEFDAB0BAA0AA909A8081202AC3C
:10061A0050047F0180027F008F12E4FFFEFDFCABD5
:10062A000BAA0AA909A8081202AC50047F01800289
:10063A007F00E50F14C39FF5108008C3E50F9510DE
:10064A0014F512AB0CAA0DA90EAF12EF3395E08F79
:10065A0082F583742E1205278003850F12851011E7
:10066A00AF111511EF601DAF1EAE1DAD1CAC1B7B8B
:10067A00CD7ACC79CC783D1201068F1E8E1D8D1C49
:10068A008C1B80DCE4FFFEFDFCAB0BAA0AA909A8BF
:10069A00081202ACAF0BAE0AAD09AC08AB1EAA1D1C
:1006AA00A91CA81B50291200118F0B8E0A8D098CC8
:1006BA0008120363AD07AC06C3E49DF514E49CF588
:1006CA0013EC12032AAB0BAA0AA909A808802A125A
:1006DA0000158F0B8E0A8D098C081203638E138FF7
:1006EA0014AC13AD14E412032AA804A905AA06AB94
:1006FA0007AF0BAE0AAD09AC081200118F1A8E199A
:10070A008D188C17E51204F511AD11ED3395E0FC47
:10071A00C3ED950F7480F86C985072AF1AAE19AD8C
:10072A0018AC17E4FBFA792078411201068F1A8E69
:10073A00198D188C171203637515008F16EF243064
:10074A00FFAB0CAA0DA90EE511FD3395E08D82F5DC
:10075A0083EF120527AF1AAE19AD18AC17C004C043
:10076A0005C006C007AC15AD16E412032AA804A9F1
:10077A0005AA06AB07D007D006D005D0041200118F
:10078A008F1A8E198D188C170511020713E512148A
:10079A00F511D3E511648094804040AE13AF147C08
:1007AA00007D0A120549ED2430FFAB0CAA0DA90EF3
:1007BA00E511FD3395E08D82F583EF120527AE131F
:1007CA00AF147C007D0A1205498E138F14E5144577
:1007DA0013700415118004151180B7E4FFFEFDFCA7
:1007EA00AB0BAA0AA909A8081202AC50047F2D80F3
:1007FA0021E5144513700AE512640160047F208024
:10080A0011AE13AF147C007D0A120549ED2430FFA6
:10081A00E43CAB0CAA0DA90EE511FD3395E08D82DF
:10082A00F583EF801EAF111511D3EF6480948040D9
:10083A0017AB0CAA0DA90EAF11EF3395E08F82F515
:08084A0083742012052780DDF4
:010852002283
:060E5A008B108A118912C1
:100E6000851382758300E4120527C3EF64809480A4
:100E700050028001C39208E5137003020F0F30087F
:100E8000181513E5137003020F0F74012512F512E4
:100E9000E43511F5116307FF0FEF800EE5136028AD
:100EA000EF75F00A1204DAFF601E75F00A1204DA18
:100EB000AEF0EE2430AB10AA11A9121513851382DF
:100EC00075830012052780D430082B74FF2512F596
:100ED0001274FF3511F511E513700BAB10AA11A9AF
:100EE00012742D120515AB10AA11A9128513827563
:100EF0008300742D8014E5136015AB10AA11A9129C
:0F0F00001513851382758300742012052780E76F
:010F0F0022BF
:0B177300015102A305460A8CDF430071
:10135900C100C105C106C183C104C101C10202386E
:10136900000002280000014D00012C7F012BFF0124
:1013790032800131C9043342A10000013700044918
:10138900C25C0000042D43000000013E00013A0048
:10139900014600014000013F00013D0001470001F5
:1013A9004400014102013C03014801012A070622C8
:1013B90020202020200002420000013B0F0145FFB0
:10000E000203CFE86480F8E933E83360110460F04E
:10001E00ED33EC337009E8FCE9FDEAFEEBFF220458
:10002E0060DED3EB9FEA9EE99DE8C2E78CF0C2F753
:10003E0095F0400CE8CCF8E9CDF9EACEFAEBCFFB1F
:10004E0012039A85D0F05804700320D5B3E80470DB
:10005E00075002B2D50203D992D5EC0460F7E4CC76
:10006E00C0E0C398F8603B94186008400DD0E0FBE8
:10007E000203B1E4FBFAC9FC8028E830E406E4C9C7
:10008E00FBE4CAFCE830E305E4C9CACBFCE854073C
:10009E006010F8C3E913F9EA13FAEB13FBEC13FC47
:1000AE00D8F130F52FC3E49CFCEF9BFFEE9AFEEDEA
:1000BE0099FDD0E0FBEF4E4D4C701222DB03020394
:1000CE00D6EC2CFCEF33FFEE33FEED33FDED30E7D7
:1000DE00EB0203B1EF2BFFEE3AFEED39FDD0E0FB64
:1000EE0050130BBB00030203D9ED13FDEE13FEEF0D
:0800FE0013FFEC13FC0203B137
:10010600EC4D6011E8497017ED33EC3304600DE4F3
:10011600FCFFFEFD22E933E8330470F80203CF1238
:10012600039A58046009E4CC248150062850090239
:1001360003D92840030203D6C0E0EB4A7044B980D5
:1001460006D0E0FB0203C5EF4E701CBD8008EBFF36
:10015600EAFEE9FD80EBE98DF0A4FEE5F00201EF91
:10016600E9CDF9EAFEEBFFEF89F0A4FCE5F0CE89D4
:10017600F0A42EFFE435F0CD89F0A42DFEE435F091
:100186008067EF4E7005BD80D780C3EF8BF0A4ACBF
:10019600F0EE8BF0A42CFCE435F0F8EF8AF0A42CFA
:1001A600E5F038FCE433CB8DF0A42CFCE5F03BF80D
:1001B600EE8AF0A42CFCE5F038F8E433CF89F0A4FD
:1001C6002CFCE5F038CF3400CE89F0A42FFFE5F003
:1001D6003EFEE433C98DF0A42EFEE5F039CD8AF05B
:1001E600A42FFFE5F03EFEE43DFD33D0E0FB5007D3
:1001F6000BBB000F0203D9EC2CFCEF33FFEE33FEF2
:06020600ED33FD0203B11F
:10020C000203D9EC5D046005E8590470030203CFC6
:10021C0012039A580460F6EC4860F2EC7004FDFE90
:10022C00FF22C860DB2481C85009C39860025006C5
:10023C000203D69850CAF582E9294B4A7005AB8265
:10024C000203C575F0007C1A7880C3EF9BEE9AED23
:10025C0099400DC3EF9BFFEE9AFEED99FDE842F03D
:10026C00DC23ACF0D0E0FFD0E0FED0E0FDAB822090
:10027C00E7101BEB60BAEC2CFCEF33FFEE33FEED1A
:10028C0033FD0203B1E803F830E705C0F075F00068
:10029C00EF2FFFEE33FEED33FD40B830E7C280AAFE
:1002AC0074F8CC6480CCC86480C8F58204604FC3F9
:1002BC00EB9FF5F0EA9E42F0E99D42F0E89C45F098
:1002CC00603C501DE5825FFFE582D313CB5BCBF422
:1002DC002B5582FB50280ABA002409B9002008804B
:1002EC001DE5825BFBE582D313CF5FCFF4C3132FE5
:1002FC005582FF50090EBE00050DBD00010CC3EB6D
:10030C009FF5F0EA9E42F0E99D42F0E89C45F060D2
:09031C0007CC4820E701B3EC22F4
:1003250075F020800E75F010800575F0087D007E53
:10033500007F003392D530D50312059EEC33401073
:10034500EF33FFEE33FEED33FDEC33FCD5F0ED225C
:0E035500E5F0247EA2D513CC92E7CDCEFF2298
:10036300EDD2E7CD33EC3392D524814006E4FFFE92
:10037300FDFC22FCE4CFCECDCC24E0501174FF80F1
:10038300EDC3CC13CCCD13CDCE13CECF13CF04708E
:07039300F030D5DE02059EEB
:10039A00E9D2E7C933E833F892D5EDD2E7CD33ECA9
:0703AA0033FC5002B2D52222
:1003B100EC30E7100FBF000C0EBE00080DBD0004AD
:1003C1000BEB6014A2D5EB13FCED92E7FD2274FF59
:1003D100FCFDFEFF22E480F8A2D574FF13FC7D80B2
:0303E100E480EFC6
:1010EF000215E7E493A3F8E493A34003F68001F21B
:1010FF0008DFF48029E493A3F85407240CC8C33302
:10110F00C4540F4420C8834004F456800146F6DFD0
:10111F00E4800B0102040810204080901359E47EF4
:10112F00019360BCA3FF543F30E509541FFEE493C5
:10113F00A360010ECF54C025E060A840B8E493A38C
:10114F00FAE493A3F8E493A3C8C582C8CAC583CAB7
:10115F00F0A3C8C582C8CAC583CADFE9DEE780BE6F
:0113C9000023
:1003E400E709F608DFFA8046E709F208DFFA803EFB
:1003F40088828C83E709F0A3DFFA8032E309F608E8
:10040400DFFA8078E309F208DFFA807088828C834F
:10041400E309F0A3DFFA806489828A83E0A3F60803
:10042400DFFA805889828A83E0A3F208DFFA804CDD
:1004340080D280FA80C680D4806980F280338010B4
:1004440080A680EA809A80A880DA80E280CA80331D
:1004540089828A83ECFAE493A3C8C582C8CCC58395
:10046400CCF0A3C8C582C8CCC583CCDFE9DEE78065
:100474000D89828A83E493A3F608DFF9ECFAA9F0E4
:10048400EDFB2289828A83ECFAE0A3C8C582C8CC3A
:10049400C583CCF0A3C8C582C8CCC583CCDFEADE53
:1004A400E880DB89828A83E493A3F208DFF980CCB5
:1004B40088F0EF60010E4E60C388F0ED2402B404AE
:1004C4000050B9F582EB2402B4040050AF23234555
:0604D40082239004347342
:1004DA00C2D530F707B2D563F0FF05F030E70CB2AA
:1004EA00D5F4048463F0FF05F080018430D502F46A
:0204FA000422DA
:1004FC00BB010689828A83E0225002E722BBFE02FE
:09050C00E32289828A83E4932230
:10051500BB010689828A83F0225002F722BBFE01C5
:02052500F322BF
:10052700F8BB010DE58229F582E5833AF583E8F00A
:10053700225006E92582C8F622BBFE05E92582C8B6
:02054700F2229E
:10054900BC000BBE0029EF8DF084FFADF022E4CC96
:10055900F875F008EF2FFFEE33FEEC33FCEE9DEC5F
:10056900984005FCEE9DFE0FD5F0E9E4CEFD22EDA5
:10057900F8F5F0EE8420D21CFEADF075F008EF2FEF
:10058900FFED33FD4007985006D5F0F222C398FDE0
:050599000FD5F0EA227D
:0E059E00C3E49FFFE49EFEE49DFDE49CFC226E
:00000001FF
