:0300000002118268
:0C118200787FE4F6D8FD75814D0211C99C
:101628001215AC12152630000F300607C206E4FF6B
:10163800120A4C12120E80EE300305120BAEC203D2
:08164800120F1D12148280DE56
:03000B00020CD014
:100CD000C0E0C0F0C083C082C0D075D000C000C0EA
:100CE00001C002C003C004C005C006C00720032C19
:100CF00075F002E53CA42493F582E5F03417F58302
:100D00000529E52970020528FFD37401939FE49318
:100D100095285008752800752900D20330045A051B
:100D200039E53970020538C394A0E5389405403A96
:100D3000E53994D8E53894094021E5399410E5382F
:100D4000940E4008753800753900802FE537C3943C
:100D5000034003D38001C392A78020E537C39402E8
:100D60004003D38001C392A78011E537C3940140AB
:100D700003D38001C392A78002C2A73001051215D8
:100D8000D680063002031215FFD007D006D005D05A
:100D900004D003D002D001D000D0D0D082D083D0F4
:040DA000F0D0E0327D
:0300030002106088
:10106000C0E0C0F0C083C082C0D075D000C000C056
:0D10700001C002C003C004C005C006C007D7
:10107D00751F1475B0FF7F03E5B04207EF64FB6089
:10108D00127F0A7E001217017F03E5B04207EF645D
:10109D00FB70377F327E00121701D51FD93000202B
:1010AD00AB3CAD31AF3212155512172E12176A75B2
:1010BD002800752900C203D28C752BFFD20580083C
:0A10CD00C2A3C2A7C28CD206B20073
:1010D700D007D006D005D004D003D002D001D0006D
:0B10E700D0D0D082D083D0F0D0E03217
:1015AC00C2A7C2A3758902E4F58CF58AD288C2B8A9
:1015BC00D2B9F50B750C00750D31F50E750F007564
:0A15CC00103CFB7A0079320214385B
:1015260012176A1212FD120BAE7F0E121788754241
:1015360000754328120FC47F0C121788E4F542F594
:0F1546004312176AC203D2AFD2A9D28CD2A82205
:100BAE00C2AF1216BDAC06AD07EC12032A8F368EFD
:100BBE00358D348C3312176A75082AD508FDD2AFDD
:100BCE00AF36AE35AD34AC33E4FBFA7980783D12F6
:100BDE0001068F368E358D348C33AF4CAE4BAD4A0D
:100BEE00AC49AB36AA35A934A8331202AC600E401C
:100BFE000C85364C85354B85344A853349AF30AE3E
:100C0E002FAD2EAC2DAB36AA35A934A8331202ACBB
:100C1E00500C85363085352F85342E85332DAC32EC
:100C2E00EC12032FAB36AA35A934A8331202AC60EE
:100C3E00644062D201D204AC32EC12032FA804A994
:100C4E0005AA06AB07AF36AE35AD34AC3312001184
:100C5E00C004C005C006C007AC41E412032FA804AF
:100C6E00A905AA06AB07D007D006D005D0041202FC
:100C7E000FE4FBFA7980783F1200151203638F3769
:100C8E00E537D3940340037537037508151215D64F
:100C9E00D508FA8007C201C204E4F537AC31EC1274
:100CAE00032FAB36AA35A934A8331202AC500ED29C
:100CBE0002D2A37508151215FFD508FA22C2A3C2D7
:010CCE000223
:010CCF002202
:100F1D00E52C2441605B24E0607324F07003020F24
:100F2D00BB24706003020FC3300505120FC4C20548
:100F3D007FC2121788AF36AE35AD34AC337B007A35
:100F4D00007922750F057510011205AC7B007A0032
:100F5D0079221214CA7FCF1217887B007A0079226A
:100F6D00751301AF37120E677B007A0079220214D8
:100F7D00CA300505121650C2057F89121788D2078F
:100F8D001214F67FC9121788C2070214F630050530
:100F9D00121676C2053001097F88121788D2078094
:100FAD000A30020A7FC8121788C20712128730054D
:070FBD00051213E1C2052239
:0C177B00001FEF6007007E03DEFEDFF9B8
:01178700223F
:10169C00E4FDD295C2957F3C12177BD2957F0C123C
:1016AC00177BA295E433FDD2957F1812177BAF05FB
:0116BC00220B
:0216DB00AD0759
:1016DD007B08C2957F0112177BED1392957F051242
:0A16ED00177BD295EDC313FDDBE877
:0116F70022D0
:0A1581007FCC1216DB7FBE1216DBD2
:10158B007D08E4FCC2957F0112177BD295ECC31347
:10159B00FC3095034304807F0512177BDDE6AF0417
:0115AB00221D
:10176A0012169CEF700A7FCC1216DB7F441216DB2E
:01177A00224C
:1016BD00E4F9FCFBFA12169CEF6004E4FEFF221223
:0D16CD001581A90712158BEFFAE9AE02FF97
:0116DA0022ED
:10155500AC07AA03A90512169CEF701F7FCC1216C3
:10156500DB7F4E1216DBAF041216DBAF011216DB62
:0C157500EAC43354E0441FFF1216DB22CE
:101438008B088A09890A12169CEF703D12158112D1
:10144800158B12158BAB08AA09A90AEF12051512FC
:10145800158BAB0BAA0CA90DEF12051512158BAB4A
:101468000EAA0FA910EF120515AB0EAA0FA910129C
:0A14780004FCC413540712051522EA
:10172E0012169CEF700F7FCC1216DB7F481216DB61
:06173E007F0C12177B2254
:101744007580FFC292C290D291D292AF80EF20E70F
:03175400F2C2924C
:01175700226F
:0B178800EF6007C208F512121758228C
:07179E00D2088F1202175858
:10175800121744C291A2089290851280D29200C2B8
:021768009222CB
:100DA40057656C636F6D6520746F204141554353E3
:100DB400002020202020204E4F2E313320202020C0
:100DC4002000483A0020204C3A00543A00202046A3
:100DD400414E3A00486967686573743A20004C6F65
:100DE400776573743A20200041626F766520483A33
:100DF4000042656C6F77204C3A0054523A20002030
:100E040020204647533A2000566F6C756D653A2092
:100E14000048204C696D69743A20004C204C696D7F
:100E240069743A2000545265736F6C7574696F6EFF
:100E34003A200046476561722720537465703A2052
:100E44000052696E67746F6E653A202000566F6CAD
:100E5400756D653A00202020006D002E0073007E21
:030E64007F2020CC
:0916F800E54325E0FFE54233FE65
:10170100EF1FAA0670011E4A60097D8E1DED60F073
:031711000080F95C
:0117140022B2
:0614C4007B007A00792292
:1014CA008B0F8A108911AB0FAA10A9111204FC60A4
:1014DA001A0511E5117002051014F91204FCFF1225
:0C14EA00179EAF43AE4212170180DB22B8
:1012FD007F381217887F0C1217887F061217887F88
:10130D00011217887F901217887BFF7A0D79A4122E
:10131D0014CA7542007543C87FD01217887F071213
:10132D0017887BFF7A0D79B51214CA7F06121788BC
:10133D007508037F081217881216F87F0C1217888C
:10134D001216F8D508ED7508107F18121788AF43DF
:10135D00AE42121701D508F17F01121788E4F5424C
:02136D00F54346
:01136F00225B
:100FC4007F011217887BFF7A0D79C61214CA7B0041
:100FD4007A007922751303AF32120E671214C47BA0
:100FE400FF7A17799B1214CA7BFF7A0D79C9121400
:100FF400CA7B007A007922751303AF31120E67128F
:1010040014C47BFF7A17799B1214CA7FC012178805
:101014007BFF7A0D79CE1214CAAF36AE35AD34AC3F
:10102400337B007A007922750F057510011205AC27
:101034001214C47BFF7A17799B1214CA7BFF7A0DB2
:1010440079D11214CA7B007A007922751301AF3763
:0C105400120E677B007A0079220214CA99
:101650007F011217887BFF7A0D79D81214CAD2073E
:101660001214F67FC01217887BFF7A0D79E21214EC
:06167000CAC2070214F6D5
:101676007F011217887BFF7A0D79EC1214CAD20704
:101686001212877FC01217887BFF7A0D79F5121424
:06169600CAC20702128720
:1013E1007F011217887F011217887BFF7A0D79FE22
:1013F1001214CAE53C2430FF12179E7BFF7A0E7946
:10140100031214CAE5412430FF12179E7BFF7A179D
:10141100799B1214CA7FC01217887BFF7A0E790C50
:101421001214CAE4F508E508C3952A50097FFF1292
:06143100179E050880F083
:011437002292
:020A4C008F0910
:100A4E00780B7C007D007BFF7A0E79637E007F043D
:100A5E001204B4E509652B7003020BADE52BC3132D
:100A6E00FFE509C3136F7003020B547F0112178841
:100A7E00E509C31314605F147003020B12240260A5
:100A8E0003020B547F811217887BFF7A0E791512A1
:100A9E0014CA7B007A007922751303AF32120E67E7
:100AAE001214C47BFF7A17799B1214CA7FC11217D6
:100ABE00887BFF7A0E791F1214CA7B007A00792286
:100ACE00751303AF31120E671214C47BFF7A1779B8
:100ADE009B1214CA80707F811217887BFF7A0E7961
:100AEE00291214CAE53C2430FF12179E7FC112173B
:100AFE00887BFF7A0E79371214CAE5412430FF1233
:100B0E00179E80427F821217887BFF7A0E794512DC
:100B1E0014CAE5482430FF12179E7FC11217887B36
:100B2E00FF7A0E79511214CAE4F50AAD0AED339527
:100B3E00E0FCC3ED952A7480F86C9850097FFF1283
:100B4E00179E050A80E5E5095401F50A7F80121704
:100B5E0088E50A25E0240BF8E6FF12179E7F8F1218
:100B6E001788E50A25E0240CF8E6FF12179EE50A21
:100B7E0070047F0180027F008F0A7FC0121788E504
:100B8E000A25E0240BF8E6FF12179E7FCF12178876
:0F0B9E00E50A25E0240CF8E6FF12179E85092BC7
:010BAD002225
:10085300750B18C207E52B1460191470030209798C
:1008630014700302097114700302096E24046003F7
:10087300020A4BE52B6004AF318002AF328F09D5FA
:100883000B05750B18B207E52B60047FC080027F50
:1008930080EF440AFF1217883007087BFF7A0E792E
:1008A3005980147B007A007922751303AF09120E65
:1008B300677B007A0079221214CA1210F2EF1470C7
:1008C300030209482403601314604024FD70B0E55B
:1008D3002B60058509318003850932E52B60047F90
:1008E300C080027F80EF440AFF121788E52B600463
:1008F300AF318002AF327B007A0079227513031285
:100903000E677B007A0079220214CAD3E50964805A
:1009130094495003020882AF31EF3395E0FEEF2490
:1009230001FFE43EFEAD09ED3395E0FCD3ED9FEE10
:100933006480F8EC6480985007E52B70030208820A
:100943001509020882C3E509648094FF4003020885
:1009530082E53214C36480F8E5096480984007E5B2
:100963002B60030208820509020882854809E52BEA
:10097300B40303854109E52BB40203853C09E52B48
:10098300B404047F0E80027F0FE52B30E0047EC0A9
:1009930080027E80EE4FFF121788D50B05750B186A
:1009A300B207300705750A208006E5092430F50AE9
:1009B3007F10121788AF0A12179E1210F2EF1460FD
:1009C300572403602314604324FD70CEE52BB40445
:1009D300058509488012E52BB40305850941800884
:1009E300E52BB4020385093CE52BB40404AF48802E
:1009F3000BE52BB40304AF418002AF3C8F0A7F1099
:100A0300121788E50A2430FF02179ED3E509648094
:100A13009480408615098082E52B7E00B403047F11
:100A23000480027F00EF2403FFE43EFEAD09ED33B3
:100A330095E0FCC3ED9FEE6480F8EC64809840037E
:080A430002099D050902099D4D
:010A4B002288
:10171500AC3B7F0A7E00121701753B0FE5B0423BDB
:08172500E53B6C6002D322C316
:01172D002299
:1014820075B0FF753B0FE5B0423BE53B2441601070
:1014920024E0600C24F0600824F060132480701EA5
:1014A200E52C653B601B1217154016853B4522E56E
:1014B20045F4600D1217154008D20585452C754577
:0214C200FF2207
:10120E0075B0FF753B0FE5B0423BE53B24416010E6
:10121E0024E0600C24F0600824F0600D24807055EA
:10122E001217154053853B4522E545F4604A1217C7
:10123E00154045E5452441601A24E0602024F06005
:10124E002C2470702BC2AF7545FF1208537545FFE5
:10125E00D2AF22E52B04F508B406158010E52B70ED
:10126E0005750805800AE52B14F5088003E4F508DA
:08127E00AF08120A4C7545FF90
:011286002245
:1010F20075B0FF753B0FE5B0423B12171550037FE9
:101102000022E53B2481604F24A0600C24F060475C
:1011120024F0604824407062E545653B7036E54D39
:10112200700D054DE53BB4BF037F01227FFF220511
:101132004DE54DC394604011E54D540F700BE53BF6
:10114200B4BF037F01227FFF22E54DB4FF03754D3B
:101152005F7F0022E4F54D853B458021E545B4FFE4
:10116200037F0022E5452411600A2470700C754546
:10117200FF7FFE227545FF7F02227545FF7F002219
:1015D600053EE53EB4B421E4F53E053AE53AB414D9
:1015E60017E4F53A0546E546B43C0DE4F5460540F4
:0915F600E540B43C03E4F5402299
:1015FF00053FE53FB4B421E4F53F053DE53DB414A7
:10160F0017E4F53D0547E547B43C0DE4F5470544C0
:09161F00E544B43C03E4F5442267
:101287007B007A007922300715751302AF40120EE2
:10129700677B007A007925751302AF4680137513B3
:1012A70002AF44120E677B007A007925751302AFEF
:1012B70047120E671214C47BFF7A0E795D1214CAA7
:1012C7007B007A0079251214CA7BFF7A0E795F12A8
:1012D70014CA300704E53A8002E53DC313FF7B00DB
:1012E7007A007922751301120E671214C47BFF7AF4
:0612F7000E79610214CA29
:1014F60030070AAF4CAE4BAD4AAC498008AF30AEB0
:101506002FAD2EAC2D7B007A007922750F05751054
:10151600011205AC1214C47BFF7A17799B0214CA18
:0E05AC008F0B8E0A8D098C088B0C8A0D890E20
:1005BA00850F82758300E4120527751ECD751DCC43
:1005CA00751CCC751B3EE5107003020664E4FFFE41
:1005DA00FDFCAB0BAA0AA909A8081202AC7E0050BE
:1005EA00047F0180027F007C00EF2510FFEC3ECFE4
:1005FA002401CF3400FED3EF950F7480F86E984033
:10060A003AE4FFFEFDAB0BAA0AA909A8081202AC3C
:10061A0050047F0180027F008F12E4FFFEFDFCABD5
:10062A000BAA0AA909A8081202AC50047F01800289
:10063A007F00E50F14C39FF5108008C3E50F9510DE
:10064A0014F512AB0CAA0DA90EAF12EF3395E08F79
:10065A0082F583742E1205278003850F12851011E7
:10066A00AF111511EF601DAF1EAE1DAD1CAC1B7B8B
:10067A00CD7ACC79CC783D1201068F1E8E1D8D1C49
:10068A008C1B80DCE4FFFEFDFCAB0BAA0AA909A8BF
:10069A00081202ACAF0BAE0AAD09AC08AB1EAA1D1C
:1006AA00A91CA81B50291200118F0B8E0A8D098CC8
:1006BA0008120363AD07AC06C3E49DF514E49CF588
:1006CA0013EC12032AAB0BAA0AA909A808802A125A
:1006DA0000158F0B8E0A8D098C081203638E138FF7
:1006EA0014AC13AD14E412032AA804A905AA06AB94
:1006FA0007AF0BAE0AAD09AC081200118F1A8E199A
:10070A008D188C17E51204F511AD11ED3395E0FC47
:10071A00C3ED950F7480F86C985072AF1AAE19AD8C
:10072A0018AC17E4FBFA792078411201068F1A8E69
:10073A00198D188C171203637515008F16EF243064
:10074A00FFAB0CAA0DA90EE511FD3395E08D82F5DC
:10075A0083EF120527AF1AAE19AD18AC17C004C043
:10076A0005C006C007AC15AD16E412032AA804A9F1
:10077A0005AA06AB07D007D006D005D0041200118F
:10078A008F1A8E198D188C170511020713E512148A
:10079A00F511D3E511648094804040AE13AF147C08
:1007AA00007D0A120549ED2430FFAB0CAA0DA90EF3
:1007BA00E511FD3395E08D82F583EF120527AE131F
:1007CA00AF147C007D0A1205498E138F14E5144577
:1007DA0013700415118004151180B7E4FFFEFDFCA7
:1007EA00AB0BAA0AA909A8081202AC50047F2D80F3
:1007FA0021E5144513700AE512640160047F208024
:10080A0011AE13AF147C007D0A120549ED2430FFA6
:10081A00E43CAB0CAA0DA90EE511FD3395E08D82DF
:10082A00F583EF801EAF111511D3EF6480948040D9
:10083A0017AB0CAA0DA90EAF11EF3395E08F82F515
:08084A0083742012052780DDF4
:010852002283
:060E67008B108A118912B4
:100E6D00851382758300E4120527C3EF6480948097
:100E7D0050028001C39208E5137003020F1C300865
:100E8D00181513E5137003020F1C74012512F512CA
:100E9D00E43511F5116307FF0FEF800EE5136028A0
:100EAD00EF75F00A1204DAFF601E75F00A1204DA0B
:100EBD00AEF0EE2430AB10AA11A9121513851382D2
:100ECD0075830012052780D430082B74FF2512F589
:100EDD001274FF3511F511E513700BAB10AA11A9A2
:100EED0012742D120515AB10AA11A9128513827556
:100EFD008300742D8014E5136015AB10AA11A9128F
:0F0F0D001513851382758300742012052780E762
:010F1C0022B2
:0B179300015102A305460A8CDF430051
:10137000C100C105C106C183C104C101C102023857
:10138000000002280000014D00012C7F012BFF010D
:10139000327F0131C9043342A10000013700044902
:1013A000C25C0000042D43000000013E00013A0031
:1013B000014600014000013F00013D0001470001DE
:1013C0004400014102013C03014801012A070622B1
:1013D00020202020200002420000013B0F0145FF99
:10000E000203CFE86480F8E933E83360110460F04E
:10001E00ED33EC337009E8FCE9FDEAFEEBFF220458
:10002E0060DED3EB9FEA9EE99DE8C2E78CF0C2F753
:10003E0095F0400CE8CCF8E9CDF9EACEFAEBCFFB1F
:10004E0012039A85D0F05804700320D5B3E80470DB
:10005E00075002B2D50203D992D5EC0460F7E4CC76
:10006E00C0E0C398F8603B94186008400DD0E0FBE8
:10007E000203B1E4FBFAC9FC8028E830E406E4C9C7
:10008E00FBE4CAFCE830E305E4C9CACBFCE854073C
:10009E006010F8C3E913F9EA13FAEB13FBEC13FC47
:1000AE00D8F130F52FC3E49CFCEF9BFFEE9AFEEDEA
:1000BE0099FDD0E0FBEF4E4D4C701222DB03020394
:1000CE00D6EC2CFCEF33FFEE33FEED33FDED30E7D7
:1000DE00EB0203B1EF2BFFEE3AFEED39FDD0E0FB64
:1000EE0050130BBB00030203D9ED13FDEE13FEEF0D
:0800FE0013FFEC13FC0203B137
:10010600EC4D6011E8497017ED33EC3304600DE4F3
:10011600FCFFFEFD22E933E8330470F80203CF1238
:10012600039A58046009E4CC248150062850090239
:1001360003D92840030203D6C0E0EB4A7044B980D5
:1001460006D0E0FB0203C5EF4E701CBD8008EBFF36
:10015600EAFEE9FD80EBE98DF0A4FEE5F00201EF91
:10016600E9CDF9EAFEEBFFEF89F0A4FCE5F0CE89D4
:10017600F0A42EFFE435F0CD89F0A42DFEE435F091
:100186008067EF4E7005BD80D780C3EF8BF0A4ACBF
:10019600F0EE8BF0A42CFCE435F0F8EF8AF0A42CFA
:1001A600E5F038FCE433CB8DF0A42CFCE5F03BF80D
:1001B600EE8AF0A42CFCE5F038F8E433CF89F0A4FD
:1001C6002CFCE5F038CF3400CE89F0A42FFFE5F003
:1001D6003EFEE433C98DF0A42EFEE5F039CD8AF05B
:1001E600A42FFFE5F03EFEE43DFD33D0E0FB5007D3
:1001F6000BBB000F0203D9EC2CFCEF33FFEE33FEF2
:06020600ED33FD0203B11F
:10020C000203D9EC5D046005E8590470030203CFC6
:10021C0012039A580460F6EC4860F2EC7004FDFE90
:10022C00FF22C860DB2481C85009C39860025006C5
:10023C000203D69850CAF582E9294B4A7005AB8265
:10024C000203C575F0007C1A7880C3EF9BEE9AED23
:10025C0099400DC3EF9BFFEE9AFEED99FDE842F03D
:10026C00DC23ACF0D0E0FFD0E0FED0E0FDAB822090
:10027C00E7101BEB60BAEC2CFCEF33FFEE33FEED1A
:10028C0033FD0203B1E803F830E705C0F075F00068
:10029C00EF2FFFEE33FEED33FD40B830E7C280AAFE
:1002AC0074F8CC6480CCC86480C8F58204604FC3F9
:1002BC00EB9FF5F0EA9E42F0E99D42F0E89C45F098
:1002CC00603C501DE5825FFFE582D313CB5BCBF422
:1002DC002B5582FB50280ABA002409B9002008804B
:1002EC001DE5825BFBE582D313CF5FCFF4C3132FE5
:1002FC005582FF50090EBE00050DBD00010CC3EB6D
:10030C009FF5F0EA9E42F0E99D42F0E89C45F060D2
:09031C0007CC4820E701B3EC22F4
:1003250075F020800E75F010800575F0087D007E53
:10033500007F003392D530D50312059EEC33401073
:10034500EF33FFEE33FEED33FDEC33FCD5F0ED225C
:0E035500E5F0247EA2D513CC92E7CDCEFF2298
:10036300EDD2E7CD33EC3392D524814006E4FFFE92
:10037300FDFC22FCE4CFCECDCC24E0501174FF80F1
:10038300EDC3CC13CCCD13CDCE13CECF13CF04708E
:07039300F030D5DE02059EEB
:10039A00E9D2E7C933E833F892D5EDD2E7CD33ECA9
:0703AA0033FC5002B2D52222
:1003B100EC30E7100FBF000C0EBE00080DBD0004AD
:1003C1000BEB6014A2D5EB13FCED92E7FD2274FF59
:1003D100FCFDFEFF22E480F8A2D574FF13FC7D80B2
:0303E100E480EFC6
:10118E00021628E493A3F8E493A34003F68001F239
:10119E0008DFF48029E493A3F85407240CC8C33362
:1011AE00C4540F4420C8834004F456800146F6DF31
:1011BE00E4800B0102040810204080901370E47E3E
:1011CE00019360BCA3FF543F30E509541FFEE49326
:1011DE00A360010ECF54C025E060A840B8E493A3ED
:1011EE00FAE493A3F8E493A3C8C582C8CAC583CA18
:1011FE00F0A3C8C582C8CAC583CADFE9DEE780BED0
:0113E000000C
:1003E400E709F608DFFA8046E709F208DFFA803EFB
:1003F40088828C83E709F0A3DFFA8032E309F608E8
:10040400DFFA8078E309F208DFFA807088828C834F
:10041400E309F0A3DFFA806489828A83E0A3F60803
:10042400DFFA805889828A83E0A3F208DFFA804CDD
:1004340080D280FA80C680D4806980F280338010B4
:1004440080A680EA809A80A880DA80E280CA80331D
:1004540089828A83ECFAE493A3C8C582C8CCC58395
:10046400CCF0A3C8C582C8CCC583CCDFE9DEE78065
:100474000D89828A83E493A3F608DFF9ECFAA9F0E4
:10048400EDFB2289828A83ECFAE0A3C8C582C8CC3A
:10049400C583CCF0A3C8C582C8CCC583CCDFEADE53
:1004A400E880DB89828A83E493A3F208DFF980CCB5
:1004B40088F0EF60010E4E60C388F0ED2402B404AE
:1004C4000050B9F582EB2402B4040050AF23234555
:0604D40082239004347342
:1004DA00C2D530F707B2D563F0FF05F030E70CB2AA
:1004EA00D5F4048463F0FF05F080018430D502F46A
:0204FA000422DA
:1004FC00BB010689828A83E0225002E722BBFE02FE
:09050C00E32289828A83E4932230
:10051500BB010689828A83F0225002F722BBFE01C5
:02052500F322BF
:10052700F8BB010DE58229F582E5833AF583E8F00A
:10053700225006E92582C8F622BBFE05E92582C8B6
:02054700F2229E
:10054900BC000BBE0029EF8DF084FFADF022E4CC96
:10055900F875F008EF2FFFEE33FEEC33FCEE9DEC5F
:10056900984005FCEE9DFE0FD5F0E9E4CEFD22EDA5
:10057900F8F5F0EE8420D21CFEADF075F008EF2FEF
:10058900FFED33FD4007985006D5F0F222C398FDE0
:050599000FD5F0EA227D
:0E059E00C3E49FFFE49EFEE49DFDE49CFC226E
:00000001FF
