:03000000020F6587
:0C0F6500787FE4F6D8FD75815D020FACCA
:100BE6001213871212EF30000F300307C203E4FF1F
:100BF6001209A812118280EE30014A7B7F7D027FA6
:100C06000E1213B1750B00750C00750D3A750E00BA
:100C1600750F0075104A7B007A00793B121263E566
:100C2600352441601124E0601224F06013247070B2
:100C360012120EC9800D1211FB8008120B0A8003D6
:100C4600120006C201E53524416013244070597F25
:100C5600C2121525AF40AE3FAD3EAC3D80327F8916
:100C6600121525AF59AE58AD57AC567B007A0079B0
:100C76002D750F0575100112050C7B007A00792D74
:100C86001213307FC9121525AF39AE38AD37AC36E1
:100C96007B007A00792D750F0575100112050C7B06
:0E0CA600007A00792D1213301212AD020BEC01
:03000B00020CB430
:100CB400C0E0C0F0C083C082C0D075D000C000C006
:100CC40001C002C003C004C005C006C007E54A2530
:100CD400E02441F8E6FE08E6FF055CE55C700205E9
:100CE4005BC39FE55B9E4072755B00755C001214EC
:100CF4003AAC06AD07EC12028A8F408E3F8D3E8CD3
:100D04003DE4FBFA7980783D1201068F408E3F8DD9
:100D14003E8C3DAF59AE58AD57AC56AB40AA3FA937
:100D24003EA83D12020C600E400C854059853F5888
:100D3400853E57853D56AF39AE38AD37AC36AB40FE
:100D4400AA3FA93EA83D12020C500C854039853FAC
:100D540038853E37853D36121514D007D006D005A8
:100D6400D004D003D002D001D000D0D0D082D08320
:050D7400D0F0D0E032D8
:03000300020FF1F8
:100FF100C0E0C0F0C083C082C0D075D000C000C0C6
:0D10010001C002C003C004C005C006C00746
:10100E00751F1475B0FF7F03E5B04207EF64FB60F8
:10101E00127F0A7E001214EE7F03E5B04207EF64E2
:10102E00FB70317F327E001214EED51FD930001EB8
:10103E00AB4AAD3AAF3B1213B1121490755B00750B
:10104E005C00D28C1215147534FFD2018004C28C50
:04105E00D203B20007
:10106200D007D006D005D004D003D002D001D000E2
:0B107200D0D0D082D083D0F0D0E0328C
:10138700758902E4F58CF58AD288D28AC2B8C2BAC6
:10139700D2B9F50B750C00750D3AF50E750F007582
:0A13A700104AFB7A00793B02126342
:1012EF0012151412141BD2AFD2A9D28CE54A25E0E5
:1012FF002441F8E6FE08E624FBF55CEE34FFF55BCF
:10130F007F0E121525755000755128120EC97F0CCE
:0B131F00121525E4F550F551D2A8226C
:1013D7007FC81213ED7FC81213ED7FC81213ED7F7C
:0613E700C81213ED7FC8DF
:0C13ED00001FEF6007007E03DEFEDFF94A
:0113F90022D1
:1013FA00E4FDD295C2957F3C1213EDD2957F0C1273
:10140A0013EDA295E433FDD2957F181213EDAF05C3
:01141A0022AF
:02145800AD07DE
:10145A007B08C2957F011213EDED1392957F051259
:0A146A0013EDD295EDC313FDDBE88E
:011474002255
:0A135C007FCC1214587FBE12145803
:101366007D08E4FCC2957F011213EDD295ECC31300
:10137600FC3095034304807F051213EDDDE6AF04D0
:011386002244
:101514001213FAEF700A7FCC1214587F4412145835
:0115240022A4
:10143A00E4F9FCFBFA1213FAEF6004E4FEFF22124D
:0D144A00135CA907121366EFFAE9AE02FF6A
:011457002272
:1013B100AC07AA03A9051213FAEF70197FCC121416
:1013C100587F4E121458AF04121458AF011214581A
:0613D100AF0212145822C5
:101263008B088A09890A1213FAEF703D12135C1274
:101273001366121366AB08AA09A90AEF12047512C2
:101283001366AB0BAA0CA90DEF120475121366AB10
:101293000EAA0FA910EF120475AB0EAA0FA9101214
:0A12A300045CC41354071204752202
:101490001213FAEF70127FCC1214587F48121458AE
:0914A000D2951213D71213D722C2
:101475001213FAEF70147FCC1214587FB812145857
:0A1485008003EF700512136680F873
:01148F00223A
:1014DA007580FFC292C290D291D292AF80EF20E77C
:0314EA00F2C292B9
:0114ED0022DC
:0B152500EF6007C205F512121502224C
:07153000D2058F1202150223
:101502001214DAC291A2059290851280D29200C280
:02151200922223
:10107D00483A0020204C3A00543A00202046414E78
:10108D003A00486967686573743A20004C6F77655C
:10109D0073743A202000482054696D653A20006D24
:1010AD00002E0073004C2054696D653A20004820D5
:1010BD004C696D69743A20004C204C696D69743A25
:1010CD002000545265736F6C7574696F6E3A200011
:1010DD0046476561722720537465703A2000526946
:1010ED006E67746F6E653A202000566F6C756D6576
:0A10FD003A00202020007E7F202012
:1014EE00EF1FAA0670011E4A60097D8E1DED60F089
:0314FE000080F972
:0115010022C7
:06132A007B007A0079212E
:101330008B0F8A108911AB0FAA10A91112045C60DF
:101340001A0511E5117002051014F912045CFF1260
:0C1350001530AF51AE501214EE80DB22BD
:1014C2008F5DAF5D155DEF600E7F18121525AF5170
:0814D200AE501214EE80EB2273
:10141B007F381215257F0C1215257F061215257F97
:0E142B00011215257F01121525E4F550F5512B
:011439002290
:100EC9007F011215257BFF7A10797D1213307B0083
:100ED9007A007929751303AF3B120D797B007A00EB
:100EE900792912133012132A7BFF7A107980121391
:100EF900307B007A007929751303AF3A120D797B9B
:100F0900007A00792912133012132A7FC01215258D
:100F19007BFF7A107985121330AF40AE3FAD3EACFE
:100F29003D7B007A00792D750F0575100112050CAE
:100F39007B007A00792D12133012132A7BFF7A1065
:100F490079881213307B007A007924751301AF3C3C
:0C0F5900120D797B007A0079240213301D
:1011FB007F011215257BFF7A10798F121330AF59AF
:10120B00AE58AD57AC567B007A00792D750F05752E
:10121B00100112050C7B007A00792D12133012137A
:10122B002A7FC01215257BFF7A107999121330AFE4
:10123B0039AE38AD37AC367B007A00792D750F059A
:10124B0075100112050C7B007A00792D1213307B7F
:08125B00007A00792102133032
:100B0A007F011215257BFF7A1079A31213307B001F
:100B1A007A007926751302AF4D120D797B007A009F
:100B2A0079261213307BFF7A1079AC1213307B00CE
:100B3A007A007926751302AF53120D797B007A0079
:100B4A0079261213307BFF7A1079AE1213307B00AC
:100B5A007A007924751301AF49120D797B007A0066
:100B6A0079241213307BFF7A1079B01213307FC0C8
:100B7A001215257BFF7A1079B21213307B007A00A6
:100B8A007926751302AF4F120D797B007A00792608
:100B9A001213307BFF7A1079AC1213307B007A0083
:100BAA007926751302AF54120D797B007A007926E3
:100BBA001213307BFF7A1079AE1213307B007A0061
:100BCA007924751301AF4C120D797B007A007924D0
:0C0BDA001213307BFF7A1079B002133048
:050006007F0102152539
:0209A8008F09B5
:1009AA00780B7C007D007BFF7A1179037E007F043F
:1009BA00120414E50965347003020B09E534C31304
:1009CA00FFE509C3136F7003020AB07F01121525F0
:1009DA00E509C31314605F147003020A6E240260EF
:1009EA0003020AB07F811215257BFF7A1079BB12A8
:1009FA0013307B007A007929751303AF3B120D7906
:100A0A007B007A00792912133012132A7FC112153A
:100A1A00257BFF7A1079C51213307B007A00792979
:100A2A00751303AF3A120D797B007A0079291213F4
:100A3A003012132A80707F811215257BFF7A107974
:100A4A00CF121330E54A2430FF1215307FC1121538
:100A5A00257BFF7A1079DD121330E54E2430FF1220
:100A6A00153080427F821215257BFF7A1079EB12AE
:100A7A001330E5552430FF1215307FC11215257B3E
:100A8A00FF7A1079F7121330E4F50AAD0AED3395BF
:100A9A00E0FCC3ED95337480F86C9850097FFF121F
:100AAA001530050A80E5E5095401F50A7F8012151B
:100ABA0025E50A25E0240BF8E6FF1215307F8F1290
:100ACA001525E50A25E0240CF8E6FF121530E50A9B
:100ADA0070047F0180027F008F0A7FC0121525E50E
:100AEA000A25E0240BF8E6FF1215307FCF121525F0
:0F0AFA00E50A25E0240CF8E6FF121530850934D3
:010B090022C9
:1007A900750B18C204E5341460191470030208CFDC
:1007B9001470030208C71470030208C424046003F8
:1007C9000209A7E5346004AF3A8002AF3B8F09D52F
:1007D9000B05750B18B204E53460047FC080027FF5
:1007E90080EF440AFF1215253004087BFF7A10793F
:1007F900FF80147B007A007929751303AF09120D64
:10080900797B007A007929121330120E25EF1470C2
:100819000302089E2403601314604024FD70B0E5B0
:1008290034600585093A800385093BE53460047F16
:10083900C080027F80EF440AFF121525E534600469
:10084900AF3A8002AF3B7B007A0079297513031216
:100859000D797B007A007929021330D3E509648088
:10086900944950030207D8AF3AEF3395E0FEEF24DD
:1008790001FFE43EFEAD09ED3395E0FCD3ED9FEEBB
:100889006480F8EC6480985007E53470030207D857
:1008990015090207D8C3E509648094FF40030207DC
:1008A900D8E53B14C36480F8E5096480984007E5FE
:1008B9003460030207D805090207D8855509E534CC
:1008C900B40303854E09E534B40203854A09E534C6
:1008D900B404047F0E80027F0FE53430E0047EC04B
:1008E90080027E80EE4FFF121525D50B05750B187A
:1008F900B204300405750A208006E5092430F50A9A
:100909007F10121525AF0A121530120E25EF14604B
:10091900572403602314604324FD70CEE534B404E6
:10092900058509558012E534B4030585094E80080B
:10093900E534B4020385094AE534B40404AF5580AB
:100949000BE534B40304AF4E8002AF4A8F0A7F101F
:10095900121525E50A2430FF021530D3E509648014
:100969009480408615098082E5342403FFE433FE30
:10097900AD09ED3395E0FCC3ED9FEE6480F8EC64BE
:10098900809850047F0180027F00BF03047F0480A8
:0E099900027F00EF70030208F305090208F365
:0109A700222D
:1014A900AC4B7F0A7E001214EE754B0FE5B0424B30
:0814B900E54B6C6002D322C375
:0114C1002208
:1012AD0075B0FF754B0FE5B0424BE54B2441601017
:1012BD0024E0600C24F0600824F060132480701E7C
:1012CD00E535654B601B1214A94016854B5222E57E
:1012DD0052F4600D1214A94008D201855235755291
:0212ED00FF22DE
:1011820075B0FF754B0FE5B0424BE54B2441601043
:1011920024E0600C24F0600824F0600D2480705577
:1011A2001214A94053854B5222E552F4604A12149C
:1011B200A94045E5522441601A24E0602024F060F1
:1011C2002C2470702BC2AF7552FF1207A97552FF03
:1011D200D2AF22E53404F508B406158010E5347068
:1011E20005750805800AE53414F5088003E4F5085E
:0811F200AF081209A87552FFB5
:0111FA0022D2
:100E250075B0FF754B0FE5B0424B1214A950037F07
:100E35000022E54B2481606324A0600C24F0605BF4
:100E450024F0605C24407076E552654B7048E55BA4
:100E5500455A7013055BE55B7002055AE54BB4BF57
:100E6500037F01227FFF22055BE55B7002055A24A3
:100E7500B0FFE55A34FFFED3EF9400EE6480948012
:100E85004011E55B540F700BE54BB4BF037F0122A6
:100E95007FFF227F0022E4F55AF55B854B528021C6
:100EA500E552B4FF037F0022E5522411600A247045
:100EB500700C7552FF7FFE227552FF7F022275521C
:040EC500FF7F002289
:0E050C008F0B8E0A8D098C088B0C8A0D890EC0
:10051A00751ECD751DCC751CCC751B3EE510700380
:10052A000205BAE4FFFEFDFCAB0BAA0AA909A8085A
:10053A0012020C7E0050047F0180027F007C00EFD3
:10054A002510FFEC3ECF2401CF3400FED3EF950FE8
:10055A007480F86E98403AE4FFFEFDAB0BAA0AA934
:10056A0009A80812020C50047F0180027F008F1232
:10057A00E4FFFEFDFCAB0BAA0AA909A80812020CAB
:10058A0050047F0180027F00E50F14C39FF510809D
:10059A0008C3E50F951014F512AB0CAA0DA90EAFFE
:1005AA0012EF3395E08F82F583742E12048780034D
:1005BA00850F12851011AF111511EF601DAF1EAE18
:1005CA001DAD1CAC1B7BCD7ACC79CC783D120106D3
:1005DA008F1E8E1D8D1C8C1B80DCE4FFFEFDFCAB88
:1005EA000BAA0AA909A80812020CAF0BAE0AAD0998
:1005FA00AC08AB1EAA1DA91CA81B50291200118FFA
:10060A000B8E0A8D098C081202C3AD07AC06C3E42F
:10061A009DF514E49CF513EC12028AAB0BAA0AA905
:10062A0009A808802A1200158F0B8E0A8D098C08DA
:10063A001202C38E138F14AC13AD14E412028AA8EB
:10064A0004A905AA06AB07AF0BAE0AAD09AC08129E
:10065A0000118F1A8E198D188C17E51204F511AD39
:10066A0011ED3395E0FCC3ED950F7480F86C98504A
:10067A0072AF1AAE19AD18AC17E4FBFA79207841BB
:10068A001201068F1A8E198D188C171202C375154E
:10069A00008F16EF2430FFAB0CAA0DA90EE511FD51
:1006AA003395E08D82F583EF120487AF1AAE19AD48
:1006BA0018AC17C004C005C006C007AC15AD16E4D7
:1006CA0012028AA804A905AA06AB07D007D006D049
:1006DA0005D0041200118F1A8E198D188C17051166
:1006EA00020669E51214F511D3E51164809480407D
:1006FA0040AE13AF147C007D0A1204A9ED2430FF2A
:10070A00AB0CAA0DA90EE511FD3395E08D82F58398
:10071A00EF120487AE13AF147C007D0A1204A98E6F
:10072A00138F14E5144513700415118004151180F4
:10073A00B7E4FFFEFDFCAB0BAA0AA909A80812023E
:10074A000C50047F2D8021E5144513700AE51264CC
:10075A000160047F208011AE13AF147C007D0A1261
:10076A0004A9ED2430FFE43CAB0CAA0DA90EE51157
:10077A00FD3395E08D82F583EF801EAF111511D3FD
:10078A00EF648094804017AB0CAA0DA90EAF11EF4D
:0E079A003395E08F82F583742012048780DD92
:0107A800222E
:060D79008B108A118912A3
:100D7F00C3EF6480948050028001C39205E5137025
:100D8F0003020E243005181513E5137003020E2409
:100D9F0074012512F512E43511F5116307FF0FEFFA
:100DAF00800EE5136028EF75F00A12043AFF601EFB
:100DBF0075F00A12043AAEF0EE2430AB10AA11A966
:100DCF0012151385138275830012048780D43005A2
:100DDF002B74FF2512F51274FF3511F511E5137001
:100DEF000BAB10AA11A912742D120475AB10AA1116
:100DFF00A912851382758300742D8014E513601575
:100E0F00AB10AA11A91215138513827583007420D4
:050E1F0012048780E7CA
:010E240022AB
:10110700C100C1020321DF4300022420000326207F
:101117002000042920202000062D20202020200048
:1011270002500000013B80013AC9043D42A1000082
:10113700013C000456C25C00000436430000000175
:101147004900015300014D00014C00015400014FBB
:1011570000014E00014B0F0152FF01357FC1010114
:101167004A030841015102A305460A8C01550101B2
:0A11770033070134FFC103015A00E1
:10000E0002032FE86480F8E933E83360110460F0EE
:10001E00ED33EC337009E8FCE9FDEAFEEBFF220458
:10002E0060DED3EB9FEA9EE99DE8C2E78CF0C2F753
:10003E0095F0400CE8CCF8E9CDF9EACEFAEBCFFB1F
:10004E001202FA85D0F05804700320D5B3E804707C
:10005E00075002B2D502033992D5EC0460F7E4CC16
:10006E00C0E0C398F8603B94186008400DD0E0FBE8
:10007E00020311E4FBFAC9FC8028E830E406E4C967
:10008E00FBE4CAFCE830E305E4C9CACBFCE854073C
:10009E006010F8C3E913F9EA13FAEB13FBEC13FC47
:1000AE00D8F130F52FC3E49CFCEF9BFFEE9AFEEDEA
:1000BE0099FDD0E0FBEF4E4D4C701222DB03020394
:1000CE0036EC2CFCEF33FFEE33FEED33FDED30E777
:1000DE00EB020311EF2BFFEE3AFEED39FDD0E0FB04
:1000EE0050130BBB0003020339ED13FDEE13FEEFAD
:0800FE0013FFEC13FC020311D7
:10010600EC4D6011E8497017ED33EC3304600DE4F3
:10011600FCFFFEFD22E933E8330470F802032F12D8
:1001260002FA58046009E4CC2481500628500902DA
:100136000339284003020336C0E0EB4A7044B98015
:1001460006D0E0FB020325EF4E701CBD8008EBFFD6
:10015600EAFEE9FD80EBE98DF0A4FEE5F00201EF91
:10016600E9CDF9EAFEEBFFEF89F0A4FCE5F0CE89D4
:10017600F0A42EFFE435F0CD89F0A42DFEE435F091
:100186008067EF4E7005BD80D780C3EF8BF0A4ACBF
:10019600F0EE8BF0A42CFCE435F0F8EF8AF0A42CFA
:1001A600E5F038FCE433CB8DF0A42CFCE5F03BF80D
:1001B600EE8AF0A42CFCE5F038F8E433CF89F0A4FD
:1001C6002CFCE5F038CF3400CE89F0A42FFFE5F003
:1001D6003EFEE433C98DF0A42EFEE5F039CD8AF05B
:1001E600A42FFFE5F03EFEE43DFD33D0E0FB5007D3
:1001F6000BBB000F020339EC2CFCEF33FFEE33FE92
:06020600ED33FD020311BF
:10020C0074F8CC6480CCC86480C8F58204604FC399
:10021C00EB9FF5F0EA9E42F0E99D42F0E89C45F038
:10022C00603C501DE5825FFFE582D313CB5BCBF4C2
:10023C002B5582FB50280ABA002409B900200880EB
:10024C001DE5825BFBE582D313CF5FCFF4C3132F85
:10025C005582FF50090EBE00050DBD00010CC3EB0D
:10026C009FF5F0EA9E42F0E99D42F0E89C45F06073
:09027C0007CC4820E701B3EC2295
:1002850075F020800E75F010800575F0087D007EF4
:10029500007F003392D530D5031204FEEC334010B5
:1002A500EF33FFEE33FEED33FDEC33FCD5F0ED22FD
:0E02B500E5F0247EA2D513CC92E7CDCEFF2239
:1002C300EDD2E7CD33EC3392D524814006E4FFFE33
:1002D300FDFC22FCE4CFCECDCC24E0501174FF8092
:1002E300EDC3CC13CCCD13CDCE13CECF13CF04702F
:0702F300F030D5DE0204FE2D
:1002FA00E9D2E7C933E833F892D5EDD2E7CD33EC4A
:07030A0033FC5002B2D522C2
:10031100EC30E7100FBF000C0EBE00080DBD00044D
:100321000BEB6014A2D5EB13FCED92E7FD2274FFF9
:10033100FCFDFEFF22E480F8A2D574FF13FC7D8052
:03034100E480EF66
:100F7100020BE6E493A3F8E493A34003F68001F2A5
:100F810008DFF48029E493A3F85407240CC8C33381
:100F9100C4540F4420C8834004F456800146F6DF50
:100FA100E4800B0102040810204080901107E47EC8
:100FB100019360BCA3FF543F30E509541FFEE49345
:100FC100A360010ECF54C025E060A840B8E493A30C
:100FD100FAE493A3F8E493A3C8C582C8CAC583CA37
:100FE100F0A3C8C582C8CAC583CADFE9DEE780BEEF
:01118100006D
:10034400E709F608DFFA8046E709F208DFFA803E9B
:1003540088828C83E709F0A3DFFA8032E309F60888
:10036400DFFA8078E309F208DFFA807088828C83F0
:10037400E309F0A3DFFA806489828A83E0A3F608A4
:10038400DFFA805889828A83E0A3F208DFFA804C7E
:1003940080D280FA80C680D4806980F28033801055
:1003A40080A680EA809A80A880DA80E280CA8033BE
:1003B40089828A83ECFAE493A3C8C582C8CCC58336
:1003C400CCF0A3C8C582C8CCC583CCDFE9DEE78006
:1003D4000D89828A83E493A3F608DFF9ECFAA9F085
:1003E400EDFB2289828A83ECFAE0A3C8C582C8CCDB
:1003F400C583CCF0A3C8C582C8CCC583CCDFEADEF4
:10040400E880DB89828A83E493A3F208DFF980CC55
:1004140088F0EF60010E4E60C388F0ED2402B4044E
:100424000050B9F582EB2402B4040050AF232345F5
:0604340082239003947383
:10043A00C2D530F707B2D563F0FF05F030E70CB24A
:10044A00D5F4048463F0FF05F080018430D502F40A
:02045A0004227A
:10045C00BB010689828A83E0225002E722BBFE029E
:09046C00E32289828A83E49322D1
:10047500BB010689828A83F0225002F722BBFE0166
:02048500F32260
:10048700F8BB010DE58229F582E5833AF583E8F0AB
:10049700225006E92582C8F622BBFE05E92582C857
:0204A700F2223F
:1004A900BC000BBE0029EF8DF084FFADF022E4CC37
:1004B900F875F008EF2FFFEE33FEEC33FCEE9DEC00
:1004C900984005FCEE9DFE0FD5F0E9E4CEFD22ED46
:1004D900F8F5F0EE8420D21CFEADF075F008EF2F90
:1004E900FFED33FD4007985006D5F0F222C398FD81
:0504F9000FD5F0EA221E
:0E04FE00C3E49FFFE49EFEE49DFDE49CFC220F
:00000001FF
