:0300000002128465
:0C128400787FE4F6D8FD7581DB0212CB08
:0B1AE400015102A305460A8CDF4300FD
:10131000C100C106C107C184C105C101C102C10329
:10132000C1080239000002280000014D00012D7F94
:10133000012BFF01337F0132C9043442A1000001B7
:1013400038000449C25C0000042E42FE0000013F48
:1013500000013B00014700014100014000013E0047
:10136000014800014500014202013D03012C010139
:101370002A07062220202020200002430000013CF2
:071380000F0146FF015C00B4
:101757001216761217F630000F300707C207E4FF9C
:10176700120AB512140680EE300812C2087B007AFE
:1017770000795C750D01E4FD7FA01215C4300405E6
:0D178700120C00C20412101912171580C9AF
:03000B00020D22C1
:100D2200C0E0C0F0C083C082C0D075D000C000C097
:100D320001C002C003C004C005C006C00720042CC5
:100D420075F002E53DA424E4F582E5F0341AF5835A
:100D52000529E52970020528FFD37401939FE493C6
:100D620095285008752800752900D20430055A05C7
:100D72003AE53A70020539C394A0E5399405403A40
:100D8200E53A94D8E53994094021E53A9410E539D9
:100D9200940E4008753900753A00802FE538C394E7
:100DA200034003D38001C392A78020E538C3940295
:100DB2004003D38001C392A78011E538C394014058
:100DC20003D38001C392A78002C2A7300105121883
:100DD2007C80063002031218A5D007D006D005D0B9
:100DE20004D003D002D001D000D0D0D082D083D0A2
:040DF200F0D0E0322B
:03000300020F6E7B
:100F6E00C0E0C0F0C083C082C0D075D000C000C049
:0D0F7E0001C002C003C004C005C006C007CA
:100F8B00751F1475B0FF7F03E5B04207EF64FB607C
:100F9B00127F0A7E001219867F03E5B04207EF64C9
:100FAB00FB70507F327E00121986D51FD930003965
:100FBB00AB3DAD32AF33121825121A38785C76FF81
:100FCB00E52C33333354F8FFE542C43354E04F453B
:100FDB002A56F6D208121A74752800752900C20415
:100FEB00D28C752BFFD2068008C2A3C2A7C28CD2AB
:030FFB0007B2003A
:100FFE00D007D006D005D004D003D002D001D00047
:0B100E00D0D0D082D083D0F0D0E032F0
:03001B00020006DA
:0100060032C7
:10167600C2A7C2A3758902E4F58CF58AD288C2B8DE
:10168600D2B9F50B750C00750D32F50E750F007598
:10169600103DFB7A0079331216CB121ACC7B007AF6
:1016A60000795C750D01E4FD7FA012138C785CE671
:1016B600FF5407F52AEF1313135403F52CE6C4134E
:0516C6005403F542226F
:1017F600121A741214F5120C007F0E121AEF7543AA
:10180600007544281210C07F0C121AEFE4F543F558
:0F18160044121A74C204D2AFD2A9D28CD2A82223
:100C0000C2AF12199BAC06AD07EC12033A8F378EB8
:100C1000368D358C34121A74750823D508FDD2AF81
:100C2000AF37AE36AD35AC34E4FBFA7980783D129F
:100C300001168F378E368D358C34AF4CAE4BAD4AA6
:100C4000AC49AB37AA36A935A8341202BC600E40B5
:100C50000C85374C85364B85354A853449AF31AEE6
:100C600030AD2FAC2EAB37AA36A935A8341202BC52
:100C7000500C85373185363085352F85342EAC3391
:100C8000EC12033FAB37AA36A935A8341202BC6078
:100C9000644062D201D205AC33EC12033FA804A930
:100CA00005AA06AB07AF37AE36AD35AC341200211E
:100CB000C004C005C006C007AC42E412033FA8044C
:100CC000A905AA06AB07D007D006D005D0041202AA
:100CD0001FE4FBFA7980783F1200251203738F38E6
:100CE000E538D39403400375380375081712187C50
:100CF000D508FA8007C201C205E4F538AC32EC121F
:100D0000033FAB37AA36A935A8341202BC500ED225
:100D100002D2A37508151218A5D508FA22C2A3C2DB
:010D200002D0
:010D210022AF
:10101900E52D2441605B24E0607324F07003021025
:10102900B7247060030210BF3006051210C0C20653
:101039007FC2121AEFAF37AE36AD35AC347B007ACA
:10104900007922750F057510011205BC7B007A0025
:10105900792212179A7FCF121AEF7B007A00792230
:10106900751201AF38120EB87B007A007922021787
:101079009A3006051218CEC2067F89121AEFD209D4
:101089001217C67FC9121AEFC2090217C630060520
:101099001218F4C2063001097F88121AEFD20980AA
:1010A9000A30020A7FC8121AEFC20912147F3006E9
:0710B9000512161FC20622FA
:100DF60057656C636F6D6520746F20414155435391
:100E0600002020202020204E4F2E3133202020206D
:100E16002000483A0020204C3A00543A0020204650
:100E2600414E3A00486967686573743A20004C6F12
:100E3600776573743A20200041626F766520483AE0
:100E46000042656C6F77204C3A0054523A200020DD
:100E560020204647533A2000617564696F3A2000A6
:100E660048204C696D69743A20004C204C696D69C4
:100E7600743A2000545265736F6C7574696F6E3ADC
:100E8600200046476561722720537465703A20003A
:100E960072696E67746F6E653A20200041756469E9
:100EA6006F3A2000202020006D002E0073007E7F08
:020EB6002020FA
:09197D00E54425E0FFE54333FEDB
:10198600EF1FAA0670011E4A600A7D7BAC051DEC9E
:0419960060EE80F887
:01199A00222A
:061794007B007A007922BF
:10179A008B0E8A0F8910AB0EAA0FA91012050C60C6
:1017AA001A0510E5107002050F14F912050CFF1244
:0C17BA001B02AF44AE4312198680DB22F4
:1014F5007F38121AEF7F0C121AEF7F06121AEF7F50
:1015050001121AEF7F90121AEF7BFF7A0D79F6120E
:10151500179A7543007544C87FD0121AEF7F0712DA
:101525001AEF7BFF7A0E790712179A7F06121AEFC8
:101535007508037F08121AEF12197D7F0C121AEF36
:1015450012197DD508ED7508107F18121AEFAF44F2
:10155500AE43121986D508F17F01121AEFE4F5435F
:02156500F5444B
:011567002261
:1010C0007F01121AEF7BFF7A0E791812179A7B00B4
:1010D0007A007922751203AF33120EB81217947B7F
:1010E000FF7A1A79EC12179A7BFF7A0E791B121786
:1010F0009A7B007A007922751203AF32120EB81271
:1011000017947BFF7A1A79EC12179A7FC0121AEFA4
:101110007BFF7A0E792012179AAF37AE36AD35AC19
:10112000347B007A007922750F057510011205BC19
:101130001217947BFF7A1A79EC12179A7BFF7A0EBA
:10114000792312179A7B007A007922751201AF3841
:0C115000120EB87B007A00792202179A78
:1018CE007F01121AEF7BFF7A0E792A12179AD2092C
:1018DE001217C67FC0121AEF7BFF7A0E79341217D9
:0618EE009AC2090217C6B0
:1018F4007F01121AEF7BFF7A0E793E12179AD209F2
:1019040012147F7FC0121AEF7BFF7A0E79471217E9
:061914009AC20902147FD3
:10161F007F01121AEF7F01121AEF7BFF7A0E7950BA
:10162F0012179AE53D2430FF121B027BFF7A0E79C9
:10163F005512179AE5422430FF121B027BFF7A1ACC
:10164F0079EC12179A7FC0121AEF7BFF7A0E795E30
:10165F0012179AE4F508E508C3952A50097FFF127F
:06166F001B02050880F0DB
:011675002252
:020AB5008F09A7
:100AB700780A7C007D007BFF7A0E79B47E007F0484
:100AC7001204C4E509652B7003020BFFE52BC31362
:100AD700FFE509C3136F7003020BA17F01121AEF21
:100AE700E509C31314605F147003020B75240260D9
:100AF70003020BA17F81121AEF7BFF7A0E79661230
:100B0700179A7B007A007922751203AF33120EB859
:100B17001217947BFF7A1A79EC12179A7FC1121A6F
:100B2700EF7BFF7A0E797012179A7B007A00792291
:100B3700751203AF32120EB81217947BFF7A1A7927
:100B4700EC12179A80547F81121AEF7BFF7A0E7985
:100B57007A12179AE53D2430FF121B027FC1121A41
:100B6700EF7BFF7A0E798812179AE54280267F82FB
:100B7700121AEF7BFF7A0E799612179AE52C24301A
:100B8700FF121B027FC4121AEF7BFF7A0E79A212A3
:100B9700179AE52A2430FF121B02E5091392097FF1
:100BA70080121AEFA209E43325E0FF740A2FF8E652
:100BB700FF121B027F8F121AEFA209E43325E0FF11
:100BC700740B2FF8E6FF121B02B2097FC0121AEF4F
:100BD700A209E43325E0FF740A2FF8E6FF121B028F
:100BE7007FCF121AEFA209E43325E0FF740B2FF829
:080BF700E6FF121B0285092B29
:010BFF0022D3
:10086300750B18C209E52B14601F14700302099756
:1008730014700302098F14700302098714700302B2
:10088300098424056003020AB4E52B6004AF3280B7
:1008930002AF338F09D50B05750B18B209E52B6031
:1008A300047FC080027F80EF440AFF121AEF3009F1
:1008B300087BFF7A0E79AA80147B007A007922756F
:1008C3001203AF09120EB87B007A00792212179A2D
:1008D3001211F4EF14700302095E24036013146011
:1008E3004024FD70B0E52B6005850932800385093E
:1008F30033E52B60047FC080027F80EF440AFF1240
:100903001AEFE52B6004AF328002AF337B007A002D
:100913007922751203120EB87B007A00792202172E
:100923009AD3E509648094495003020898AF32EFE3
:100933003395E0FEEF2401FFE43EFEAD09ED339570
:10094300E0FCD3ED9FEE6480F8EC6480985007E5FB
:100953002B70030208981509020898C3E5096480FF
:1009630094FF4003020898E53314C36480F8E50953
:100973006480984007E52B60030208980509020884
:1009830098852A09E52BB40403852C09E52BB403C8
:1009930003854209E52BB40203853D09E52BB40524
:1009A300047F0C800BE52BB404047F0E80027F0FC1
:1009B300E52B30E0047EC080027E80EE4FFF121AEA
:1009C300EFD50B05750B18B209300905750A2080A0
:1009D30006E5092430F50A7F10121AEFAF0A121B3D
:1009E300021211F4EF147003020A7C24036035141D
:1009F300605E24FD70CBE52BB4050585092A8024B0
:100A0300E52BB4040DE509652C6007D20385092C99
:100A13008012E52BB403058509428008E52BB40257
:100A23000385093DE52BB40504AF2A8014E52BB4F7
:100A33000404AF2C800BE52BB40304AF428002AF58
:100A43003D8F0A7F10121AEFE50A2430FF021B02C2
:100A5300E52B7E00B404047F0180027F00AD09ED25
:100A63003395E0FCD3ED9FEE6480F8EC64809850FE
:100A7300030209C415090209C4E52B64036005E5F3
:100A83002BB405067E007F0480047E007F00EF24E4
:100A930003FFE43EFEAD09ED3395E0FCC3ED9FEEAD
:100AA3006480F8EC64809840030209C405090209D4
:010AB300C47E
:010AB400221F
:1019F000AB3C7F0A7E00121986753C0FE5B0423C75
:081A0000E53C6B6002D322C338
:011A080022BB
:1017150075B0FF753C0FE5B0423CE53C24416010D7
:1017250024E0600C24F0600824F060132480701E0F
:10173500E52D653C601B1219F04016853C4622E5F7
:1017450046F4600D1219F04008D20685462D7546FF
:02175500FF2271
:1014060075B0FF753C0FE5B0423CE53C24416010E9
:1014160024E0600C24F0600824F0600D24807055F0
:101426001219F04053853C4622E546F4604A1219EB
:10143600F04045E5462441601A24E0602024F0602F
:101446002C2470702BC2AF7546FF1208637546FFD9
:10145600D2AF22E52B04F508B406158010E52B70F3
:1014660005750805800AE52B14F5088003E4F508E0
:08147600AF08120AB57546FF2C
:01147E00224B
:1011F40075B0FF753C0FE5B0423C1219F050037F07
:101204000022E53C2481604F24A0600C24F0604758
:1012140024F0604824407062E546653C7036E54D34
:10122400700D054DE53CB4BF037F01227FFF22050D
:101234004DE54DC394604011E54D540F700BE53CF2
:10124400B4BF037F01227FFF22E54DB4FF03754D38
:101254005F7F0022E4F54D853C468021E546B4FFDE
:10126400037F0022E5462411600A2470700C754641
:10127400FF7FFE227546FF7F02227546FF7F002214
:10187C00053FE53FB4B421E4F53F053BE53BB4142B
:10188C0017E4F53B0547E547B43C0DE4F547054146
:09189C00E541B43C03E4F54122EE
:1018A5000540E540B4B421E4F540053EE53EB414F9
:1018B50017E4F53E0548E548B43C0DE4F548054513
:0918C500E545B43C03E4F54522BD
:10147F007B007A007922300915751202AF41120EE6
:10148F00B87B007A007925751202AF478013751269
:10149F0002AF45120EB87B007A007925751202AFA4
:1014AF0048120EB81217947BFF7A0E79AE12179A64
:1014BF007B007A00792512179A7BFF7A0E79B0128A
:1014CF00179A300904E53B8002E53EC313FF7B000A
:1014DF007A007922751201120EB81217947BFF7AD7
:0614EF000E79B202179A0B
:1017C60030090AAF4CAE4BAD4AAC498008AF31AEDA
:1017D60030AD2FAC2E7B007A007922750F0575107F
:1017E600011205BC1217947BFF7A1A79EC02179A3C
:0E05BC008F0B8E0A8D098C088B0C8A0D890E10
:1005CA00850F82758300E4120537751ECD751DCC23
:1005DA00751CCC751B3EE5107003020674E4FFFE21
:1005EA00FDFCAB0BAA0AA909A8081202BC7E00509E
:1005FA00047F0180027F007C00EF2510FFEC3ECFD4
:10060A002401CF3400FED3EF950F7480F86E984022
:10061A003AE4FFFEFDAB0BAA0AA909A8081202BC1C
:10062A0050047F0180027F008F12E4FFFEFDFCABC5
:10063A000BAA0AA909A8081202BC50047F01800269
:10064A007F00E50F14C39FF5108008C3E50F9510CE
:10065A0014F512AB0CAA0DA90EAF12EF3395E08F69
:10066A0082F583742E1205378003850F12851011C7
:10067A00AF111511EF601DAF1EAE1DAD1CAC1B7B7B
:10068A00CD7ACC79CC783D1201168F1E8E1D8D1C29
:10069A008C1B80DCE4FFFEFDFCAB0BAA0AA909A8AF
:1006AA00081202BCAF0BAE0AAD09AC08AB1EAA1DFC
:1006BA00A91CA81B50291200218F0B8E0A8D098CA8
:1006CA0008120373AD07AC06C3E49DF514E49CF568
:1006DA0013EC12033AAB0BAA0AA909A808802A123A
:1006EA0000258F0B8E0A8D098C081203738E138FC7
:1006FA0014AC13AD14E412033AA804A905AA06AB74
:10070A0007AF0BAE0AAD09AC081200218F1A8E1979
:10071A008D188C17E51204F511AD11ED3395E0FC37
:10072A00C3ED950F7480F86C985072AF1AAE19AD7C
:10073A0018AC17E4FBFA792078411201168F1A8E49
:10074A00198D188C171203737515008F16EF243044
:10075A00FFAB0CAA0DA90EE511FD3395E08D82F5CC
:10076A0083EF120537AF1AAE19AD18AC17C004C023
:10077A0005C006C007AC15AD16E412033AA804A9D1
:10078A0005AA06AB07D007D006D005D0041200216F
:10079A008F1A8E198D188C170511020723E512146A
:1007AA00F511D3E511648094804040AE13AF147CF8
:1007BA00007D0A120559ED2430FFAB0CAA0DA90ED3
:1007CA00E511FD3395E08D82F583EF120537AE13FF
:1007DA00AF147C007D0A1205598E138F14E5144557
:1007EA0013700415118004151180B7E4FFFEFDFC97
:1007FA00AB0BAA0AA909A8081202BC50047F2D80D3
:10080A0021E5144513700AE512640160047F208013
:10081A0011AE13AF147C007D0A120559ED2430FF86
:10082A00E43CAB0CAA0DA90EE511FD3395E08D82CF
:10083A00F583EF801EAF111511D3EF6480948040C9
:10084A0017AB0CAA0DA90EAF11EF3395E08F82F505
:08085A0083742012053780DDD4
:010862002273
:060EB8008B0F8A10891166
:100EBE00851282758300E4120537C3EF6480948037
:100ECE0050028001C3920AE5127003020F6D300AC0
:100EDE00181512E5127003020F6D74012511F5112C
:100EEE00E43510F5106307FF0FEF800EE512602852
:100EFE00EF75F00A1204EAFF601E75F00A1204EA9A
:100F0E00AEF0EE2430AB0FAA10A911151285128285
:100F1E0075830012053780D4300A2B74FF2511F526
:100F2E001174FF3510F510E512700BAB0FAA10A956
:100F3E0011742D120525AB0FAA10A91185128275F9
:100F4E008300742D8014E5126015AB0FAA10A91141
:0F0F5E001512851282758300742012053780E703
:010F6D002261
:101A4E007580FFC292C290D291D292AF80EF20E702
:031A5E00F2C2923F
:011A61002262
:0B1AEF00EF6007C20AF511121A622214
:071B0200D20A8F11021A62E2
:101A6200121A4EC291A20A9290851180D29200C29D
:021A72009222BE
:0C000E00001FEF6007007E03DEFEDFF93C
:01001A0022C3
:10193D00E4FDD295C2957F3C12000ED2957F0C121C
:10194D00000EA295E433FDD2957F1812000EAF055F
:01195D002267
:0A1851007FCC1219B97FBE1219B93D
:10185B007D08E4FCC2957F0112000ED295ECC313F8
:10186B00FC3095034304807F0512000EDDE6AF04C8
:01187B00224A
:0219B900AD0778
:1019BB007B08C2957F0112000EED1392957F0512E5
:0A19CB00000ED295EDC313FDDBE81A
:0119D50022EF
:101A740012193DEF700A7FCC1219B97F441219B9BB
:011A8400223F
:10199B00E4F9FCFBFA12193DEF6004E4FEFF22129E
:0D19AB001851A90712185BEFFAE9AE02FF10
:0119B800220C
:10182500AC07AA03A90512193DEF701F7FCC121949
:10183500B97F4E1219B9AF041219B9AF011219B90E
:0C184500EAC43354E0441FFF1219B9221A
:1016CB008B088A09890A12193DEF703D12185112C5
:1016DB00185B12185BAB08AA09A90AEF12052512B1
:1016EB00185BAB0BAA0CA90DEF12052512185BABFF
:1016FB000EAA0FA910EF120525AB0EAA0FA91012F7
:0A170B00050CC41354071205252233
:101A380012193DEF700F7FCC1219B97F481219B9EE
:061A48007F0C12000E22CB
:071AFA00D297121B01D296E6
:011B010022C1
:0C1AB200121AFAA297920AC296A20AB376
:011ABE002205
:101A8500D296D29700121B01C29700121B01C29673
:011A9500222E
:0E1A9600C297D29600121B01D29700021B01CC
:0C1ACC00D29600D29700121B01021A965D
:0E1AA400C297121AFCC296121B01D2970022A2
:0C1AD800121AFAC296121B01C2970022DB
:101A0900C2967E08EF339297D296121B01C296EFC7
:071A190025E0FFDEEFD2978C
:011A200022A3
:1019D600D2977E08EF25E0FFC296121AFCA297E482
:0A19E600334207DEEFC296021B0138
:0A138C008F088D098B0A8A0B890C6B
:10139600E50D7002D322121A85AF08121A09121A25
:1013A600B292095055AF09121A09121AB29209508F
:1013B60049121A85E50804FF121A09121AB292098F
:1013C6005038E50D14F50EE50E601F1219D6AB0A5E
:1013D600AA0BA90CEF120525121AA47401250CF507
:1013E6000CE4350BF50B150E80DD1219D6AB0AAAE7
:0F13F6000BA90CEF120525121AD8121A96A2098C
:0114050022C4
:0A15C4008F088D098B0A8A0B890C31
:1015CE00E50D7002D322121A85AF08121A09121AEB
:1015DE00B292095036AF09121A09121AB292095074
:1015EE002A850D0EE50E6023AB0AAA0BA90C120577
:1015FE000CFF121A09121AB29209500F7401250C1F
:10160E00F50CE4350BF50B150E80D9121A96A209BE
:01161E0022A9
:0C1ABF007FA4AE071FEE70FA7F02DFFE6E
:011ACB0022F8
:02191A008F5AE2
:10191C00755B10121ABF121A85AF5A121A09121AD5
:10192C00B24003D55BED121A96E55B6002D322C37D
:01193C002288
:101568008F4E8D4F8B508A518952E553D39410403A
:1015780032AB50AA51A952750D10AD4FAF4E12158E
:10158800C44001227410254FF54F74102552F552AE
:10159800E43551F55174F02553F553AF4E12191A2D
:1015A80040C822AB50AA51A95285530DAD4FAF4E3A
:0C15B8001215C45005AF4E02191AC322D0
:10115C000000F88CF8F3F95BF9B8FA15FA67FAB9EC
:10116C00FB04FB4BFB90FBCFFC10FC44FC79FCAC70
:10117C00FCDCFD09FD34FD5CFD82FDA6FDC8FDE82F
:10118C00FE06FE22FE3DFE56FE6EFE85FE9AFEAE6D
:10119C00FEC1FED3FEE4FEF4FF03001600020018AD
:1011AC000002001900060018000200190004001DBE
:1011BC0000040018000C00110002001100020016BF
:1011CC0000060014000200160004001900040014AC
:1011DC00000C0011000400120006001100020012A5
:0811EC0000040019000400FFDB
:0413870002560258B0
:101A21005389F0438901758A18758CFCC28DD28C5B
:071A3100D2A9D2AFC2B92215
:10195E00EF1FAA0670011E4A60147C007D7DD3ED38
:0E196E009400EC940040E9ED1D70F31C80F035
:01197C002248
:10001E000203DFE86480F8E933E83360110460F02E
:10002E00ED33EC337009E8FCE9FDEAFEEBFF220448
:10003E0060DED3EB9FEA9EE99DE8C2E78CF0C2F743
:10004E0095F0400CE8CCF8E9CDF9EACEFAEBCFFB0F
:10005E001203AA85D0F05804700320D5B3E80470BB
:10006E00075002B2D50203E992D5EC0460F7E4CC56
:10007E00C0E0C398F8603B94186008400DD0E0FBD8
:10008E000203C1E4FBFAC9FC8028E830E406E4C9A7
:10009E00FBE4CAFCE830E305E4C9CACBFCE854072C
:1000AE006010F8C3E913F9EA13FAEB13FBEC13FC37
:1000BE00D8F130F52FC3E49CFCEF9BFFEE9AFEEDDA
:1000CE0099FDD0E0FBEF4E4D4C701222DB03020384
:1000DE00E6EC2CFCEF33FFEE33FEED33FDED30E7B7
:1000EE00EB0203C1EF2BFFEE3AFEED39FDD0E0FB44
:1000FE0050130BBB00030203E9ED13FDEE13FEEFED
:08010E0013FFEC13FC0203C116
:10011600EC4D6011E8497017ED33EC3304600DE4E3
:10012600FCFFFEFD22E933E8330470F80203DF1218
:1001360003AA58046009E4CC248150062850090219
:1001460003E92840030203E6C0E0EB4A7044B980A5
:1001560006D0E0FB0203D5EF4E701CBD8008EBFF16
:10016600EAFEE9FD80EBE98DF0A4FEE5F00201FF71
:10017600E9CDF9EAFEEBFFEF89F0A4FCE5F0CE89C4
:10018600F0A42EFFE435F0CD89F0A42DFEE435F081
:100196008067EF4E7005BD80D780C3EF8BF0A4ACAF
:1001A600F0EE8BF0A42CFCE435F0F8EF8AF0A42CEA
:1001B600E5F038FCE433CB8DF0A42CFCE5F03BF8FD
:1001C600EE8AF0A42CFCE5F038F8E433CF89F0A4ED
:1001D6002CFCE5F038CF3400CE89F0A42FFFE5F0F3
:1001E6003EFEE433C98DF0A42EFEE5F039CD8AF04B
:1001F600A42FFFE5F03EFEE43DFD33D0E0FB5007C3
:100206000BBB000F0203E9EC2CFCEF33FFEE33FED1
:06021600ED33FD0203C1FF
:10021C000203E9EC5D046005E8590470030203DF96
:10022C001203AA580460F6EC4860F2EC7004FDFE70
:10023C00FF22C860DB2481C85009C39860025006B5
:10024C000203E69850CAF582E9294B4A7005AB8245
:10025C000203D575F0007C1A7880C3EF9BEE9AED03
:10026C0099400DC3EF9BFFEE9AFEED99FDE842F02D
:10027C00DC23ACF0D0E0FFD0E0FED0E0FDAB822080
:10028C00E7101BEB60BAEC2CFCEF33FFEE33FEED0A
:10029C0033FD0203C1E803F830E705C0F075F00048
:1002AC00EF2FFFEE33FEED33FD40B830E7C280AAEE
:1002BC0074F8CC6480CCC86480C8F58204604FC3E9
:1002CC00EB9FF5F0EA9E42F0E99D42F0E89C45F088
:1002DC00603C501DE5825FFFE582D313CB5BCBF412
:1002EC002B5582FB50280ABA002409B9002008803B
:1002FC001DE5825BFBE582D313CF5FCFF4C3132FD5
:10030C005582FF50090EBE00050DBD00010CC3EB5C
:10031C009FF5F0EA9E42F0E99D42F0E89C45F060C2
:09032C0007CC4820E701B3EC22E4
:1003350075F020800E75F010800575F0087D007E43
:10034500007F003392D530D5031205AEEC33401053
:10035500EF33FFEE33FEED33FDEC33FCD5F0ED224C
:0E036500E5F0247EA2D513CC92E7CDCEFF2288
:10037300EDD2E7CD33EC3392D524814006E4FFFE82
:10038300FDFC22FCE4CFCECDCC24E0501174FF80E1
:10039300EDC3CC13CCCD13CDCE13CECF13CF04707E
:0703A300F030D5DE0205AECB
:1003AA00E9D2E7C933E833F892D5EDD2E7CD33EC99
:0703BA0033FC5002B2D52212
:1003C100EC30E7100FBF000C0EBE00080DBD00049D
:1003D1000BEB6014A2D5EB13FCED92E7FD2274FF49
:1003E100FCFDFEFF22E480F8A2D574FF13FC7D80A2
:0303F100E480EFB6
:10129000021757E493A3F8E493A34003F68001F206
:1012A00008DFF48029E493A3F85407240CC8C3335F
:1012B000C4540F4420C8834004F456800146F6DF2E
:1012C000E4800B0102040810204080901310E47E9B
:1012D000019360BCA3FF543F30E509541FFEE49323
:1012E000A360010ECF54C025E060A840B8E493A3EA
:1012F000FAE493A3F8E493A3C8C582C8CAC583CA15
:10130000F0A3C8C582C8CAC583CADFE9DEE780BECC
:01138B000061
:1003F400E709F608DFFA8046E709F208DFFA803EEB
:1004040088828C83E709F0A3DFFA8032E309F608D7
:10041400DFFA8078E309F208DFFA807088828C833F
:10042400E309F0A3DFFA806489828A83E0A3F608F3
:10043400DFFA805889828A83E0A3F208DFFA804CCD
:1004440080D280FA80C680D4806980F280338010A4
:1004540080A680EA809A80A880DA80E280CA80330D
:1004640089828A83ECFAE493A3C8C582C8CCC58385
:10047400CCF0A3C8C582C8CCC583CCDFE9DEE78055
:100484000D89828A83E493A3F608DFF9ECFAA9F0D4
:10049400EDFB2289828A83ECFAE0A3C8C582C8CC2A
:1004A400C583CCF0A3C8C582C8CCC583CCDFEADE43
:1004B400E880DB89828A83E493A3F208DFF980CCA5
:1004C40088F0EF60010E4E60C388F0ED2402B4049E
:1004D4000050B9F582EB2402B4040050AF23234545
:0604E40082239004447322
:1004EA00C2D530F707B2D563F0FF05F030E70CB29A
:1004FA00D5F4048463F0FF05F080018430D502F45A
:02050A000422C9
:10050C00BB010689828A83E0225002E722BBFE02ED
:09051C00E32289828A83E4932220
:10052500BB010689828A83F0225002F722BBFE01B5
:02053500F322AF
:10053700F8BB010DE58229F582E5833AF583E8F0FA
:10054700225006E92582C8F622BBFE05E92582C8A6
:02055700F2228E
:10055900BC000BBE0029EF8DF084FFADF022E4CC86
:10056900F875F008EF2FFFEE33FEEC33FCEE9DEC4F
:10057900984005FCEE9DFE0FD5F0E9E4CEFD22ED95
:10058900F8F5F0EE8420D21CFEADF075F008EF2FDF
:10059900FFED33FD4007985006D5F0F222C398FDD0
:0505A9000FD5F0EA226D
:0E05AE00C3E49FFFE49EFEE49DFDE49CFC225E
:00000001FF
