:0300000002128564
:0C128500787FE4F6D8FD7581D70212CC0A
:10169B00015102A305460A8CDF43000000F88CF8C9
:1016AB00F3F95BF9B8FA15FA67FAB9FB04FB4BFBD4
:1016BB0090FBCFFC10FC44FC79FCACFCDCFD09FD81
:1016CB0034FD5CFD82FDA6FDC8FDE8FE06FE22FE94
:1016DB003DFE56FE6EFE85FE9AFEAEFEC1FED3FEAD
:0516EB00E4FEF4FF0322
:10131100C100C107C108C184C106C101C102C10325
:10132100C109C105023D000002290000015300016D
:101331002E7F012CFF01367F0135C9043742A10000
:1013410000013B00044FC25C0000042F42FE00007C
:10135100014500013F00014D000147000146000128
:101361004200014E00014B00014802014103012DE1
:1013710001013C0606232020202020000249000014
:1013810001400F014CFF0122000233002002430201
:0A139100580154FC015518012B000F
:10177C0012157812180030000F300807C208E4FF69
:10178C00120C0312141680EE300912C2097B007A77
:10179C00007922755B01E4FD7FA01215E930040588
:0D17AC00120AA5C2041210B412173A80C927
:10157800C2AFC2A9C2ABC28CC28EC2A8C2A7C2A344
:10158800758912E4F58CF58AD2B9D2BBC2B8D28873
:10159800F559755A00755B35F55C755D00755E41EA
:1015A800FB7A0079361216F07B007A00792275757D
:1015B80001E4FD7FA012139CE5225407F53CE522C7
:1015C8001313135403F52DE522C4135403F548E50A
:1015D8003CFEC374609400F54474089EF5430217FA
:0115E800B949
:10180000121AAA121505120AA57F0E1217F57549AC
:1018100000754A281211597F0C1217F5E4F549F5A5
:101820004A121AAAC204D2AFD2A9D2ABD28CC28EAB
:03183000D2A82219
:101ACC00D205C2B9C28F758DFC758B18E4F52B222B
:100AA50030051AD3E5349418E5339400400AE5344B
:100AB5009460E5339400400512173A80E3C2AF1203
:100AC50019CDAC06AD07EC12033A8F3A8E398D3845
:100AD5008C37121AAA755623D556FDD2AF30050CA0
:100AE50074E92534F53474FF3533F533AF3AAE394F
:100AF500AD38AC37E4FBFA7980783D1201168F3AB0
:100B05008E398D388C37AF52AE51AD50AC4FAB3AB4
:100B1500AA39A938A8371202BC600E400C853A5292
:100B250085395185385085374FAF32AE31AD30AC50
:100B35002FAB3AAA39A938A8371202BC500C853A0E
:100B45003285393185383085372FAC36EC12033F85
:100B5500AB3AAA39A938A8371202BC60674065D2FA
:100B650001D206AC36EC12033FA804A905AA06ABD0
:100B750007AF3AAE39AD38AC37120021C004C00515
:100B8500C006C007AC48E412033FA804A905AA069D
:100B9500AB07D007D006D005D00412021FE4FBFA3C
:100BA5007980783F1200251203738F3BE53BD39480
:100BB500034003753B037556171218F0D556FA20F6
:100BC500053B8023AC35EC12033FAB3AAA39A93873
:100BD500A8371202BC5013D202D2A37556151219AA
:100BE50019D556FA200516021ACCD294C2A3C2060C
:0D0BF500E4F53BC202C201D2B9C28EC205B6
:010C020022CF
:1010B400E52E2441605924E0607124F0700221502F
:1010C400247060022158300705121159C2077FC2EB
:1010D4001217F5AF3AAE39AD38AC377B007A0079E8
:1010E40023755D05755E011208007B007A00792383
:1010F4001218397FCF1217F57B007A0079237560B7
:1011040001AF3B1210007B007A00792302183930BA
:101114000705121942C2077F891217F5D20A12185D
:10112400957FC91217F5C20A0218953007051219DE
:1011340068C2073001097F881217F5D20A800A3085
:10114400020A7FC81217F5C20A12148F300705125B
:051154001644C2072251
:100D4A0020042B75F002E541A4249BF582E5F034DA
:100D5A0016F583052AE52A70020529FFD374019343
:100D6A009FE49395295007E4F529F52AD204300621
:100D7A0059053EE53E7002053DC394A0E53D940544
:100D8A004039E53E94D8E53D94094020E53E94106B
:100D9A00E53D940E4007E4F53DF53E802FE53BC363
:100DAA0094034003D38001C392A78020E53BC394F8
:100DBA00024003D38001C392A78011E53BC394018B
:100DCA004003D38001C392A78002C2A73001051253
:100DDA0018F0800630020312191930055FE5341540
:100DEA00347002153314646045337003C28E22E5F1
:100DFA003445337047D28E7477252BF8E6B4FF0357
:100E0A00E4F52B7477252BF8E675F002A424A6F5F1
:100E1A0082E5F03416F583E493FC740193FDECF556
:100E2A0054EDF555052B7477252BF8E6FF7E00ACBB
:0D0E3A0043AD441205598E338F34052B2231
:03000300020F0FDA
:100F0F00C0E0C0F0C083C082C0D075D000C000C0A8
:0D0F1F0001C002C003C004C005C006C00729
:100F2C00756D1475B0FF7F03E5B04207EF64FB608D
:100F3C00127F0A7E001219B87F03E5B04207EF64F6
:100F4C00FB706A7F327E001219B8D56DD930004D16
:100F5C00AB41AD35AF36120FD4121A6E7522FFE5C8
:100F6C002D33333354F8FFE548C43354E04F453C3C
:100F7C0052223003031217B9D209121AAA7529008A
:100F8C00752A00C204D28CE53CFEC374609400F553
:100F9C004474089EF543752CFFD207800ED294C280
:0D0FAC00A3C2A7C28CC28EC205D208B2003B
:100FB900D007D006D005D004D003D002D001D0008C
:0B0FC900D0D0D082D083D0F0D0E03236
:03000B00021A08CE
:101A0800C0E0C0F0C083C082C0D075D008120D4AB3
:0B1A1800D0D0D082D083D0F0D0E032DC
:03001B0002186563
:10186500C0E0C0F0C083C082C0D075D010E5547010
:1018750004E555600885548D85558BB294308D05EA
:10188500C28D120D4AD0D0D082D083D0F0D0E032B4
:100E470057656C636F6D6520746F2041415543533F
:100E5700002020202020204E4F2E3133202020201C
:100E67002000483A0020204C3A00543A00202046FF
:100E7700414E3A00486967686573743A20004C6FC1
:100E8700776573743A20200041626F766520483A8F
:100E97000042656C6F77204C3A0054523A2000208C
:100EA70020204647533A200072696E675261746585
:100EB7003A0048204C696D69743A20004C204C690F
:100EC7006D69743A2000545265736F6C7574696F5D
:100ED7006E3A200046476561722720537465703A61
:100EE700200072696E67746F6E653A202000726920
:100EF7006E6720526174653A2000202020006D0043
:080F07002E0073007E7F202004
:0919AF00E54A25E0FFE54933FE9D
:1019B800EF1FAA0670011E4A600A7D7BAC051DEC6C
:0419C80060EE80F855
:0119CC0022F8
:061833007B007A0079231E
:101839008B5C8A5D895EAB5CAA5DA95E12050C6052
:101849001A055EE55E7002055D14F912050CFF12BA
:0C1859001B0BAF4AAE491219B880DB220D
:101505007F381217F57F0C1217F57F061217F57F36
:10151500011217F57F901217F57BFF7A0E794712A6
:101525001839754900754AC87FD01217F57F07121B
:1015350017F57BFF7A0E79581218397F061217F5C1
:101545007556037F081217F51219AF7F0C1217F5A0
:101555001219AFD556ED7556107F181217F5AF4A0B
:10156500AE491219B8D556F17F011217F5E4F549C0
:02157500F54A35
:011577002251
:101159007F011217F57BFF7A0E79691218397B0026
:101169007A007923756003AF361210001218337BA9
:10117900FF7A1679A31218397BFF7A0E796C121847
:10118900397B007A007923756003AF35121000129C
:1011990018337BFF7A1679A31218397FC01217F515
:1011A9007BFF7A0E7971121839AF3AAE39AD38AC86
:1011B900377B007A007923755D05755E0112080099
:1011C9001218337BFF7A1679A31218397BFF7A0E2E
:1011D90079741218397B007A007923756001AF3B65
:0C11E9001210007B007A007923021839F4
:101942007F011217F57BFF7A0E797B121839D20AC2
:101952001218957FC01217F57BFF7A0E798512183F
:0619620039C20A021895CB
:101968007F011217F57BFF7A0E798F121839D20A88
:1019780012148F7FC01217F57BFF7A0E7998121810
:0619880039C20A02148FAF
:101644007F011217F57F011217F57BFF7A0E79A13E
:10165400121839E5412430FF121B0B7BFF7A0E79F7
:10166400A6121839E5482430FF121B0B7BFF7A16AB
:1016740079A31218397FC01217F57BFF7A0E79AF60
:10168400121839E4F556E556C3953C50097FFF120C
:061694001B0B055680F05F
:01169A00222D
:020C03008F5709
:100C050078587C007D007BFF7A0F790B7E007F048E
:100C15001204C4E557652C7002A149E52CC313FFE6
:100C2500E557C3136F700281EB7F011217F5E55786
:100C3500C31314605D14700281BF2402600281EB4E
:100C45007F811217F57BFF7A0E79B91218397B006F
:100C55007A007923756003AF361210001218337BC2
:100C6500FF7A1679A31218397FC11217F57BFF7A1F
:100C75000E79C31218397B007A007923756003AFAA
:100C8500351210001218337BFF7A1679A312183922
:100C950080547F811217F57BFF7A0E79CD121839B2
:100CA500E5412430FF121B0B7FC11217F57BFF7A3C
:100CB5000E79DB121839E54880267F821217F57BFD
:100CC500FF7A0E79E9121839E52D2430FF121B0B36
:100CD5007FC21217F57BFF7A0E79F5121839E53CBC
:100CE5002430FF121B0BE55713920A7F801217F56C
:100CF500A20AE43325E0FF74582FF8E6FF121B0B18
:100D05007F8F1217F5A20AE43325E0FF74592FF8F7
:100D1500E6FF121B0BB20A7FC01217F5A20AE433D5
:100D250025E0FF74582FF8E6FF121B0B7FCF121733
:100D3500F5A20AE43325E0FF74592FF8E6FF121BEC
:040D45000B85572C97
:010D49002287
:1005CE00755918C20AE52C14601A147002C1F6147B
:1005DE007002C1EE147002C1E6147002C1E324056C
:1005EE006002E1F1E52C6004AF358002AF368F5723
:1005FE00D55905755918B20AE52C60047FC08002E2
:10060E007F80EF440AFF1217F5300A087BFF7A0F3E
:10061E00790180147B007A007923756003AF57123D
:10062E0010007B007A0079231218391211F5EF149D
:10063E007002C1C02403601314604024FD70B1E544
:10064E002C60058557358003855736E52C60047F71
:10065E00C080027F80EF440AFF1217F5E52C60047C
:10066E00AF358002AF367B007A00792375600312B6
:10067E0010007B007A007923021839D3E557648085
:10068E0094495002A1FEAF35EF3395E0FEEF240101
:10069E00FFE43EFEAD57ED3395E0FCD3ED9FEE64E7
:1006AE0080F8EC6480985006E52C7002A1FE155778
:1006BE00A1FEC3E557648094FF4002A1FEE5361407
:1006CE00C36480F8E5576480984006E52C6002A16B
:1006DE00FE0557A1FE853C57E52CB40403852D5726
:1006EE00E52CB40303854857E52CB4020385415726
:1006FE00E52C64056005E52CB404047F0E80027FB2
:10070E000FE52C30E0047EC080027E80EE4FFF129B
:10071E0017F5D55905755918B20A300A05755820BE
:10072E008006E5572430F5587F101217F5AF581292
:10073E001B0B1211F5EF1460742403603514605E08
:10074E0024FD70CEE52CB4050585573C8024E52CA0
:10075E00B4040DE557652D6007D20385572D801221
:10076E00E52CB403058557488008E52CB4020385B3
:10077E005741E52CB40504AF3C8014E52CB40404B9
:10078E00AF2D800BE52CB40304AF488002AF418F30
:10079E00587F101217F5E5582430FF021B0BD3E5D6
:1007AE0057648094805002E1201557E120E52C64B7
:1007BE00036005E52CB405067E007F0480047E00F0
:1007CE007F00EF2403FFE43EFEAD57ED3395E0FCD2
:1007DE00C3ED9FEE6480F8EC6480984002E1200542
:0307EE0057E120B0
:0107F10022E5
:101A3D00AB407F0A7E001219B875400FE5B04240E9
:081A4D00E5406B6002D322C3E7
:011A5500226E
:10173A0075B0FF75400FE5B04240E54024416010A6
:10174A0024E0600C24F0600824F060132480701EEA
:10175A00E52E6540601B121A3D401685404C22E575
:10176A004CF4600D121A3D4008D207854C2E754C78
:02177A00FF224C
:1014160075B0FF75400FE5B04240E54024416010CD
:1014260024E0600C24F0600824F0600D24807055E0
:10143600121A3D405385404C22E54CF4604A121A7C
:101446003D4045E54C2441601A24E0602024F060CC
:101456002C2470702BC2AF754CFF1205CE754CFF55
:10146600D2AF22E52C04F556B406158010E52C7093
:1014760005755605800AE52C14F5568003E4F556E5
:08148600AF56120C03754CFF78
:01148E00223B
:1011F50075B0FF75400FE5B04240121A3D50037FB0
:101205000022E5402481604F24A0600C24F0604753
:1012150024F0604824407062E54C65407036E55323
:10122500700D0553E540B4BF037F01227FFF220502
:1012350053E553C394604011E553540F700BE540DB
:10124500B4BF037F01227FFF22E553B4FF0375532B
:101255005F7F0022E4F55385404C8021E54CB4FFC7
:10126500037F0022E54C2411600A2470700C754C34
:10127500FF7FFE22754CFF7F0222754CFF7F002207
:1018F0000545E545B4B421E4F545053FE53FB4149D
:1019000017E4F53F054DE54DB43C0DE4F54D0547B5
:09191000E547B43C03E4F547226D
:101919000546E546B4B421E4F5460542E542B4146A
:1019290017E4F542054EE54EB43C0DE4F54E054B82
:09193900E54BB43C03E4F54B223C
:10148F007B007A007923300A15756002AF4712107E
:10149F00007B007A007926756002AF4D801375606E
:1014AF0002AF4B1210007B007A007926756002AFF5
:1014BF004E1210001218337BFF7A0F79051218396C
:1014CF007B007A0079261218397BFF7A0F79071281
:1014DF001839300A04E53F8002E542C313FF7B0051
:1014EF007A0079237560011210001218337BFF7A8E
:0614FF000F790902183903
:10189500300A0AAF52AE51AD50AC4F8008AF32AEF0
:1018A50031AD30AC2F7B007A007923755D05755E0F
:1018B500011208001218337BFF7A1679A302183932
:1017B900E52D2403FD7B007A00796E7575017FA004
:1017C90012139CE52D2404FD7B007A00796F757551
:1017D900017FA012139CC3E56F956EF56F7B007AAC
:0C17E900007977F575AD6E7FA002139CAF
:0E0800008F598E588D578C568B5A8A5B895CA7
:10080E00855D82758300E4120537756CCD756BCCF2
:10081E00756ACC75693EE55E700201B7E4FFFEFDB8
:10082E00FCAB59AA58A957A8561202BC7E00500418
:10083E007F0180027F007C00EF255EFFEC3ECF241F
:10084E0001CF3400FED3EF955D7480F86E98403A78
:10085E00E4FFFEFDAB59AA58A957A8561202BC5088
:10086E00047F0180027F008F60E4FFFEFDFCAB5928
:10087E00AA58A957A8561202BC50047F0180027FC5
:10088E0000E55D14C39FF55E8008C3E55D955E14BB
:10089E00F560AB5AAA5BA95CAF60EF3395E08F822F
:1008AE00F583742E1205378003855D60855E5FAF1C
:1008BE005F155FEF601DAF6CAE6BAD6AAC697BCD43
:1008CE007ACC79CC783D1201168F6C8E6B8D6A8C3A
:1008DE006980DCE4FFFEFDFCAB59AA58A957A85667
:1008EE001202BCAF59AE58AD57AC56AB6CAA6BA941
:1008FE006AA86950291200218F598E588D578C562F
:10090E00120373AD07AC06C3E49DF562E49CF5617A
:10091E00EC12033AAB59AA58A957A856802A1200CE
:10092E00258F598E588D578C561203738E618F6298
:10093E00AC61AD62E412033AA804A905AA06AB079E
:10094E00AF59AE58AD57AC561200218F688E678DD9
:10095E00668C65E56004F55FAD5FED3395E0FCC335
:10096E00ED955D7480F86C985071AF68AE67AD66AA
:10097E00AC65E4FBFA792078411201168F688E6718
:10098E008D668C651203737563008F64EF2430FFE0
:10099E00AB5AAA5BA95CE55FFD3395E08D82F583CA
:1009AE00EF120537AF68AE67AD66AC65C004C00523
:1009BE00C006C007AC63AD64E412033AA804A905EF
:1009CE00AA06AB07D007D006D005D0041200218F9F
:1009DE00688E678D668C65055F2166E56014F55F30
:1009EE00D3E55F648094804040AE61AF627C007D51
:1009FE000A12056BED2430FFAB5AAA5BA95CE55FCA
:100A0E00FD3395E08D82F583EF120537AE61AF624F
:100A1E007C007D0A12056B8E618F62E56245617006
:100A2E0004155F8004155F80B7E4FFFEFDFCAB5933
:100A3E00AA58A957A8561202BC50047F2D8021E552
:100A4E00624561700AE560640160047F208011AE2A
:100A5E0061AF627C007D0A12056BED2430FFE43C31
:100A6E00AB5AAA5BA95CE55FFD3395E08D82F583F9
:100A7E00EF801EAF5F155FD3EF648094804017AB9D
:100A8E005AAA5BA95CAF5FEF3395E08F82F5837452
:060A9E002012053780DD87
:010AA400222F
:061000008B5D8A5E895F32
:10100600856082758300E4120537C3EF648094809F
:1010160050028001C3920BE560700201B3300B17DA
:101026001560E560700201B37401255FF55FE43574
:101036005EF55E6307FF0FEF800EE5606028EF75D3
:10104600F00A1204EAFF601E75F00A1204EAAEF016
:10105600EE2430AB5DAA5EA95F156085608275835C
:101066000012053780D4300B2B74FF255FF55F74B3
:10107600FF355EF55EE560700BAB5DAA5EA95F7439
:101086002D120525AB5DAA5EA95F8560827583007A
:10109600742D8014E5606015AB5DAA5EA95F1560CE
:0D10A600856082758300742012053780E795
:0110B300221A
:101A84007580FFC292C290D291D292AF80EF20E7CC
:031A9400F2C29209
:011A9700222C
:0B17F500EF6007C20BF55F121A98228C
:071B0B00D20B8F5F021A9854
:101A9800121A84C291A20B9290855F80D29200C2E2
:021AA800922288
:0C000E00001FEF6007007E03DEFEDFF93C
:01001A0022C3
:10198E00E4FDD295C2957F3C12000ED2957F0C12CB
:10199E00000EA295E433FDD2957F1812000EAF050E
:0119AE002216
:0A18C5007FCC1219EB7FBE1219EB65
:1018CF007D08E4FCC2957F0112000ED295ECC31384
:1018DF00FC3095034304807F0512000EDDE6AF0454
:0118EF0022D6
:0219EB00AD0746
:1019ED007B08C2957F0112000EED1392957F0512B3
:0A19FD00000ED295EDC313FDDBE8E8
:011A070022BC
:101AAA0012198EEF700A7FCC1219EB7F441219EBD0
:011ABA002209
:1019CD00E4F9FCFBFA12198EEF6004E4FEFF22121B
:0D19DD0018C5A9071218CFEFFAE9AE02FFF6
:0119EA0022DA
:100FD400AC07AA03A90512198EEF701F7FCC121952
:100FE400EB7F4E1219EBAF041219EBAF011219EBA0
:0C0FF400EAC43354E0441FFF1219EB2242
:1016F0008B568A57895812198EEF703D1218C512F1
:1017000018CF1218CFAB56AA57A958EF12052512B9
:1017100018CFAB59AA5AA95BEF1205251218CFAB07
:101720005CAA5DA95EEF120525AB5CAA5DA95E12FD
:0A173000050CC4135407120525220E
:101A6E0012198EEF700F7FCC1219EB7F481219EB03
:061A7E007F0C12000E2295
:071B0300D297121B0AD296D3
:011B0A0022B8
:0C1AEA00121B03A297920DC296A20DB32E
:011AF60022CD
:101ABB00D296D29700121B0AC29700121B0AC2962B
:011ACB0022F8
:0E07F200C297D29600121B0AD29700021B0A71
:0E1ADC00C297121B05C296121B0AD297002257
:0C1AF700121B03C296121B0AC2970022A9
:101A5600C2967E08EF339297D296121B0AC296EF71
:071A660025E0FFDEEFD2973F
:011A6D002256
:101A2300D2977E08EF25E0FFC296121B05A297E42A
:0A1A3300334207DEEFC296021B0AE1
:0A139C008F708D718B728A73897453
:1013A600E5757002D322121ABBAF70121A56121AC2
:1013B600EA920C5055AF71121A56121AEA920C5054
:1013C60049121ABBE57004FF121A56121AEA920C59
:1013D6005038E57514F576E576601F121A23AB7260
:1013E600AA73A974EF120525121ADC74012574F587
:1013F60074E43573F573157680DD121A23AB72AA81
:0F14060073A974EF120525121AF71207F2A20C40
:0114150022B4
:0A15E9008F568D578B588A59895A86
:1015F300E55B7002D322121ABBAF56121A56121AA7
:10160300EA920A5036AF57121A56121AEA920A5041
:101613002A855B5CE55C6023AB58AA59A95A12057D
:101623000CFF121A56121AEA920A500F7401255A25
:10163300F55AE43559F559155C80D91207F2A20A17
:011643002284
:10001E000203DFE86480F8E933E83360110460F02E
:10002E00ED33EC337009E8FCE9FDEAFEEBFF220448
:10003E0060DED3EB9FEA9EE99DE8C2E78CF0C2F743
:10004E0095F0400CE8CCF8E9CDF9EACEFAEBCFFB0F
:10005E001203AA85D0F05804700320D5B3E80470BB
:10006E00075002B2D50203E992D5EC0460F7E4CC56
:10007E00C0E0C398F8603B94186008400DD0E0FBD8
:10008E000203C1E4FBFAC9FC8028E830E406E4C9A7
:10009E00FBE4CAFCE830E305E4C9CACBFCE854072C
:1000AE006010F8C3E913F9EA13FAEB13FBEC13FC37
:1000BE00D8F130F52FC3E49CFCEF9BFFEE9AFEEDDA
:1000CE0099FDD0E0FBEF4E4D4C701222DB03020384
:1000DE00E6EC2CFCEF33FFEE33FEED33FDED30E7B7
:1000EE00EB0203C1EF2BFFEE3AFEED39FDD0E0FB44
:1000FE0050130BBB00030203E9ED13FDEE13FEEFED
:08010E0013FFEC13FC0203C116
:10011600EC4D6011E8497017ED33EC3304600DE4E3
:10012600FCFFFEFD22E933E8330470F80203DF1218
:1001360003AA58046009E4CC248150062850090219
:1001460003E92840030203E6C0E0EB4A7044B980A5
:1001560006D0E0FB0203D5EF4E701CBD8008EBFF16
:10016600EAFEE9FD80EBE98DF0A4FEE5F00201FF71
:10017600E9CDF9EAFEEBFFEF89F0A4FCE5F0CE89C4
:10018600F0A42EFFE435F0CD89F0A42DFEE435F081
:100196008067EF4E7005BD80D780C3EF8BF0A4ACAF
:1001A600F0EE8BF0A42CFCE435F0F8EF8AF0A42CEA
:1001B600E5F038FCE433CB8DF0A42CFCE5F03BF8FD
:1001C600EE8AF0A42CFCE5F038F8E433CF89F0A4ED
:1001D6002CFCE5F038CF3400CE89F0A42FFFE5F0F3
:1001E6003EFEE433C98DF0A42EFEE5F039CD8AF04B
:1001F600A42FFFE5F03EFEE43DFD33D0E0FB5007C3
:100206000BBB000F0203E9EC2CFCEF33FFEE33FED1
:06021600ED33FD0203C1FF
:10021C000203E9EC5D046005E8590470030203DF96
:10022C001203AA580460F6EC4860F2EC7004FDFE70
:10023C00FF22C860DB2481C85009C39860025006B5
:10024C000203E69850CAF582E9294B4A7005AB8245
:10025C000203D575F0007C1A7880C3EF9BEE9AED03
:10026C0099400DC3EF9BFFEE9AFEED99FDE842F02D
:10027C00DC23ACF0D0E0FFD0E0FED0E0FDAB822080
:10028C00E7101BEB60BAEC2CFCEF33FFEE33FEED0A
:10029C0033FD0203C1E803F830E705C0F075F00048
:1002AC00EF2FFFEE33FEED33FD40B830E7C280AAEE
:1002BC0074F8CC6480CCC86480C8F58204604FC3E9
:1002CC00EB9FF5F0EA9E42F0E99D42F0E89C45F088
:1002DC00603C501DE5825FFFE582D313CB5BCBF412
:1002EC002B5582FB50280ABA002409B9002008803B
:1002FC001DE5825BFBE582D313CF5FCFF4C3132FD5
:10030C005582FF50090EBE00050DBD00010CC3EB5C
:10031C009FF5F0EA9E42F0E99D42F0E89C45F060C2
:09032C0007CC4820E701B3EC22E4
:1003350075F020800E75F010800575F0087D007E43
:10034500007F003392D530D5031205C0EC33401041
:10035500EF33FFEE33FEED33FDEC33FCD5F0ED224C
:0E036500E5F0247EA2D513CC92E7CDCEFF2288
:10037300EDD2E7CD33EC3392D524814006E4FFFE82
:10038300FDFC22FCE4CFCECDCC24E0501174FF80E1
:10039300EDC3CC13CCCD13CDCE13CECF13CF04707E
:0703A300F030D5DE0205C0B9
:1003AA00E9D2E7C933E833F892D5EDD2E7CD33EC99
:0703BA0033FC5002B2D52212
:1003C100EC30E7100FBF000C0EBE00080DBD00049D
:1003D1000BEB6014A2D5EB13FCED92E7FD2274FF49
:1003E100FCFDFEFF22E480F8A2D574FF13FC7D80A2
:0303F100E480EFB6
:1012910002177CE493A3F8E493A34003F68001F2E0
:1012A10008DFF48029E493A3F85407240CC8C3335E
:1012B100C4540F4420C8834004F456800146F6DF2D
:1012C100E4800B0102040810204080901311E47E99
:1012D100019360BCA3FF543F30E509541FFEE49322
:1012E100A360010ECF54C025E060A840B8E493A3E9
:1012F100FAE493A3F8E493A3C8C582C8CAC583CA14
:10130100F0A3C8C582C8CAC583CADFE9DEE780BECB
:01139B000051
:1003F400E709F608DFFA8046E709F208DFFA803EEB
:1004040088828C83E709F0A3DFFA8032E309F608D7
:10041400DFFA8078E309F208DFFA807088828C833F
:10042400E309F0A3DFFA806489828A83E0A3F608F3
:10043400DFFA805889828A83E0A3F208DFFA804CCD
:1004440080D280FA80C680D4806980F280338010A4
:1004540080A680EA809A80A880DA80E280CA80330D
:1004640089828A83ECFAE493A3C8C582C8CCC58385
:10047400CCF0A3C8C582C8CCC583CCDFE9DEE78055
:100484000D89828A83E493A3F608DFF9ECFAA9F0D4
:10049400EDFB2289828A83ECFAE0A3C8C582C8CC2A
:1004A400C583CCF0A3C8C582C8CCC583CCDFEADE43
:1004B400E880DB89828A83E493A3F208DFF980CCA5
:1004C40088F0EF60010E4E60C388F0ED2402B4049E
:1004D4000050B9F582EB2402B4040050AF23234545
:0604E40082239004447322
:1004EA00C2D530F707B2D563F0FF05F030E70CB29A
:1004FA00D5F4048463F0FF05F080018430D502F45A
:02050A000422C9
:10050C00BB010689828A83E0225002E722BBFE02ED
:09051C00E32289828A83E4932220
:10052500BB010689828A83F0225002F722BBFE01B5
:02053500F322AF
:10053700F8BB010DE58229F582E5833AF583E8F0FA
:10054700225006E92582C8F622BBFE05E92582C8A6
:02055700F2228E
:10055900EF8DF0A4A8F0CF8CF0A428CE8DF0A42EB6
:02056900FE2270
:10056B00BC000BBE0029EF8DF084FFADF022E4CC74
:10057B00F875F008EF2FFFEE33FEEC33FCEE9DEC3D
:10058B00984005FCEE9DFE0FD5F0E9E4CEFD22ED83
:10059B00F8F5F0EE8420D21CFEADF075F008EF2FCD
:1005AB00FFED33FD4007985006D5F0F222C398FDBE
:0505BB000FD5F0EA225B
:0E05C000C3E49FFFE49EFEE49DFDE49CFC224C
:00000001FF
