:0300000002119B4F
:0C119B00787FE4F6D8FD7581CD0211E2EA
:0B18F900015102A305460A8CDF4300EA
:1012A000C100C105C106C183C104C101C102C1079A
:1012B0000239000002280000014D00012D7F012BA2
:1012C000FF01337F0132C9043442A100000138001C
:1012D0000449C25C0000042E42FE0000013F0001F0
:1012E0003B00014700014100014000013E00014870
:1012F00000014500014202013D03012C01012A07C2
:10130000062220202020200002430000013C0F0183
:0513100046FF014E0044
:1015870012145612165E30000F300607C206E4FF2B
:10159700120A4C12122780EE300712C2077B007A1C
:1015A70000794E750D01E4FD7FA01215C4300305C7
:0D15B700120BAEC203120FC812154580C9F9
:03000B00020CD014
:100CD000C0E0C0F0C083C082C0D075D000C000C0EA
:100CE00001C002C003C004C005C006C00720032C19
:100CF00075F002E53DA424F9F582E5F03418F5839A
:100D00000529E52970020528FFD37401939FE49318
:100D100095285008752800752900D20330045A051B
:100D20003AE53A70020539C394A0E5399405403A92
:100D3000E53A94D8E53994094021E53A9410E5392B
:100D4000940E4008753900753A00802FE538C39439
:100D5000034003D38001C392A78020E538C39402E7
:100D60004003D38001C392A78011E538C3940140AA
:100D700003D38001C392A78002C2A73001051216D7
:100D8000E4800630020312170DD007D006D005D03C
:100D900004D003D002D001D000D0D0D082D083D0F4
:040DA000F0D0E0327D
:03000300020F1DCC
:100F1D00C0E0C0F0C083C082C0D075D000C000C09A
:0D0F2D0001C002C003C004C005C006C0071B
:100F3A00751F1475B0FF7F03E5B04207EF64FB60CD
:100F4A00127F0A7E001217AC7F03E5B04207EF64F6
:100F5A00FB70507F327E001217ACD51FD930003992
:100F6A00AB3DAD32AF3312168D121847784E76FF6D
:100F7A00E52C33333354F8FFE542C43354E04F458C
:100F8A002A56F6D207121896752800752900C20348
:100F9A00D28C752BFFD2058008C2A3C2A7C28CD2FD
:030FAA0006B2008C
:100FAD00D007D006D005D004D003D002D001D00098
:0B0FBD00D0D0D082D083D0F0D0E03242
:10145600C2A7C2A3758902E4F58CF58AD288C2B800
:10146600D2B9F50B750C00750D32F50E750F0075BA
:10147600103DFB7A0079331214FB1218ED7B007ACB
:1014860000794E750D01E4FD7FA01214AB784EE68F
:10149600FF5407F52AEF1313135403F52CE6C41370
:0514A6005403F5422291
:10165E0012189612138C120BAE7F0E1219047543CC
:10166E000075442812106F7F0C121904E4F543F52F
:0F167E0044121896C203D2AFD2A9D28CD2A8229E
:100BAE00C2AF1217C1AC06AD07EC12032A8F378EF7
:100BBE00368D358C34121896750823D508FDD2AFB4
:100BCE00AF37AE36AD35AC34E4FBFA7980783D12F2
:100BDE0001068F378E368D358C34AF4CAE4BAD4A09
:100BEE00AC49AB37AA36A935A8341202AC600E4018
:100BFE000C85374C85364B85354A853449AF31AE39
:100C0E0030AD2FAC2EAB37AA36A935A8341202ACB4
:100C1E00500C85373185363085352F85342EAC33E3
:100C2E00EC12032FAB37AA36A935A8341202AC60EA
:100C3E00644062D201D204AC33EC12032FA804A993
:100C4E0005AA06AB07AF37AE36AD35AC3412001180
:100C5E00C004C005C006C007AC42E412032FA804AE
:100C6E00A905AA06AB07D007D006D005D0041202FC
:100C7E000FE4FBFA7980783F1200151203638F3868
:100C8E00E538D3940340037538037508171216E43C
:100C9E00D508FA8007C201C204E4F538AC32EC1272
:100CAE00032FAB37AA36A935A8341202AC500ED298
:100CBE0002D2A375081512170DD508FA22C2A3C2C7
:010CCE000223
:010CCF002202
:100FC800E52D2441605B24E0607324F07003021077
:100FD800662470600302106E30050512106FC2059A
:100FE8007FC2121904AF37AE36AD35AC347B007A08
:100FF800007922750F057510011205AC7B007A0087
:1010080079221216027FCF1219047B007A00792206
:10101800751301AF38120E677B007A007922021629
:1010280002300505121736C2057F89121904D20845
:1010380012162E7FC9121904C20802162E30050591
:1010480012175CC2053001097F88121904D2088082
:101058000A30020A7FC8121904C208121316300592
:07106800051213FFC205226F
:100DA40057656C636F6D6520746F204141554353E3
:100DB400002020202020204E4F2E313320202020C0
:100DC4002000483A0020204C3A00543A00202046A3
:100DD400414E3A00486967686573743A20004C6F65
:100DE400776573743A20200041626F766520483A33
:100DF4000042656C6F77204C3A0054523A20002030
:100E040020204647533A2000566F6C756D653A2092
:100E14000048204C696D69743A20004C204C696D7F
:100E240069743A2000545265736F6C7574696F6EFF
:100E34003A200046476561722720537465703A2052
:100E44000072696E67746F6E653A202000566F6C8D
:100E5400756D653A00202020006D002E0073007E21
:030E64007F2020CC
:0917A300E54425E0FFE54333FEB7
:1017AC00EF1FAA0670011E4A600A7D7BAC051DEC7A
:0417BC0060EE80F863
:0117C0002206
:0615FC007B007A00792259
:101602008B0F8A108911AB0FAA10A9111204FC606A
:101612001A0511E5117002051014F91204FCFF12EB
:0C1622001917AF44AE431217AC80DB2256
:10138C007F381219047F0C1219047F061219047F7E
:10139C00011219047F901219047BFF7A0D79A412A3
:1013AC0016027543007544C87FD01219047F0712CA
:1013BC0019047BFF7A0D79B51216027F06121904F7
:1013CC007508037F081219041217A37F0C12190455
:1013DC001217A3D508ED7508107F18121904AF4425
:1013EC00AE431217ACD508F17F01121904E4F54392
:0213FC00F544B6
:0113FE0022CC
:10106F007F011219047BFF7A0D79C61216027B00DD
:10107F007A007922751303AF33120E671215FC7BBA
:10108F00FF7A1979011216027BFF7A0D79C91216B0
:10109F00027B007A007922751303AF32120E6712AA
:1010AF0015FC7BFF7A1979011216027FC012190401
:1010BF007BFF7A0D79CE121602AF37AE36AD35AC57
:1010CF00347B007A007922750F057510011205AC7B
:1010DF001215FC7BFF7A1979011216027BFF7A0D2C
:1010EF0079D11216027B007A007922751301AF387D
:0C10FF00120E677B007A007922021602B4
:101736007F011219047BFF7A0D79D8121602D2089E
:1017460012162E7FC01219047BFF7A0D79E212164B
:0617560002C20802162E7B
:10175C007F011219047BFF7A0D79EC121602D20864
:10176C001213167FC01219047BFF7A0D79F512162D
:06177C0002C20802131670
:1013FF007F011219047F011219047BFF7A0D79FE08
:10140F00121602E53D2430FF1219177BFF7A0E7971
:10141F0003121602E5422430FF1219177BFF7A19C7
:10142F0079011216027FC01219047BFF7A0E790C14
:10143F00121602E4F508E508C3952A50097FFF123A
:06144F001917050880F0EA
:011455002274
:020A4C008F0910
:100A4E00780B7C007D007BFF7A0E79637E007F043D
:100A5E001204B4E509652B7003020BADE52BC3132D
:100A6E00FFE509C3136F7003020B547F01121904C3
:100A7E00E509C31314605F147003020B12240260A5
:100A8E0003020B547F811219047BFF7A0E79151223
:100A9E0016027B007A007922751303AF33120E67AC
:100AAE001215FC7BFF7A1979011216027FC11219F9
:100ABE00047BFF7A0E791F1216027B007A007922D0
:100ACE00751303AF32120E671215FC7BFF7A19797C
:100ADE000112160280707F811219047BFF7A0E7943
:100AEE0029121602E53D2430FF1219177FC1121983
:100AFE00047BFF7A0E7937121602E5422430FF127C
:100B0E00191780427F821219047BFF7A0E794512E3
:100B1E001602E52C2430FF1219177FC11219047B1F
:100B2E00FF7A0E7951121602E4F50AAD0AED3395ED
:100B3E00E0FCC3ED952A7480F86C9850097FFF1283
:100B4E001917050A80E5E5095401F50A7F80121987
:100B5E0004E50A25E0240BF8E6FF1219177F8F1221
:100B6E001904E50A25E0240CF8E6FF121917E50A28
:100B7E0070047F0180027F008F0A7FC0121904E586
:100B8E000A25E0240BF8E6FF1219177FCF1219047D
:0F0B9E00E50A25E0240CF8E6FF12191785092B4C
:010BAD002225
:10085300750B18C208E52B1460191470030209798B
:1008630014700302097114700302096E24046003F7
:10087300020A4BE52B6004AF328002AF338F09D5F8
:100883000B05750B18B208E52B60047FC080027F4F
:1008930080EF440AFF1219043008087BFF7A0E79AF
:1008A3005980147B007A007922751303AF09120E65
:1008B300677B007A00792212160212110BEF147073
:1008C300030209482403601314604024FD70B0E55B
:1008D3002B60058509328003850933E52B60047F8E
:1008E300C080027F80EF440AFF121904E52B6004E5
:1008F300AF328002AF337B007A0079227513031283
:100903000E677B007A007922021602D3E509648020
:1009130094495003020882AF32EF3395E0FEEF248F
:1009230001FFE43EFEAD09ED3395E0FCD3ED9FEE10
:100933006480F8EC6480985007E52B70030208820A
:100943001509020882C3E509648094FF4003020885
:1009530082E53314C36480F8E5096480984007E5B1
:100963002B60030208820509020882852C09E52B06
:10097300B40303854209E52BB40203853D09E52B46
:10098300B404047F0E80027F0FE52B30E0047EC0A9
:1009930080027E80EE4FFF121904D50B05750B18EC
:1009A300B208300805750A208006E5092430F50AE7
:1009B3007F10121904AF0A12191712110BEF1460EA
:1009C300572403602314604324FD70CEE52BB40445
:1009D3000585092C8012E52BB4030585094280089F
:1009E300E52BB4020385093DE52BB40404AF2C8049
:1009F3000BE52BB40304AF428002AF3D8F0A7F1097
:100A0300121904E50A2430FF021917D3E50964809B
:100A13009480408615098082E52B7E00B403047F11
:100A23000480027F00EF2403FFE43EFEAD09ED33B3
:100A330095E0FCC3ED9FEE6480F8EC64809840037E
:080A430002099D050902099D4D
:010A4B002288
:10181600AB3C7F0A7E001217AC753C0FE5B0423C2C
:08182600E53C6B6002D322C314
:01182E002297
:1015450075B0FF753C0FE5B0423CE53C24416010A9
:1015550024E0600C24F0600824F060132480701EE1
:10156500E52D653C601B1218164016853C4622E5A4
:1015750046F4600D1218164008D20585462D7546AD
:02158500FF2243
:1012270075B0FF753C0FE5B0423CE53C24416010CA
:1012370024E0600C24F0600824F0600D24807055D1
:101247001218164053853C4622E546F4604A1218A8
:10125700164045E5462441601A24E0602024F060EA
:101267002C2470702BC2AF7546FF1208537546FFCA
:10127700D2AF22E52B04F508B406158010E52B70D4
:1012870005750805800AE52B14F5088003E4F508C1
:08129700AF08120A4C7546FF76
:01129F00222C
:10110B0075B0FF753C0FE5B0423C12181650037FCB
:10111B000022E53C2481604F24A0600C24F0604742
:10112B0024F0604824407062E546653C7036E54D1E
:10113B00700D054DE53CB4BF037F01227FFF2205F7
:10114B004DE54DC394604011E54D540F700BE53CDC
:10115B00B4BF037F01227FFF22E54DB4FF03754D22
:10116B005F7F0022E4F54D853C468021E546B4FFC8
:10117B00037F0022E5462411600A2470700C75462B
:10118B00FF7FFE227546FF7F02227546FF7F0022FE
:1016E400053FE53FB4B421E4F53F053BE53BB414C5
:1016F40017E4F53B0547E547B43C0DE4F5470541E0
:09170400E541B43C03E4F5412287
:10170D000540E540B4B421E4F540053EE53EB41492
:10171D0017E4F53E0548E548B43C0DE4F5480545AC
:09172D00E545B43C03E4F5452256
:101316007B007A007922300815751302AF41120E50
:10132600677B007A007925751302AF478013751322
:1013360002AF45120E677B007A007925751302AF5E
:1013460048120E671215FC7BFF7A0E795D121602A3
:101356007B007A0079251216027BFF7A0E795F12DE
:101366001602300804E53B8002E53EC313FF7B000E
:101376007A007922751301120E671215FC7BFF7A2B
:061386000E79610216025F
:10162E0030080AAF4CAE4BAD4AAC498008AF31AE74
:10163E0030AD2FAC2E7B007A007922750F05751018
:10164E00011205AC1215FC7BFF7A19790102160204
:0E05AC008F0B8E0A8D098C088B0C8A0D890E20
:1005BA00850F82758300E4120527751ECD751DCC43
:1005CA00751CCC751B3EE5107003020664E4FFFE41
:1005DA00FDFCAB0BAA0AA909A8081202AC7E0050BE
:1005EA00047F0180027F007C00EF2510FFEC3ECFE4
:1005FA002401CF3400FED3EF950F7480F86E984033
:10060A003AE4FFFEFDAB0BAA0AA909A8081202AC3C
:10061A0050047F0180027F008F12E4FFFEFDFCABD5
:10062A000BAA0AA909A8081202AC50047F01800289
:10063A007F00E50F14C39FF5108008C3E50F9510DE
:10064A0014F512AB0CAA0DA90EAF12EF3395E08F79
:10065A0082F583742E1205278003850F12851011E7
:10066A00AF111511EF601DAF1EAE1DAD1CAC1B7B8B
:10067A00CD7ACC79CC783D1201068F1E8E1D8D1C49
:10068A008C1B80DCE4FFFEFDFCAB0BAA0AA909A8BF
:10069A00081202ACAF0BAE0AAD09AC08AB1EAA1D1C
:1006AA00A91CA81B50291200118F0B8E0A8D098CC8
:1006BA0008120363AD07AC06C3E49DF514E49CF588
:1006CA0013EC12032AAB0BAA0AA909A808802A125A
:1006DA0000158F0B8E0A8D098C081203638E138FF7
:1006EA0014AC13AD14E412032AA804A905AA06AB94
:1006FA0007AF0BAE0AAD09AC081200118F1A8E199A
:10070A008D188C17E51204F511AD11ED3395E0FC47
:10071A00C3ED950F7480F86C985072AF1AAE19AD8C
:10072A0018AC17E4FBFA792078411201068F1A8E69
:10073A00198D188C171203637515008F16EF243064
:10074A00FFAB0CAA0DA90EE511FD3395E08D82F5DC
:10075A0083EF120527AF1AAE19AD18AC17C004C043
:10076A0005C006C007AC15AD16E412032AA804A9F1
:10077A0005AA06AB07D007D006D005D0041200118F
:10078A008F1A8E198D188C170511020713E512148A
:10079A00F511D3E511648094804040AE13AF147C08
:1007AA00007D0A120549ED2430FFAB0CAA0DA90EF3
:1007BA00E511FD3395E08D82F583EF120527AE131F
:1007CA00AF147C007D0A1205498E138F14E5144577
:1007DA0013700415118004151180B7E4FFFEFDFCA7
:1007EA00AB0BAA0AA909A8081202AC50047F2D80F3
:1007FA0021E5144513700AE512640160047F208024
:10080A0011AE13AF147C007D0A120549ED2430FFA6
:10081A00E43CAB0CAA0DA90EE511FD3395E08D82DF
:10082A00F583EF801EAF111511D3EF6480948040D9
:10083A0017AB0CAA0DA90EAF11EF3395E08F82F515
:08084A0083742012052780DDF4
:010852002283
:060E67008B108A118912B4
:100E6D00851382758300E4120527C3EF6480948097
:100E7D0050028001C39209E5137003020F1C300963
:100E8D00181513E5137003020F1C74012512F512CA
:100E9D00E43511F5116307FF0FEF800EE5136028A0
:100EAD00EF75F00A1204DAFF601E75F00A1204DA0B
:100EBD00AEF0EE2430AB10AA11A9121513851382D2
:100ECD0075830012052780D430092B74FF2512F588
:100EDD001274FF3511F511E513700BAB10AA11A9A2
:100EED0012742D120515AB10AA11A9128513827556
:100EFD008300742D8014E5136015AB10AA11A9128F
:0F0F0D001513851382758300742012052780E762
:010F1C0022B2
:10185D007580FFC292C290D291D292AF80EF20E7F5
:03186D00F2C29232
:011870002255
:0B190400EF6007C209F51212188422E0
:07191700D2098F12021884AF
:1018840012185DC291A2099290851280D29200C270
:0218940092229E
:0C18D400001FEF6007007E03DEFEDFF95E
:0118E00022E5
:10178200E4FDD295C2957F3C1218D4D2957F0C12FB
:1017920018D4A295E433FDD2957F181218D4AF0560
:0117A2002224
:0A16B9007FCC1217DF7FBE1217DF8F
:1016C3007D08E4FCC2957F011218D4D295ECC313B4
:1016D300FC3095034304807F051218D4DDE6AF0484
:0116E30022E4
:0217DF00AD0754
:1017E1007B08C2957F011218D4ED1392957F0512E3
:0A17F10018D4D295EDC313FDDBE818
:0117FB0022CB
:10189600121782EF700A7FCC1217DF7F441217DF10
:0118A600221F
:1017C100E4F9FCFBFA121782EF6004E4FEFF221237
:0D17D10016B9A9071216C3EFFAE9AE02FF20
:0117DE0022E8
:10168D00AC07AA03A905121782EF701F7FCC1217A2
:10169D00DF7F4E1217DFAF041217DFAF011217DF16
:0C16AD00EAC43354E0441FFF1217DF2290
:1014FB008B088A09890A121782EF703D1216B912EE
:10150B0016C31216C3AB08AA09A90AEF12051512C6
:10151B0016C3AB0BAA0CA90DEF1205151216C3AB14
:10152B000EAA0FA910EF120515AB0EAA0FA91012D8
:0A153B0004FCC41354071205152226
:10184700121782EF700F7FCC1217DF7F481217DF56
:061857007F0C1218D422E0
:07190F00D297121916D296BF
:0119160022AE
:1018A700D296D29700121916C29700121916C2962D
:0118B700220E
:0E18B800C297D29600121916D2970002191686
:061871001218A712182F47
:0C18770012190FA2979209C296A209B3A1
:011883002242
:0E18C600C297121911C296121916D29700225B
:0C18E10012190FC296121916C2970022AD
:10182F00C2967E08EF339297D296121916C296EF90
:07183F0025E0FFDEEFD29768
:01184600227F
:1017FC00D2977E08EF25E0FFC296121911A297E44A
:0A180C00334207DEEFC29602191600
:0C18ED00D29600D297001219160218B80B
:0215C400AE0770
:1015C60012187192085029AF0512182F1218779227
:1015D60008501DAD0DED60181204FCFF12182F12F5
:1015E60018779208500A740129F9E43AFA1D80E541
:0515F6001218B8A20864
:0115FB0022CD
:0214AB00AC078C
:1014AD0012187192085041AF0512182F1218779229
:1014BD000850351218A7EC04FF12182F1218779246
:1014CD00085025E50D14FDED60141217FCEF120503
:1014DD00151218C6740129F9E43AFA1D80E912179C
:0D14ED00FCEF1205151218E11218B8A20844
:0114FA0022CF
:10000E000203CFE86480F8E933E83360110460F04E
:10001E00ED33EC337009E8FCE9FDEAFEEBFF220458
:10002E0060DED3EB9FEA9EE99DE8C2E78CF0C2F753
:10003E0095F0400CE8CCF8E9CDF9EACEFAEBCFFB1F
:10004E0012039A85D0F05804700320D5B3E80470DB
:10005E00075002B2D50203D992D5EC0460F7E4CC76
:10006E00C0E0C398F8603B94186008400DD0E0FBE8
:10007E000203B1E4FBFAC9FC8028E830E406E4C9C7
:10008E00FBE4CAFCE830E305E4C9CACBFCE854073C
:10009E006010F8C3E913F9EA13FAEB13FBEC13FC47
:1000AE00D8F130F52FC3E49CFCEF9BFFEE9AFEEDEA
:1000BE0099FDD0E0FBEF4E4D4C701222DB03020394
:1000CE00D6EC2CFCEF33FFEE33FEED33FDED30E7D7
:1000DE00EB0203B1EF2BFFEE3AFEED39FDD0E0FB64
:1000EE0050130BBB00030203D9ED13FDEE13FEEF0D
:0800FE0013FFEC13FC0203B137
:10010600EC4D6011E8497017ED33EC3304600DE4F3
:10011600FCFFFEFD22E933E8330470F80203CF1238
:10012600039A58046009E4CC248150062850090239
:1001360003D92840030203D6C0E0EB4A7044B980D5
:1001460006D0E0FB0203C5EF4E701CBD8008EBFF36
:10015600EAFEE9FD80EBE98DF0A4FEE5F00201EF91
:10016600E9CDF9EAFEEBFFEF89F0A4FCE5F0CE89D4
:10017600F0A42EFFE435F0CD89F0A42DFEE435F091
:100186008067EF4E7005BD80D780C3EF8BF0A4ACBF
:10019600F0EE8BF0A42CFCE435F0F8EF8AF0A42CFA
:1001A600E5F038FCE433CB8DF0A42CFCE5F03BF80D
:1001B600EE8AF0A42CFCE5F038F8E433CF89F0A4FD
:1001C6002CFCE5F038CF3400CE89F0A42FFFE5F003
:1001D6003EFEE433C98DF0A42EFEE5F039CD8AF05B
:1001E600A42FFFE5F03EFEE43DFD33D0E0FB5007D3
:1001F6000BBB000F0203D9EC2CFCEF33FFEE33FEF2
:06020600ED33FD0203B11F
:10020C000203D9EC5D046005E8590470030203CFC6
:10021C0012039A580460F6EC4860F2EC7004FDFE90
:10022C00FF22C860DB2481C85009C39860025006C5
:10023C000203D69850CAF582E9294B4A7005AB8265
:10024C000203C575F0007C1A7880C3EF9BEE9AED23
:10025C0099400DC3EF9BFFEE9AFEED99FDE842F03D
:10026C00DC23ACF0D0E0FFD0E0FED0E0FDAB822090
:10027C00E7101BEB60BAEC2CFCEF33FFEE33FEED1A
:10028C0033FD0203B1E803F830E705C0F075F00068
:10029C00EF2FFFEE33FEED33FD40B830E7C280AAFE
:1002AC0074F8CC6480CCC86480C8F58204604FC3F9
:1002BC00EB9FF5F0EA9E42F0E99D42F0E89C45F098
:1002CC00603C501DE5825FFFE582D313CB5BCBF422
:1002DC002B5582FB50280ABA002409B9002008804B
:1002EC001DE5825BFBE582D313CF5FCFF4C3132FE5
:1002FC005582FF50090EBE00050DBD00010CC3EB6D
:10030C009FF5F0EA9E42F0E99D42F0E89C45F060D2
:09031C0007CC4820E701B3EC22F4
:1003250075F020800E75F010800575F0087D007E53
:10033500007F003392D530D50312059EEC33401073
:10034500EF33FFEE33FEED33FDEC33FCD5F0ED225C
:0E035500E5F0247EA2D513CC92E7CDCEFF2298
:10036300EDD2E7CD33EC3392D524814006E4FFFE92
:10037300FDFC22FCE4CFCECDCC24E0501174FF80F1
:10038300EDC3CC13CCCD13CDCE13CECF13CF04708E
:07039300F030D5DE02059EEB
:10039A00E9D2E7C933E833F892D5EDD2E7CD33ECA9
:0703AA0033FC5002B2D52222
:1003B100EC30E7100FBF000C0EBE00080DBD0004AD
:1003C1000BEB6014A2D5EB13FCED92E7FD2274FF59
:1003D100FCFDFEFF22E480F8A2D574FF13FC7D80B2
:0303E100E480EFC6
:1011A700021587E493A3F8E493A34003F68001F2C2
:1011B70008DFF48029E493A3F85407240CC8C33349
:1011C700C4540F4420C8834004F456800146F6DF18
:1011D700E4800B01020408102040809012A0E47EF6
:1011E700019360BCA3FF543F30E509541FFEE4930D
:1011F700A360010ECF54C025E060A840B8E493A3D4
:10120700FAE493A3F8E493A3C8C582C8CAC583CAFE
:10121700F0A3C8C582C8CAC583CADFE9DEE780BEB6
:0113150000D7
:1003E400E709F608DFFA8046E709F208DFFA803EFB
:1003F40088828C83E709F0A3DFFA8032E309F608E8
:10040400DFFA8078E309F208DFFA807088828C834F
:10041400E309F0A3DFFA806489828A83E0A3F60803
:10042400DFFA805889828A83E0A3F208DFFA804CDD
:1004340080D280FA80C680D4806980F280338010B4
:1004440080A680EA809A80A880DA80E280CA80331D
:1004540089828A83ECFAE493A3C8C582C8CCC58395
:10046400CCF0A3C8C582C8CCC583CCDFE9DEE78065
:100474000D89828A83E493A3F608DFF9ECFAA9F0E4
:10048400EDFB2289828A83ECFAE0A3C8C582C8CC3A
:10049400C583CCF0A3C8C582C8CCC583CCDFEADE53
:1004A400E880DB89828A83E493A3F208DFF980CCB5
:1004B40088F0EF60010E4E60C388F0ED2402B404AE
:1004C4000050B9F582EB2402B4040050AF23234555
:0604D40082239004347342
:1004DA00C2D530F707B2D563F0FF05F030E70CB2AA
:1004EA00D5F4048463F0FF05F080018430D502F46A
:0204FA000422DA
:1004FC00BB010689828A83E0225002E722BBFE02FE
:09050C00E32289828A83E4932230
:10051500BB010689828A83F0225002F722BBFE01C5
:02052500F322BF
:10052700F8BB010DE58229F582E5833AF583E8F00A
:10053700225006E92582C8F622BBFE05E92582C8B6
:02054700F2229E
:10054900BC000BBE0029EF8DF084FFADF022E4CC96
:10055900F875F008EF2FFFEE33FEEC33FCEE9DEC5F
:10056900984005FCEE9DFE0FD5F0E9E4CEFD22EDA5
:10057900F8F5F0EE8420D21CFEADF075F008EF2FEF
:10058900FFED33FD4007985006D5F0F222C398FDE0
:050599000FD5F0EA227D
:0E059E00C3E49FFFE49EFEE49DFDE49CFC226E
:00000001FF
