:030000000211ECFE
:0C11EC00787FE4F6D8FD7581D50212333F
:0B1A1200015102A305460A8CDF4300CF
:10136B00C100C106C107C184C105C101C102C103CE
:10137B00C1080239000002280000014D00012D7F39
:10138B00012BFF01337F0132C9043442A10000015C
:10139B0038000449C25C0000042E42FE0000013FED
:1013AB0000013B00014700014100014000013E00EC
:1013BB00014800014500014202013D03012C0101DE
:1013CB002A07062220202020200002430000013C97
:0713DB000F0146FF0156005F
:1016BB001215DA12175A30000F300707C207E4FF72
:1016CB00120AB51212F280EE300812C2087B007AB1
:1016DB00007956750D01E4FD7FA012152830040525
:0D16EB00120C00C20412101912167980C9E9
:03000B00020D22C1
:100D2200C0E0C0F0C083C082C0D075D000C000C097
:100D320001C002C003C004C005C006C00720042CC5
:100D420075F002E53DA42412F582E5F0341AF5832C
:100D52000529E52970020528FFD37401939FE493C6
:100D620095285008752800752900D20430055A05C7
:100D72003AE53A70020539C394A0E5399405403A40
:100D8200E53A94D8E53994094021E53A9410E539D9
:100D9200940E4008753900753A00802FE538C394E7
:100DA200034003D38001C392A78020E538C3940295
:100DB2004003D38001C392A78011E538C394014058
:100DC20003D38001C392A78002C2A7300105121784
:100DD200E08006300203121809D007D006D005D0F1
:100DE20004D003D002D001D000D0D0D082D083D0A2
:040DF200F0D0E0322B
:03000300020F6E7B
:100F6E00C0E0C0F0C083C082C0D075D000C000C049
:0D0F7E0001C002C003C004C005C006C007CA
:100F8B00751F1475B0FF7F03E5B04207EF64FB607C
:100F9B00127F0A7E001218CB7F03E5B04207EF6485
:100FAB00FB70507F327E001218CBD51FD930003921
:100FBB00AB3DAD32AF33121789121966785676FFF7
:100FCB00E52C33333354F8FFE542C43354E04F453B
:100FDB002A56F6D2081219A2752800752900C204E8
:100FEB00D28C752BFFD2068008C2A3C2A7C28CD2AB
:030FFB0007B2003A
:100FFE00D007D006D005D004D003D002D001D00047
:0B100E00D0D0D082D083D0F0D0E032F0
:03001B00020006DA
:0100060032C7
:1015DA00C2A7C2A3758902E4F58CF58AD288C2B87B
:1015EA00D2B9F50B750C00750D32F50E750F007535
:1015FA00103DFB7A00793312162F1219FA7B007A02
:10160A00007956750D01E4FD7FA01212787856E62E
:10161A00FF5407F52AEF1313135403F52CE6C413EA
:05162A005403F542220B
:10175A001219A2121459120C007F0E121A1D754387
:10176A00007544281210C07F0C121A1DE4F543F5C7
:0F177A00441219A2C204D2AFD2A9D28CD2A82293
:100C0000C2AF1218E0AC06AD07EC12033A8F378E74
:100C1000368D358C341219A2750823D508FDD2AF54
:100C2000AF37AE36AD35AC34E4FBFA7980783D129F
:100C300001168F378E368D358C34AF4CAE4BAD4AA6
:100C4000AC49AB37AA36A935A8341202BC600E40B5
:100C50000C85374C85364B85354A853449AF31AEE6
:100C600030AD2FAC2EAB37AA36A935A8341202BC52
:100C7000500C85373185363085352F85342EAC3391
:100C8000EC12033FAB37AA36A935A8341202BC6078
:100C9000644062D201D205AC33EC12033FA804A930
:100CA00005AA06AB07AF37AE36AD35AC341200211E
:100CB000C004C005C006C007AC42E412033FA8044C
:100CC000A905AA06AB07D007D006D005D0041202AA
:100CD0001FE4FBFA7980783F1200251203738F38E6
:100CE000E538D3940340037538037508171217E0ED
:100CF000D508FA8007C201C205E4F538AC32EC121F
:100D0000033FAB37AA36A935A8341202BC500ED225
:100D100002D2A3750815121809D508FA22C2A3C277
:010D200002D0
:010D210022AF
:10101900E52D2441605B24E0607324F07003021025
:10102900B7247060030210BF3006051210C0C20653
:101039007FC2121A1DAF37AE36AD35AC347B007A9C
:10104900007922750F057510011205BC7B007A0025
:1010590079221216FE7FCF121A1D7B007A0079229F
:10106900751201AF38120EB87B007A007922021688
:10107900FE300605121832C2067F89121A1DD209DE
:1010890012172A7FC9121A1DC20902172A3006052A
:10109900121858C2063001097F88121A1DD2098018
:1010A9000A30020A7FC8121A1DC2091213E3300658
:0710B90005121583C2062297
:100DF60057656C636F6D6520746F20414155435391
:100E0600002020202020204E4F2E3133202020206D
:100E16002000483A0020204C3A00543A0020204650
:100E2600414E3A00486967686573743A20004C6F12
:100E3600776573743A20200041626F766520483AE0
:100E46000042656C6F77204C3A0054523A200020DD
:100E560020204647533A2000617564696F3A2000A6
:100E660048204C696D69743A20004C204C696D69C4
:100E7600743A2000545265736F6C7574696F6E3ADC
:100E8600200046476561722720537465703A20003A
:100E960072696E67746F6E653A20200041756469E9
:100EA6006F3A2000202020006D002E0073007E7F08
:020EB6002020FA
:0918C200E54425E0FFE54333FE97
:1018CB00EF1FAA0670011E4A600A7D7BAC051DEC5A
:0418DB0060EE80F843
:0118DF0022E6
:0616F8007B007A0079225C
:1016FE008B0E8A0F8910AB0EAA0FA91012050C6063
:10170E001A0510E5107002050F14F912050CFF12E0
:0C171E001A30AF44AE431218CB80DB221F
:101459007F38121A1D7F0C121A1D7F06121A1D7F62
:1014690001121A1D7F90121A1D7BFF7A0D79F6124F
:1014790016FE7543007544C87FD0121A1D7F0712E6
:101489001A1D7BFF7A0E79071216FE7F06121A1DA6
:101499007508037F08121A1D1218C27F0C121A1D33
:1014A9001218C2D508ED7508107F18121A1DAF441D
:1014B900AE431218CBD508F17F01121A1DE4F5438A
:0214C900F544E8
:0114CB0022FE
:1010C0007F01121A1D7BFF7A0E79181216FE7B0023
:1010D0007A007922751203AF33120EB81216F87B1C
:1010E000FF7A1A791A1216FE7BFF7A0E791B1216F6
:1010F000FE7B007A007922751203AF32120EB8120D
:1011000016F87BFF7A1A791A1216FE7FC0121A1D82
:101110007BFF7A0E79201216FEAF37AE36AD35ACB6
:10112000347B007A007922750F057510011205BC19
:101130001216F87BFF7A1A791A1216FE7BFF7A0EC6
:1011400079231216FE7B007A007922751201AF38DE
:0C115000120EB87B007A0079220216FE15
:101832007F01121A1D7BFF7A0E792A1216FED20937
:1018420012172A7FC0121A1D7BFF7A0E79341216E4
:06185200FEC20902172A84
:101858007F01121A1D7BFF7A0E793E1216FED209FD
:101868001213E37FC0121A1D7BFF7A0E79471216F6
:06187800FEC2090213E3A9
:101583007F01121A1D7F01121A1D7BFF7A0E7950FB
:101593001216FEE53D2430FF121A307BFF7A0E79D6
:1015A300551216FEE5422430FF121A307BFF7A1AD9
:1015B300791A1216FE7FC0121A1D7BFF7A0E795E0E
:1015C3001216FEE4F508E508C3952A50097FFF12B9
:0615D3001A30050880F04B
:0115D90022EF
:020AB5008F09A7
:100AB700780A7C007D007BFF7A0E79B47E007F0484
:100AC7001204C4E509652B7003020BFFE52BC31362
:100AD700FFE509C3136F7003020BA17F01121A1DF3
:100AE700E509C31314605F147003020B75240260D9
:100AF70003020BA17F81121A1D7BFF7A0E79661202
:100B070016FE7B007A007922751203AF33120EB8F6
:100B17001216F87BFF7A1A791A1216FE7FC1121A7B
:100B27001D7BFF7A0E79701216FE7B007A00792200
:100B3700751203AF32120EB81216F87BFF7A1A79C4
:100B47001A1216FE80547F81121A1D7BFF7A0E79C6
:100B57007A1216FEE53D2430FF121A307FC1121AB1
:100B67001D7BFF7A0E79881216FEE54280267F826A
:100B7700121A1D7BFF7A0E79961216FEE52C243089
:100B8700FF121A307FC4121A1D7BFF7A0E79A21248
:100B970016FEE52A2430FF121A30E5091392097F61
:100BA70080121A1DA209E43325E0FF740A2FF8E624
:100BB700FF121A307F8F121A1DA209E43325E0FFB6
:100BC700740B2FF8E6FF121A30B2097FC0121A1DF4
:100BD700A209E43325E0FF740A2FF8E6FF121A3062
:100BE7007FCF121A1DA209E43325E0FF740B2FF8FB
:080BF700E6FF121A3085092BFC
:010BFF0022D3
:10086300750B18C209E52B14601F14700302099756
:1008730014700302098F14700302098714700302B2
:10088300098424056003020AB4E52B6004AF3280B7
:1008930002AF338F09D50B05750B18B209E52B6031
:1008A300047FC080027F80EF440AFF121A1D3009C3
:1008B300087BFF7A0E79AA80147B007A007922756F
:1008C3001203AF09120EB87B007A0079221216FECA
:1008D30012115CEF14700302095E240360131460A9
:1008E3004024FD70B0E52B6005850932800385093E
:1008F30033E52B60047FC080027F80EF440AFF1240
:100903001A1DE52B6004AF328002AF337B007A00FF
:100913007922751203120EB87B007A00792202162F
:10092300FED3E509648094495003020898AF32EF7F
:100933003395E0FEEF2401FFE43EFEAD09ED339570
:10094300E0FCD3ED9FEE6480F8EC6480985007E5FB
:100953002B70030208981509020898C3E5096480FF
:1009630094FF4003020898E53314C36480F8E50953
:100973006480984007E52B60030208980509020884
:1009830098852A09E52BB40403852C09E52BB403C8
:1009930003854209E52BB40203853D09E52BB40524
:1009A300047F0C800BE52BB404047F0E80027F0FC1
:1009B300E52B30E0047EC080027E80EE4FFF121AEA
:1009C3001DD50B05750B18B209300905750A208072
:1009D30006E5092430F50A7F10121A1DAF0A121A10
:1009E3003012115CEF147003020A7C240360351487
:1009F300605E24FD70CBE52BB4050585092A8024B0
:100A0300E52BB4040DE509652C6007D20385092C99
:100A13008012E52BB403058509428008E52BB40257
:100A23000385093DE52BB40504AF2A8014E52BB4F7
:100A33000404AF2C800BE52BB40304AF428002AF58
:100A43003D8F0A7F10121A1DE50A2430FF021A3067
:100A5300E52B7E00B404047F0180027F00AD09ED25
:100A63003395E0FCD3ED9FEE6480F8EC64809850FE
:100A7300030209C415090209C4E52B64036005E5F3
:100A83002BB405067E007F0480047E007F00EF24E4
:100A930003FFE43EFEAD09ED3395E0FCC3ED9FEEAD
:100AA3006480F8EC64809840030209C405090209D4
:010AB300C47E
:010AB400221F
:10193500AB3C7F0A7E001218CB753C0FE5B0423CEC
:08194500E53C6B6002D322C3F4
:01194D002277
:1016790075B0FF753C0FE5B0423CE53C2441601074
:1016890024E0600C24F0600824F060132480701EAC
:10169900E52D653C601B1219354016853C4622E54F
:1016A90046F4600D1219354008D20685462D754657
:0216B900FF220E
:1012F20075B0FF753C0FE5B0423CE53C24416010FF
:1013020024E0600C24F0600824F0600D2480705505
:101312001219354053853C4622E546F4604A1219BB
:10132200354045E5462441601A24E0602024F060FF
:101332002C2470702BC2AF7546FF1208637546FFEE
:10134200D2AF22E52B04F508B406158010E52B7008
:1013520005750805800AE52B14F5088003E4F508F5
:08136200AF08120AB57546FF41
:01136A002260
:10115C0075B0FF753C0FE5B0423C12193550037F5A
:10116C000022E53C2481604F24A0600C24F06047F1
:10117C0024F0604824407062E546653C7036E54DCD
:10118C00700D054DE53CB4BF037F01227FFF2205A6
:10119C004DE54DC394604011E54D540F700BE53C8B
:1011AC00B4BF037F01227FFF22E54DB4FF03754DD1
:1011BC005F7F0022E4F54D853C468021E546B4FF77
:1011CC00037F0022E5462411600A2470700C7546DA
:1011DC00FF7FFE227546FF7F02227546FF7F0022AD
:1017E000053FE53FB4B421E4F53F053BE53BB414C8
:1017F00017E4F53B0547E547B43C0DE4F5470541E3
:09180000E541B43C03E4F541228A
:101809000540E540B4B421E4F540053EE53EB41495
:1018190017E4F53E0548E548B43C0DE4F5480545AF
:09182900E545B43C03E4F5452259
:1013E3007B007A007922300915751202AF41120E83
:1013F300B87B007A007925751202AF478013751206
:1014030002AF45120EB87B007A007925751202AF40
:1014130048120EB81216F87BFF7A0E79AE1216FE3A
:101423007B007A0079251216FE7BFF7A0E79B012C3
:1014330016FE300904E53B8002E53EC313FF7B0043
:101443007A007922751201120EB81216F87BFF7A10
:061453000E79B20216FE44
:10172A0030090AAF4CAE4BAD4AAC498008AF31AE76
:10173A0030AD2FAC2E7B007A007922750F0575101B
:10174A00011205BC1216F87BFF7A1A791A0216FEE4
:0E05BC008F0B8E0A8D098C088B0C8A0D890E10
:1005CA00850F82758300E4120537751ECD751DCC23
:1005DA00751CCC751B3EE5107003020674E4FFFE21
:1005EA00FDFCAB0BAA0AA909A8081202BC7E00509E
:1005FA00047F0180027F007C00EF2510FFEC3ECFD4
:10060A002401CF3400FED3EF950F7480F86E984022
:10061A003AE4FFFEFDAB0BAA0AA909A8081202BC1C
:10062A0050047F0180027F008F12E4FFFEFDFCABC5
:10063A000BAA0AA909A8081202BC50047F01800269
:10064A007F00E50F14C39FF5108008C3E50F9510CE
:10065A0014F512AB0CAA0DA90EAF12EF3395E08F69
:10066A0082F583742E1205378003850F12851011C7
:10067A00AF111511EF601DAF1EAE1DAD1CAC1B7B7B
:10068A00CD7ACC79CC783D1201168F1E8E1D8D1C29
:10069A008C1B80DCE4FFFEFDFCAB0BAA0AA909A8AF
:1006AA00081202BCAF0BAE0AAD09AC08AB1EAA1DFC
:1006BA00A91CA81B50291200218F0B8E0A8D098CA8
:1006CA0008120373AD07AC06C3E49DF514E49CF568
:1006DA0013EC12033AAB0BAA0AA909A808802A123A
:1006EA0000258F0B8E0A8D098C081203738E138FC7
:1006FA0014AC13AD14E412033AA804A905AA06AB74
:10070A0007AF0BAE0AAD09AC081200218F1A8E1979
:10071A008D188C17E51204F511AD11ED3395E0FC37
:10072A00C3ED950F7480F86C985072AF1AAE19AD7C
:10073A0018AC17E4FBFA792078411201168F1A8E49
:10074A00198D188C171203737515008F16EF243044
:10075A00FFAB0CAA0DA90EE511FD3395E08D82F5CC
:10076A0083EF120537AF1AAE19AD18AC17C004C023
:10077A0005C006C007AC15AD16E412033AA804A9D1
:10078A0005AA06AB07D007D006D005D0041200216F
:10079A008F1A8E198D188C170511020723E512146A
:1007AA00F511D3E511648094804040AE13AF147CF8
:1007BA00007D0A120559ED2430FFAB0CAA0DA90ED3
:1007CA00E511FD3395E08D82F583EF120537AE13FF
:1007DA00AF147C007D0A1205598E138F14E5144557
:1007EA0013700415118004151180B7E4FFFEFDFC97
:1007FA00AB0BAA0AA909A8081202BC50047F2D80D3
:10080A0021E5144513700AE512640160047F208013
:10081A0011AE13AF147C007D0A120559ED2430FF86
:10082A00E43CAB0CAA0DA90EE511FD3395E08D82CF
:10083A00F583EF801EAF111511D3EF6480948040C9
:10084A0017AB0CAA0DA90EAF11EF3395E08F82F505
:08085A0083742012053780DDD4
:010862002273
:060EB8008B0F8A10891166
:100EBE00851282758300E4120537C3EF6480948037
:100ECE0050028001C3920AE5127003020F6D300AC0
:100EDE00181512E5127003020F6D74012511F5112C
:100EEE00E43510F5106307FF0FEF800EE512602852
:100EFE00EF75F00A1204EAFF601E75F00A1204EA9A
:100F0E00AEF0EE2430AB0FAA10A911151285128285
:100F1E0075830012053780D4300A2B74FF2511F526
:100F2E001174FF3510F510E512700BAB0FAA10A956
:100F3E0011742D120525AB0FAA10A91185128275F9
:100F4E008300742D8014E5126015AB0FAA10A91141
:0F0F5E001512851282758300742012053780E703
:010F6D002261
:10197C007580FFC292C290D291D292AF80EF20E7D5
:03198C00F2C29212
:01198F002235
:0B1A1D00EF6007C20AF51112199022B9
:071A3000D20A8F1102199088
:1019900012197CC291A20A9290851180D29200C243
:0219A000922291
:0C000E00001FEF6007007E03DEFEDFF93C
:01001A0022C3
:1018A100E4FDD295C2957F3C12000ED2957F0C12B9
:1018B100000EA295E433FDD2957F1812000EAF05FC
:0118C1002204
:0A17B5007FCC1218FE7FBE1218FE52
:1017BF007D08E4FCC2957F0112000ED295ECC31395
:1017CF00FC3095034304807F0512000EDDE6AF0465
:0117DF0022E7
:0218FE00AD0734
:101900007B08C2957F0112000EED1392957F0512A0
:0A191000000ED295EDC313FDDBE8D5
:01191A0022AA
:1019A2001218A1EF700A7FCC1218FE7F441218FEA3
:0119B2002212
:1018E000E4F9FCFBFA1218A1EF6004E4FEFF2212F7
:0D18F00017B5A9071217BFEFFAE9AE02FF06
:0118FD0022C8
:10178900AC07AA03A9051218A1EF701F7FCC121884
:10179900FE7F4E1218FEAF041218FEAF011218FE9A
:0C17A900EAC43354E0441FFF1218FE2273
:10162F008B088A09890A1218A1EF703D1217B5129B
:10163F0017BF1217BFAB08AA09A90AEF1205251287
:10164F0017BFAB0BAA0CA90DEF1205251217BFABD5
:10165F000EAA0FA910EF120525AB0EAA0FA9101293
:0A166F00050CC413540712052522D0
:101966001218A1EF700F7FCC1218FE7F481218FED6
:061976007F0C12000E229E
:071A2800D297121A2FD2968B
:011A2F002294
:0C19E000121A28A297920AC296A20AB31B
:0119EC0022D8
:1019B300D296D29700121A2FC29700121A2FC296EC
:0119C3002201
:0E19C400C297D29600121A2FD29700021A2F45
:0C19FA00D29600D29700121A2F0219C4D6
:0E19D200C297121A2AC296121A2FD29700221A
:0C1A0600121A28C296121A2FC297002252
:10194E00C2967E08EF339297D296121A2FC296EF56
:07195E0025E0FFDEEFD29748
:01196500225F
:10191B00D2977E08EF25E0FFC296121A2AA297E40F
:0A192B00334207DEEFC296021A2FC6
:0A1278008F088D098B0A8A0B890C80
:10128200E50D7002D3221219B3AF0812194E1219CA
:10129200E092095055AF0912194E1219E092095005
:1012A200491219B3E50804FF12194E1219E0920906
:1012B2005038E50D14F50EE50E601F12191BAB0A2E
:1012C200AA0BA90CEF1205251219D27401250CF5EF
:1012D2000CE4350BF50B150E80DD12191BAB0AAAB7
:0F12E2000BA90CEF120525121A061219C4A20946
:0112F10022DA
:0A1528008F088D098B0A8A0B890CCD
:10153200E50D7002D3221219B3AF0812194E121917
:10154200E092095036AF0912194E1219E092095071
:101552002A850D0EE50E6023AB0AAA0BA90C120513
:101562000CFF12194E1219E09209500F7401250C4A
:10157200F50CE4350BF50B150E80D91219C4A2092E
:011582002246
:0C19ED007FA4AE071FEE70FA7F02DFFE41
:0119F90022CB
:02187E008F5485
:101880007555101219ED1219B3AF5412194E1219E1
:10189000E04003D555ED1219C4E5556002D322C3CB
:0118A0002225
:1014CC008F4E8D4F8B508A518952E553D3941040D7
:1014DC0032AB50AA51A952750D10AD4FAF4E12152B
:1014EC00284001227410254FF54F74102552F552E7
:1014FC00E43551F55174F02553F553AF4E12187E67
:10150C0040C822AB50AA51A95285530DAD4FAF4ED6
:0C151C001215285005AF4E02187EC322A5
:10001E000203DFE86480F8E933E83360110460F02E
:10002E00ED33EC337009E8FCE9FDEAFEEBFF220448
:10003E0060DED3EB9FEA9EE99DE8C2E78CF0C2F743
:10004E0095F0400CE8CCF8E9CDF9EACEFAEBCFFB0F
:10005E001203AA85D0F05804700320D5B3E80470BB
:10006E00075002B2D50203E992D5EC0460F7E4CC56
:10007E00C0E0C398F8603B94186008400DD0E0FBD8
:10008E000203C1E4FBFAC9FC8028E830E406E4C9A7
:10009E00FBE4CAFCE830E305E4C9CACBFCE854072C
:1000AE006010F8C3E913F9EA13FAEB13FBEC13FC37
:1000BE00D8F130F52FC3E49CFCEF9BFFEE9AFEEDDA
:1000CE0099FDD0E0FBEF4E4D4C701222DB03020384
:1000DE00E6EC2CFCEF33FFEE33FEED33FDED30E7B7
:1000EE00EB0203C1EF2BFFEE3AFEED39FDD0E0FB44
:1000FE0050130BBB00030203E9ED13FDEE13FEEFED
:08010E0013FFEC13FC0203C116
:10011600EC4D6011E8497017ED33EC3304600DE4E3
:10012600FCFFFEFD22E933E8330470F80203DF1218
:1001360003AA58046009E4CC248150062850090219
:1001460003E92840030203E6C0E0EB4A7044B980A5
:1001560006D0E0FB0203D5EF4E701CBD8008EBFF16
:10016600EAFEE9FD80EBE98DF0A4FEE5F00201FF71
:10017600E9CDF9EAFEEBFFEF89F0A4FCE5F0CE89C4
:10018600F0A42EFFE435F0CD89F0A42DFEE435F081
:100196008067EF4E7005BD80D780C3EF8BF0A4ACAF
:1001A600F0EE8BF0A42CFCE435F0F8EF8AF0A42CEA
:1001B600E5F038FCE433CB8DF0A42CFCE5F03BF8FD
:1001C600EE8AF0A42CFCE5F038F8E433CF89F0A4ED
:1001D6002CFCE5F038CF3400CE89F0A42FFFE5F0F3
:1001E6003EFEE433C98DF0A42EFEE5F039CD8AF04B
:1001F600A42FFFE5F03EFEE43DFD33D0E0FB5007C3
:100206000BBB000F0203E9EC2CFCEF33FFEE33FED1
:06021600ED33FD0203C1FF
:10021C000203E9EC5D046005E8590470030203DF96
:10022C001203AA580460F6EC4860F2EC7004FDFE70
:10023C00FF22C860DB2481C85009C39860025006B5
:10024C000203E69850CAF582E9294B4A7005AB8245
:10025C000203D575F0007C1A7880C3EF9BEE9AED03
:10026C0099400DC3EF9BFFEE9AFEED99FDE842F02D
:10027C00DC23ACF0D0E0FFD0E0FED0E0FDAB822080
:10028C00E7101BEB60BAEC2CFCEF33FFEE33FEED0A
:10029C0033FD0203C1E803F830E705C0F075F00048
:1002AC00EF2FFFEE33FEED33FD40B830E7C280AAEE
:1002BC0074F8CC6480CCC86480C8F58204604FC3E9
:1002CC00EB9FF5F0EA9E42F0E99D42F0E89C45F088
:1002DC00603C501DE5825FFFE582D313CB5BCBF412
:1002EC002B5582FB50280ABA002409B9002008803B
:1002FC001DE5825BFBE582D313CF5FCFF4C3132FD5
:10030C005582FF50090EBE00050DBD00010CC3EB5C
:10031C009FF5F0EA9E42F0E99D42F0E89C45F060C2
:09032C0007CC4820E701B3EC22E4
:1003350075F020800E75F010800575F0087D007E43
:10034500007F003392D530D5031205AEEC33401053
:10035500EF33FFEE33FEED33FDEC33FCD5F0ED224C
:0E036500E5F0247EA2D513CC92E7CDCEFF2288
:10037300EDD2E7CD33EC3392D524814006E4FFFE82
:10038300FDFC22FCE4CFCECDCC24E0501174FF80E1
:10039300EDC3CC13CCCD13CDCE13CECF13CF04707E
:0703A300F030D5DE0205AECB
:1003AA00E9D2E7C933E833F892D5EDD2E7CD33EC99
:0703BA0033FC5002B2D52212
:1003C100EC30E7100FBF000C0EBE00080DBD00049D
:1003D1000BEB6014A2D5EB13FCED92E7FD2274FF49
:1003E100FCFDFEFF22E480F8A2D574FF13FC7D80A2
:0303F100E480EFB6
:1011F8000216BBE493A3F8E493A34003F68001F23C
:1012080008DFF48029E493A3F85407240CC8C333F7
:10121800C4540F4420C8834004F456800146F6DFC6
:10122800E4800B010204081020408090136BE47ED8
:10123800019360BCA3FF543F30E509541FFEE493BB
:10124800A360010ECF54C025E060A840B8E493A382
:10125800FAE493A3F8E493A3C8C582C8CAC583CAAD
:10126800F0A3C8C582C8CAC583CADFE9DEE780BE65
:0113E200000A
:1003F400E709F608DFFA8046E709F208DFFA803EEB
:1004040088828C83E709F0A3DFFA8032E309F608D7
:10041400DFFA8078E309F208DFFA807088828C833F
:10042400E309F0A3DFFA806489828A83E0A3F608F3
:10043400DFFA805889828A83E0A3F208DFFA804CCD
:1004440080D280FA80C680D4806980F280338010A4
:1004540080A680EA809A80A880DA80E280CA80330D
:1004640089828A83ECFAE493A3C8C582C8CCC58385
:10047400CCF0A3C8C582C8CCC583CCDFE9DEE78055
:100484000D89828A83E493A3F608DFF9ECFAA9F0D4
:10049400EDFB2289828A83ECFAE0A3C8C582C8CC2A
:1004A400C583CCF0A3C8C582C8CCC583CCDFEADE43
:1004B400E880DB89828A83E493A3F208DFF980CCA5
:1004C40088F0EF60010E4E60C388F0ED2402B4049E
:1004D4000050B9F582EB2402B4040050AF23234545
:0604E40082239004447322
:1004EA00C2D530F707B2D563F0FF05F030E70CB29A
:1004FA00D5F4048463F0FF05F080018430D502F45A
:02050A000422C9
:10050C00BB010689828A83E0225002E722BBFE02ED
:09051C00E32289828A83E4932220
:10052500BB010689828A83F0225002F722BBFE01B5
:02053500F322AF
:10053700F8BB010DE58229F582E5833AF583E8F0FA
:10054700225006E92582C8F622BBFE05E92582C8A6
:02055700F2228E
:10055900BC000BBE0029EF8DF084FFADF022E4CC86
:10056900F875F008EF2FFFEE33FEEC33FCEE9DEC4F
:10057900984005FCEE9DFE0FD5F0E9E4CEFD22ED95
:10058900F8F5F0EE8420D21CFEADF075F008EF2FDF
:10059900FFED33FD4007985006D5F0F222C398FDD0
:0505A9000FD5F0EA226D
:0E05AE00C3E49FFFE49EFEE49DFDE49CFC225E
:00000001FF
